{"abi":[{"type":"constructor","inputs":[{"name":"name_","type":"string","internalType":"string"},{"name":"symbol_","type":"string","internalType":"string"},{"name":"totalSupply","type":"uint256","internalType":"uint256"}],"stateMutability":"nonpayable"},{"type":"function","name":"allowance","inputs":[{"name":"owner","type":"address","internalType":"address"},{"name":"spender","type":"address","internalType":"address"}],"outputs":[{"name":"","type":"uint256","internalType":"uint256"}],"stateMutability":"view"},{"type":"function","name":"approve","inputs":[{"name":"spender","type":"address","internalType":"address"},{"name":"value","type":"uint256","internalType":"uint256"}],"outputs":[{"name":"","type":"bool","internalType":"bool"}],"stateMutability":"nonpayable"},{"type":"function","name":"balanceOf","inputs":[{"name":"account","type":"address","internalType":"address"}],"outputs":[{"name":"","type":"uint256","internalType":"uint256"}],"stateMutability":"view"},{"type":"function","name":"decimals","inputs":[],"outputs":[{"name":"","type":"uint8","internalType":"uint8"}],"stateMutability":"view"},{"type":"function","name":"name","inputs":[],"outputs":[{"name":"","type":"string","internalType":"string"}],"stateMutability":"view"},{"type":"function","name":"symbol","inputs":[],"outputs":[{"name":"","type":"string","internalType":"string"}],"stateMutability":"view"},{"type":"function","name":"totalSupply","inputs":[],"outputs":[{"name":"","type":"uint256","internalType":"uint256"}],"stateMutability":"view"},{"type":"function","name":"transfer","inputs":[{"name":"to","type":"address","internalType":"address"},{"name":"value","type":"uint256","internalType":"uint256"}],"outputs":[{"name":"","type":"bool","internalType":"bool"}],"stateMutability":"nonpayable"},{"type":"function","name":"transferFrom","inputs":[{"name":"from","type":"address","internalType":"address"},{"name":"to","type":"address","internalType":"address"},{"name":"value","type":"uint256","internalType":"uint256"}],"outputs":[{"name":"","type":"bool","internalType":"bool"}],"stateMutability":"nonpayable"},{"type":"function","name":"transferWithCallback","inputs":[{"name":"_to","type":"address","internalType":"address"},{"name":"_value","type":"uint256","internalType":"uint256"},{"name":"_data","type":"bytes","internalType":"bytes"}],"outputs":[],"stateMutability":"nonpayable"},{"type":"event","name":"Approval","inputs":[{"name":"owner","type":"address","indexed":true,"internalType":"address"},{"name":"spender","type":"address","indexed":true,"internalType":"address"},{"name":"value","type":"uint256","indexed":false,"internalType":"uint256"}],"anonymous":false},{"type":"event","name":"Transfer","inputs":[{"name":"from","type":"address","indexed":true,"internalType":"address"},{"name":"to","type":"address","indexed":true,"internalType":"address"},{"name":"value","type":"uint256","indexed":false,"internalType":"uint256"}],"anonymous":false},{"type":"error","name":"ERC20InsufficientAllowance","inputs":[{"name":"spender","type":"address","internalType":"address"},{"name":"allowance","type":"uint256","internalType":"uint256"},{"name":"needed","type":"uint256","internalType":"uint256"}]},{"type":"error","name":"ERC20InsufficientBalance","inputs":[{"name":"sender","type":"address","internalType":"address"},{"name":"balance","type":"uint256","internalType":"uint256"},{"name":"needed","type":"uint256","internalType":"uint256"}]},{"type":"error","name":"ERC20InvalidApprover","inputs":[{"name":"approver","type":"address","internalType":"address"}]},{"type":"error","name":"ERC20InvalidReceiver","inputs":[{"name":"receiver","type":"address","internalType":"address"}]},{"type":"error","name":"ERC20InvalidSender","inputs":[{"name":"sender","type":"address","internalType":"address"}]},{"type":"error","name":"ERC20InvalidSpender","inputs":[{"name":"spender","type":"address","internalType":"address"}]}],"bytecode":{"object":"0x608060405234801561001057600080fd5b50604051610d8f380380610d8f83398101604081905261002f9161028c565b8282600361003d8382610383565b50600461004a8282610383565b50505061005d338261006560201b60201c565b505050610469565b6001600160a01b0382166100945760405163ec442f0560e01b8152600060048201526024015b60405180910390fd5b6100a0600083836100a4565b5050565b6001600160a01b0383166100cf5780600260008282546100c49190610442565b909155506101419050565b6001600160a01b038316600090815260208190526040902054818110156101225760405163391434e360e21b81526001600160a01b0385166004820152602481018290526044810183905260640161008b565b6001600160a01b03841660009081526020819052604090209082900390555b6001600160a01b03821661015d5760028054829003905561017c565b6001600160a01b03821660009081526020819052604090208054820190555b816001600160a01b0316836001600160a01b03167fddf252ad1be2c89b69c2b068fc378daa952ba7f163c4a11628f55a4df523b3ef836040516101c191815260200190565b60405180910390a3505050565b634e487b7160e01b600052604160045260246000fd5b600082601f8301126101f557600080fd5b81516001600160401b038082111561020f5761020f6101ce565b604051601f8301601f19908116603f01168101908282118183101715610237576102376101ce565b816040528381526020925086602085880101111561025457600080fd5b600091505b838210156102765785820183015181830184015290820190610259565b6000602085830101528094505050505092915050565b6000806000606084860312156102a157600080fd5b83516001600160401b03808211156102b857600080fd5b6102c4878388016101e4565b945060208601519150808211156102da57600080fd5b506102e7868287016101e4565b925050604084015190509250925092565b600181811c9082168061030c57607f821691505b60208210810361032c57634e487b7160e01b600052602260045260246000fd5b50919050565b601f82111561037e576000816000526020600020601f850160051c8101602086101561035b5750805b601f850160051c820191505b8181101561037a57828155600101610367565b5050505b505050565b81516001600160401b0381111561039c5761039c6101ce565b6103b0816103aa84546102f8565b84610332565b602080601f8311600181146103e557600084156103cd5750858301515b600019600386901b1c1916600185901b17855561037a565b600085815260208120601f198616915b82811015610414578886015182559484019460019091019084016103f5565b50858210156104325787850151600019600388901b60f8161c191681555b5050505050600190811b01905550565b8082018082111561046357634e487b7160e01b600052601160045260246000fd5b92915050565b610917806104786000396000f3fe608060405234801561001057600080fd5b506004361061009e5760003560e01c806370a082311161006657806370a082311461011857806395d89b4114610141578063a9059cbb14610149578063d31391951461015c578063dd62ed3e1461017157600080fd5b806306fdde03146100a3578063095ea7b3146100c157806318160ddd146100e457806323b872dd146100f6578063313ce56714610109575b600080fd5b6100ab6101aa565b6040516100b8919061065c565b60405180910390f35b6100d46100cf366004610692565b61023c565b60405190151581526020016100b8565b6002545b6040519081526020016100b8565b6100d46101043660046106bc565b610256565b604051601281526020016100b8565b6100e86101263660046106f8565b6001600160a01b031660009081526020819052604090205490565b6100ab61027a565b6100d4610157366004610692565b610289565b61016f61016a366004610729565b610297565b005b6100e861017f3660046107f4565b6001600160a01b03918216600090815260016020908152604080832093909416825291909152205490565b6060600380546101b990610827565b80601f01602080910402602001604051908101604052809291908181526020018280546101e590610827565b80156102325780601f1061020757610100808354040283529160200191610232565b820191906000526020600020905b81548152906001019060200180831161021557829003601f168201915b5050505050905090565b60003361024a81858561032e565b60019150505b92915050565b60003361026485828561033b565b61026f8585856103b8565b506001949350505050565b6060600480546101b990610827565b60003361024a8185856103b8565b6102a18383610289565b506001600160a01b0383163b15610329576040516322a4bb5160e11b81526001600160a01b0384169063454976a2906102e4903390879087908790600401610861565b6020604051808303816000875af1158015610303573d6000803e3d6000fd5b505050506040513d601f19601f82011682018060405250810190610327919061089e565b505b505050565b6103298383836001610417565b6001600160a01b03838116600090815260016020908152604080832093861683529290522054600019811461032757818110156103a957604051637dc7a0d960e11b81526001600160a01b038416600482015260248101829052604481018390526064015b60405180910390fd5b61032784848484036000610417565b6001600160a01b0383166103e257604051634b637e8f60e11b8152600060048201526024016103a0565b6001600160a01b03821661040c5760405163ec442f0560e01b8152600060048201526024016103a0565b6103298383836104ec565b6001600160a01b0384166104415760405163e602df0560e01b8152600060048201526024016103a0565b6001600160a01b03831661046b57604051634a1406b160e11b8152600060048201526024016103a0565b6001600160a01b038085166000908152600160209081526040808320938716835292905220829055801561032757826001600160a01b0316846001600160a01b03167f8c5be1e5ebec7d5bd14f71427d1e84f3dd0314c0f7b2291e5b200ac8c7c3b925846040516104de91815260200190565b60405180910390a350505050565b6001600160a01b03831661051757806002600082825461050c91906108c0565b909155506105899050565b6001600160a01b0383166000908152602081905260409020548181101561056a5760405163391434e360e21b81526001600160a01b038516600482015260248101829052604481018390526064016103a0565b6001600160a01b03841660009081526020819052604090209082900390555b6001600160a01b0382166105a5576002805482900390556105c4565b6001600160a01b03821660009081526020819052604090208054820190555b816001600160a01b0316836001600160a01b03167fddf252ad1be2c89b69c2b068fc378daa952ba7f163c4a11628f55a4df523b3ef8360405161060991815260200190565b60405180910390a3505050565b6000815180845260005b8181101561063c57602081850181015186830182015201610620565b506000602082860101526020601f19601f83011685010191505092915050565b60208152600061066f6020830184610616565b9392505050565b80356001600160a01b038116811461068d57600080fd5b919050565b600080604083850312156106a557600080fd5b6106ae83610676565b946020939093013593505050565b6000806000606084860312156106d157600080fd5b6106da84610676565b92506106e860208501610676565b9150604084013590509250925092565b60006020828403121561070a57600080fd5b61066f82610676565b634e487b7160e01b600052604160045260246000fd5b60008060006060848603121561073e57600080fd5b61074784610676565b925060208401359150604084013567ffffffffffffffff8082111561076b57600080fd5b818601915086601f83011261077f57600080fd5b81358181111561079157610791610713565b604051601f8201601f19908116603f011681019083821181831017156107b9576107b9610713565b816040528281528960208487010111156107d257600080fd5b8260208601602083013760006020848301015280955050505050509250925092565b6000806040838503121561080757600080fd5b61081083610676565b915061081e60208401610676565b90509250929050565b600181811c9082168061083b57607f821691505b60208210810361085b57634e487b7160e01b600052602260045260246000fd5b50919050565b6001600160a01b038581168252841660208201526040810183905260806060820181905260009061089490830184610616565b9695505050505050565b6000602082840312156108b057600080fd5b8151801515811461066f57600080fd5b8082018082111561025057634e487b7160e01b600052601160045260246000fdfea26469706673582212201eed38c9295c06e513345497815a5d480a53b21cb0a768385757f0b021bb494a64736f6c63430008190033","linkReferences":{}},"methodIdentifiers":{"allowance(address,address)":"dd62ed3e","approve(address,uint256)":"095ea7b3","balanceOf(address)":"70a08231","decimals()":"313ce567","name()":"06fdde03","symbol()":"95d89b41","totalSupply()":"18160ddd","transfer(address,uint256)":"a9059cbb","transferFrom(address,address,uint256)":"23b872dd","transferWithCallback(address,uint256,bytes)":"d3139195"},"id":37}