{"abi":[{"type":"function","name":"buyNFT","inputs":[{"name":"contractAddress","type":"address","internalType":"address"},{"name":"tokenId","type":"uint256","internalType":"uint256"},{"name":"payErc20Contract","type":"address","internalType":"address"}],"outputs":[],"stateMutability":"nonpayable"},{"type":"function","name":"list","inputs":[{"name":"contractAddress","type":"address","internalType":"address"},{"name":"tokenId","type":"uint256","internalType":"uint256"},{"name":"listPric","type":"uint256","internalType":"uint256"}],"outputs":[],"stateMutability":"nonpayable"},{"type":"function","name":"listPrice","inputs":[{"name":"contractAddress","type":"address","internalType":"address"},{"name":"tokenId","type":"uint256","internalType":"uint256"}],"outputs":[{"name":"","type":"uint256","internalType":"uint256"}],"stateMutability":"view"},{"type":"function","name":"onERC721Received","inputs":[{"name":"","type":"address","internalType":"address"},{"name":"","type":"address","internalType":"address"},{"name":"","type":"uint256","internalType":"uint256"},{"name":"","type":"bytes","internalType":"bytes"}],"outputs":[{"name":"","type":"bytes4","internalType":"bytes4"}],"stateMutability":"pure"},{"type":"function","name":"ownerOf","inputs":[{"name":"contractAddress","type":"address","internalType":"address"},{"name":"tokenId","type":"uint256","internalType":"uint256"}],"outputs":[{"name":"","type":"address","internalType":"address"}],"stateMutability":"view"},{"type":"function","name":"tokensReceive","inputs":[{"name":"_from","type":"address","internalType":"address"},{"name":"_to","type":"address","internalType":"address"},{"name":"_value","type":"uint256","internalType":"uint256"},{"name":"_data","type":"bytes","internalType":"bytes"}],"outputs":[{"name":"","type":"bool","internalType":"bool"}],"stateMutability":"nonpayable"}],"bytecode":{"object":"0x6080604052348015600f57600080fd5b5061091d8061001f6000396000f3fe608060405234801561001057600080fd5b50600436106100625760003560e01c8063150b7a02146100675780631f29d2dc146100a3578063454976a2146100ce5780638b199bc7146100f1578063dda342bb14610138578063ffe50b891461014d575b600080fd5b6100856100753660046106ff565b630a85bd0160e11b949350505050565b6040516001600160e01b031990911681526020015b60405180910390f35b6100b66100b13660046107c3565b610160565b6040516001600160a01b03909116815260200161009a565b6100e16100dc3660046106ff565b610188565b604051901515815260200161009a565b61012a6100ff3660046107c3565b6001600160a01b03919091166000908152600260209081526040808320938352929052206001015490565b60405190815260200161009a565b61014b6101463660046107ef565b610370565b005b61014b61015b366004610824565b610423565b6001600160a01b03918216600090815260026020908152604080832093835292905220541690565b6000808280602001905181019061019f9190610866565b80519091506001600160a01b0316158015906101bf575060008160200151115b6102045760405162461bcd60e51b81526020600482015260116024820152706461746120656e747279206572726f727360781b60448201526064015b60405180910390fd5b80516020808301516001600160a01b03909216600090815260028252604080822093825292909152206001015484146102765760405162461bcd60e51b81526020600482015260146024820152734e6f20657175616c73206c69737420707269636560601b60448201526064016101fb565b600061028a82600001518360200151610160565b905060006102a287846000015185602001518b610527565b9050806102e05760405162461bcd60e51b815260206004820152600c60248201526b1d185b9cd9995c8819985a5b60a21b60448201526064016101fb565b600080546001600160a01b0319163390811790915560405163a9059cbb60e01b81526001600160a01b03841660048201526024810188905263a9059cbb906044016020604051808303816000875af1158015610340573d6000803e3d6000fd5b505050506040513d601f19601f8201168201806040525081019061036491906108be565b50979650505050505050565b600180546001600160a01b0319166001600160a01b038516908117909155604051632142170760e11b8152336004820152306024820152604481018490526342842e0e90606401600060405180830381600087803b1580156103d157600080fd5b505af11580156103e5573d6000803e3d6000fd5b505050506001600160a01b039290921660009081526002602090815260408083209383529290522080546001600160a01b0319163317815560010155565b600080546001600160a01b0319166001600160a01b03838116918217835585811683526002602090815260408085208786529091529283902080546001919091015493516323b872dd60e01b8152336004820152911660248201526044810192909252906323b872dd906064016020604051808303816000875af11580156104af573d6000803e3d6000fd5b505050506040513d601f19601f820116820180604052508101906104d391906108be565b6105155760405162461bcd60e51b8152602060048201526013602482015272135bdb995e48151c985b9cd9995c8819985a5b606a1b60448201526064016101fb565b61052130848433610527565b50505050565b6000806105348585610160565b6001600160a01b03160361057d5760405162461bcd60e51b815260206004820152601060248201526f1d5cd95c881a5cc81b9bdd081b1a5cdd60821b60448201526064016101fb565b816001600160a01b03166105918585610160565b6001600160a01b0316036105dd5760405162461bcd60e51b8152602060048201526013602482015272313abcb2b91034b9903737ba1039b2b63632b960691b60448201526064016101fb565b600180546001600160a01b0319166001600160a01b03868116918217909255604051632142170760e11b81528783166004820152918416602483015260448201859052906342842e0e90606401600060405180830381600087803b15801561064457600080fd5b505af1158015610658573d6000803e3d6000fd5b505050506001600160a01b0393909316600090815260026020908152604080832094835293905291822080546001600160a01b03191681556001908101929092555092915050565b6001600160a01b03811681146106b557600080fd5b50565b634e487b7160e01b600052604160045260246000fd5b604051601f8201601f1916810167ffffffffffffffff811182821017156106f7576106f76106b8565b604052919050565b6000806000806080858703121561071557600080fd5b8435610720816106a0565b9350602085810135610731816106a0565b935060408601359250606086013567ffffffffffffffff8082111561075557600080fd5b818801915088601f83011261076957600080fd5b81358181111561077b5761077b6106b8565b61078d601f8201601f191685016106ce565b915080825289848285010111156107a357600080fd5b808484018584013760008482840101525080935050505092959194509250565b600080604083850312156107d657600080fd5b82356107e1816106a0565b946020939093013593505050565b60008060006060848603121561080457600080fd5b833561080f816106a0565b95602085013595506040909401359392505050565b60008060006060848603121561083957600080fd5b8335610844816106a0565b925060208401359150604084013561085b816106a0565b809150509250925092565b60006040828403121561087857600080fd5b6040516040810181811067ffffffffffffffff8211171561089b5761089b6106b8565b60405282516108a9816106a0565b81526020928301519281019290925250919050565b6000602082840312156108d057600080fd5b815180151581146108e057600080fd5b939250505056fea26469706673582212201ed677252436f9c5446a576ef7b3a282458a2c8d511f3652af816440dfa5086f64736f6c63430008190033","linkReferences":{}},"methodIdentifiers":{"buyNFT(address,uint256,address)":"ffe50b89","list(address,uint256,uint256)":"dda342bb","listPrice(address,uint256)":"8b199bc7","onERC721Received(address,address,uint256,bytes)":"150b7a02","ownerOf(address,uint256)":"1f29d2dc","tokensReceive(address,address,uint256,bytes)":"454976a2"},"id":40}