{"abi":[{"type":"function","name":"buyNFT","inputs":[{"name":"contractAddress","type":"address","internalType":"address"},{"name":"tokenId","type":"uint256","internalType":"uint256"},{"name":"payErc20Contract","type":"address","internalType":"address"}],"outputs":[],"stateMutability":"nonpayable"},{"type":"function","name":"list","inputs":[{"name":"contractAddress","type":"address","internalType":"address"},{"name":"tokenId","type":"uint256","internalType":"uint256"},{"name":"listPric","type":"uint256","internalType":"uint256"}],"outputs":[],"stateMutability":"nonpayable"},{"type":"function","name":"listPrice","inputs":[{"name":"contractAddress","type":"address","internalType":"address"},{"name":"tokenId","type":"uint256","internalType":"uint256"}],"outputs":[{"name":"","type":"uint256","internalType":"uint256"}],"stateMutability":"view"},{"type":"function","name":"onERC721Received","inputs":[{"name":"","type":"address","internalType":"address"},{"name":"","type":"address","internalType":"address"},{"name":"","type":"uint256","internalType":"uint256"},{"name":"","type":"bytes","internalType":"bytes"}],"outputs":[{"name":"","type":"bytes4","internalType":"bytes4"}],"stateMutability":"pure"},{"type":"function","name":"ownerOf","inputs":[{"name":"contractAddress","type":"address","internalType":"address"},{"name":"tokenId","type":"uint256","internalType":"uint256"}],"outputs":[{"name":"","type":"address","internalType":"address"}],"stateMutability":"view"},{"type":"function","name":"tokensReceive","inputs":[{"name":"_from","type":"address","internalType":"address"},{"name":"_to","type":"address","internalType":"address"},{"name":"_value","type":"uint256","internalType":"uint256"},{"name":"_data","type":"bytes","internalType":"bytes"}],"outputs":[{"name":"","type":"bool","internalType":"bool"}],"stateMutability":"nonpayable"},{"type":"event","name":"buyOrder","inputs":[{"name":"from","type":"address","indexed":true,"internalType":"address"},{"name":"contractAddress","type":"address","indexed":true,"internalType":"address"},{"name":"tokenId","type":"uint256","indexed":true,"internalType":"uint256"},{"name":"listPrice","type":"uint256","indexed":false,"internalType":"uint256"}],"anonymous":false},{"type":"event","name":"listOrder","inputs":[{"name":"from","type":"address","indexed":true,"internalType":"address"},{"name":"contractAddress","type":"address","indexed":true,"internalType":"address"},{"name":"tokenId","type":"uint256","indexed":true,"internalType":"uint256"},{"name":"listPrice","type":"uint256","indexed":false,"internalType":"uint256"}],"anonymous":false}],"bytecode":{"object":"0x6080604052348015600f57600080fd5b506109988061001f6000396000f3fe608060405234801561001057600080fd5b50600436106100625760003560e01c8063150b7a02146100675780631f29d2dc146100a3578063454976a2146100ce5780638b199bc7146100f1578063dda342bb14610112578063ffe50b8914610127575b600080fd5b61008561007536600461077a565b630a85bd0160e11b949350505050565b6040516001600160e01b031990911681526020015b60405180910390f35b6100b66100b136600461083e565b61013a565b6040516001600160a01b03909116815260200161009a565b6100e16100dc36600461077a565b610162565b604051901515815260200161009a565b6101046100ff36600461083e565b61032f565b60405190815260200161009a565b61012561012036600461086a565b61035a565b005b61012561013536600461089f565b61044a565b6001600160a01b03918216600090815260026020908152604080832093835292905220541690565b6000808280602001905181019061017991906108e1565b80519091506001600160a01b031615801590610199575060008160200151115b6101de5760405162461bcd60e51b81526020600482015260116024820152706461746120656e747279206572726f727360781b60448201526064015b60405180910390fd5b836101f18260000151836020015161032f565b146102355760405162461bcd60e51b81526020600482015260146024820152734e6f20657175616c73206c69737420707269636560601b60448201526064016101d5565b60006102498260000151836020015161013a565b9050600061026187846000015185602001518b6105a2565b90508061029f5760405162461bcd60e51b815260206004820152600c60248201526b1d185b9cd9995c8819985a5b60a21b60448201526064016101d5565b600080546001600160a01b0319163390811790915560405163a9059cbb60e01b81526001600160a01b03841660048201526024810188905263a9059cbb906044016020604051808303816000875af11580156102ff573d6000803e3d6000fd5b505050506040513d601f19601f820116820180604052508101906103239190610939565b50979650505050505050565b6001600160a01b03919091166000908152600260209081526040808320938352929052206001015490565b600180546001600160a01b0319166001600160a01b038516908117909155604051632142170760e11b8152336004820152306024820152604481018490526342842e0e90606401600060405180830381600087803b1580156103bb57600080fd5b505af11580156103cf573d6000803e3d6000fd5b505050506001600160a01b038316600081815260026020908152604080832086845282529182902080546001600160a01b03191633908117825560019091018590559151848152859392917f9403cc472149b57dc853960dcefe862ece534877fe046522f9b075e046c69236910160405180910390a4505050565b6000610456848461032f565b600080546001600160a01b0319166001600160a01b0385811691821783558781168352600260209081526040808520898652909152928390205492516323b872dd60e01b815233600482015292166024830152604482018390529192506323b872dd906064016020604051808303816000875af11580156104db573d6000803e3d6000fd5b505050506040513d601f19601f820116820180604052508101906104ff9190610939565b6105415760405162461bcd60e51b8152602060048201526013602482015272135bdb995e48151c985b9cd9995c8819985a5b606a1b60448201526064016101d5565b61054d308585336105a2565b5082846001600160a01b0316336001600160a01b03167fcd8a64c4d006e94cc9ec7c0907e485b0ee6b17e0bff0f7a75b6840b73111a9648460405161059491815260200190565b60405180910390a450505050565b6000806105af858561013a565b6001600160a01b0316036105f85760405162461bcd60e51b815260206004820152601060248201526f1d5cd95c881a5cc81b9bdd081b1a5cdd60821b60448201526064016101d5565b816001600160a01b031661060c858561013a565b6001600160a01b0316036106585760405162461bcd60e51b8152602060048201526013602482015272313abcb2b91034b9903737ba1039b2b63632b960691b60448201526064016101d5565b600180546001600160a01b0319166001600160a01b03868116918217909255604051632142170760e11b81528783166004820152918416602483015260448201859052906342842e0e90606401600060405180830381600087803b1580156106bf57600080fd5b505af11580156106d3573d6000803e3d6000fd5b505050506001600160a01b0393909316600090815260026020908152604080832094835293905291822080546001600160a01b03191681556001908101929092555092915050565b6001600160a01b038116811461073057600080fd5b50565b634e487b7160e01b600052604160045260246000fd5b604051601f8201601f1916810167ffffffffffffffff8111828210171561077257610772610733565b604052919050565b6000806000806080858703121561079057600080fd5b843561079b8161071b565b93506020858101356107ac8161071b565b935060408601359250606086013567ffffffffffffffff808211156107d057600080fd5b818801915088601f8301126107e457600080fd5b8135818111156107f6576107f6610733565b610808601f8201601f19168501610749565b9150808252898482850101111561081e57600080fd5b808484018584013760008482840101525080935050505092959194509250565b6000806040838503121561085157600080fd5b823561085c8161071b565b946020939093013593505050565b60008060006060848603121561087f57600080fd5b833561088a8161071b565b95602085013595506040909401359392505050565b6000806000606084860312156108b457600080fd5b83356108bf8161071b565b92506020840135915060408401356108d68161071b565b809150509250925092565b6000604082840312156108f357600080fd5b6040516040810181811067ffffffffffffffff8211171561091657610916610733565b60405282516109248161071b565b81526020928301519281019290925250919050565b60006020828403121561094b57600080fd5b8151801515811461095b57600080fd5b939250505056fea2646970667358221220c27f0e600330f52ccdf43d5fb57abb38bfdfb0ffb5d7ac29a5ff9a9cf085659a64736f6c63430008190033","linkReferences":{}},"methodIdentifiers":{"buyNFT(address,uint256,address)":"ffe50b89","list(address,uint256,uint256)":"dda342bb","listPrice(address,uint256)":"8b199bc7","onERC721Received(address,address,uint256,bytes)":"150b7a02","ownerOf(address,uint256)":"1f29d2dc","tokensReceive(address,address,uint256,bytes)":"454976a2"},"id":40}