{"abi":[{"type":"constructor","inputs":[],"stateMutability":"nonpayable"},{"type":"function","name":"buyNFT","inputs":[{"name":"contractAddress","type":"address","internalType":"address"},{"name":"tokenId","type":"uint256","internalType":"uint256"},{"name":"payErc20Contract","type":"address","internalType":"address"}],"outputs":[],"stateMutability":"nonpayable"},{"type":"function","name":"eip712Domain","inputs":[],"outputs":[{"name":"fields","type":"bytes1","internalType":"bytes1"},{"name":"name","type":"string","internalType":"string"},{"name":"version","type":"string","internalType":"string"},{"name":"chainId","type":"uint256","internalType":"uint256"},{"name":"verifyingContract","type":"address","internalType":"address"},{"name":"salt","type":"bytes32","internalType":"bytes32"},{"name":"extensions","type":"uint256[]","internalType":"uint256[]"}],"stateMutability":"view"},{"type":"function","name":"list","inputs":[{"name":"contractAddress","type":"address","internalType":"address"},{"name":"tokenId","type":"uint256","internalType":"uint256"},{"name":"listPrice","type":"uint256","internalType":"uint256"}],"outputs":[],"stateMutability":"nonpayable"},{"type":"function","name":"onERC721BuyReceived","inputs":[{"name":"contractAddress","type":"address","internalType":"address"},{"name":"buyUser","type":"address","internalType":"address"},{"name":"tokenId","type":"uint256","internalType":"uint256"},{"name":"","type":"bytes","internalType":"bytes"}],"outputs":[{"name":"","type":"bool","internalType":"bool"}],"stateMutability":"nonpayable"},{"type":"function","name":"onERC721Received","inputs":[{"name":"","type":"address","internalType":"address"},{"name":"","type":"address","internalType":"address"},{"name":"","type":"uint256","internalType":"uint256"},{"name":"","type":"bytes","internalType":"bytes"}],"outputs":[{"name":"","type":"bytes4","internalType":"bytes4"}],"stateMutability":"pure"},{"type":"function","name":"queryOwner","inputs":[{"name":"contractAddress","type":"address","internalType":"address"},{"name":"tokenId","type":"uint256","internalType":"uint256"}],"outputs":[{"name":"","type":"address","internalType":"address"}],"stateMutability":"view"},{"type":"function","name":"queryPrice","inputs":[{"name":"contractAddress","type":"address","internalType":"address"},{"name":"tokenId","type":"uint256","internalType":"uint256"}],"outputs":[{"name":"","type":"uint256","internalType":"uint256"}],"stateMutability":"view"},{"type":"event","name":"EIP712DomainChanged","inputs":[],"anonymous":false},{"type":"error","name":"InvalidShortString","inputs":[]},{"type":"error","name":"StringTooLong","inputs":[{"name":"str","type":"string","internalType":"string"}]}],"bytecode":{"object":"0x61016060405234801561001157600080fd5b50604080518082018252600981526813919513585c9ad95d60ba1b602080830191909152825180840190935260018352603160f81b9083015290610056826000610100565b61012052610065816001610100565b61014052815160208084019190912060e052815190820120610100524660a0526100f260e05161010051604080517f8b73c3c69bb8fe3d512ecc4cf759cc79239f7b179b0ffacaa9a75d522b39400f60208201529081019290925260608201524660808201523060a082015260009060c00160405160208183030381529060405280519060200120905090565b60805250503060c05261034d565b600060208351101561011c5761011583610133565b905061012d565b81610127848261021b565b5060ff90505b92915050565b600080829050601f81511115610167578260405163305a27a960e01b815260040161015e91906102da565b60405180910390fd5b805161017282610329565b179392505050565b634e487b7160e01b600052604160045260246000fd5b600181811c908216806101a457607f821691505b6020821081036101c457634e487b7160e01b600052602260045260246000fd5b50919050565b601f821115610216576000816000526020600020601f850160051c810160208610156101f35750805b601f850160051c820191505b81811015610212578281556001016101ff565b5050505b505050565b81516001600160401b038111156102345761023461017a565b610248816102428454610190565b846101ca565b602080601f83116001811461027d57600084156102655750858301515b600019600386901b1c1916600185901b178555610212565b600085815260208120601f198616915b828110156102ac5788860151825594840194600190910190840161028d565b50858210156102ca5787850151600019600388901b60f8161c191681555b5050505050600190811b01905550565b60006020808352835180602085015260005b81811015610308578581018301518582016040015282016102ec565b506000604082860101526040601f19601f8301168501019250505092915050565b805160208083015191908110156101c45760001960209190910360031b1b16919050565b60805160a05160c05160e051610100516101205161014051610c1a61039860003960006106ef015260006106bd01526000505060005050600050506000505060005050610c1a6000f3fe608060405234801561001057600080fd5b506004361061007d5760003560e01c8063dda342bb1161005b578063dda342bb14610104578063e1f8d77114610119578063e336afb01461013c578063ffe50b891461018357600080fd5b8063150b7a02146100825780633dae5dc8146100be57806384b0196e146100e9575b600080fd5b6100a0610090366004610855565b630a85bd0160e11b949350505050565b6040516001600160e01b031990911681526020015b60405180910390f35b6100d16100cc366004610931565b610196565b6040516001600160a01b0390911681526020016100b5565b6100f16101c3565b6040516100b597969594939291906109a1565b610117610112366004610a3a565b610209565b005b61012c610127366004610a6d565b6102b8565b60405190151581526020016100b5565b61017561014a366004610931565b6001600160a01b03919091166000908152600460209081526040808320938352929052206001015490565b6040519081526020016100b5565b610117610191366004610b08565b610377565b6001600160a01b038083166000908152600460209081526040808320858452909152902054165b92915050565b6000606080600080600060606101d76106b6565b6101df6106e8565b60408051600080825260208201909252600f60f81b9b939a50919850469750309650945092509050565b600380546001600160a01b0319166001600160a01b038516908117909155604051632142170760e11b81526342842e0e9061024c90339030908790600401610b44565b600060405180830381600087803b15801561026657600080fd5b505af115801561027a573d6000803e3d6000fd5b505050506001600160a01b039290921660009081526004602090815260408083209383529290522080546001600160a01b0319163317815560010155565b600380546001600160a01b0319166001600160a01b038716908117909155604051632142170760e11b8152600091906342842e0e906102ff90309089908990600401610b44565b600060405180830381600087803b15801561031957600080fd5b505af115801561032d573d6000803e3d6000fd5b505050506001600160a01b0395909516600090815260046020908152604080832095835294905292832080546001600160a01b031916815560019081019390935550909392505050565b600280546001600160a01b03199081166001600160a01b0384811691821790935560038054909216928616928317909155600091825260046020818152604080852087865290915292839020600101549251636eb1769f60e11b8152339181019190915230602482015282919063dd62ed3e90604401602060405180830381865afa15801561040a573d6000803e3d6000fd5b505050506040513d601f19601f8201168201806040525081019061042e9190610b68565b10156104815760405162461bcd60e51b815260206004820181905260248201527f496e73756666696369656e7420617574686f72697a6174696f6e206c696d697460448201526064015b60405180910390fd5b6002546040516370a0823160e01b815233600482015282916001600160a01b0316906370a0823190602401602060405180830381865afa1580156104c9573d6000803e3d6000fd5b505050506040513d601f19601f820116820180604052508101906104ed9190610b68565b10156105325760405162461bcd60e51b8152602060048201526014602482015273496e73756666696369656e742062616c616e636560601b6044820152606401610478565b6002546001600160a01b03858116600090815260046020818152604080842089855290915291829020805460019091015492516323b872dd60e01b8152948416946323b872dd9461058c9433949390911692909101610b44565b6020604051808303816000875af11580156105ab573d6000803e3d6000fd5b505050506040513d601f19601f820116820180604052508101906105cf9190610b81565b6106115760405162461bcd60e51b8152602060048201526013602482015272151bdad95b88151c985b9cd9995c8819985a5b606a1b6044820152606401610478565b600354604051632142170760e11b81526001600160a01b03909116906342842e0e9061064590309033908890600401610b44565b600060405180830381600087803b15801561065f57600080fd5b505af1158015610673573d6000803e3d6000fd5b505050506001600160a01b0393909316600090815260046020908152604080832094835293905291822080546001600160a01b0319168155600101919091555050565b60606106e37f00000000000000000000000000000000000000000000000000000000000000006000610711565b905090565b60606106e37f000000000000000000000000000000000000000000000000000000000000000060015b606060ff831461072b57610724836107bc565b90506101bd565b81805461073790610baa565b80601f016020809104026020016040519081016040528092919081815260200182805461076390610baa565b80156107b05780601f10610785576101008083540402835291602001916107b0565b820191906000526020600020905b81548152906001019060200180831161079357829003601f168201915b505050505090506101bd565b606060006107c9836107fb565b604080516020808252818301909252919250600091906020820181803683375050509182525060208101929092525090565b600060ff8216601f8111156101bd57604051632cd44ac360e21b815260040160405180910390fd5b80356001600160a01b038116811461083a57600080fd5b919050565b634e487b7160e01b600052604160045260246000fd5b6000806000806080858703121561086b57600080fd5b61087485610823565b935061088260208601610823565b925060408501359150606085013567ffffffffffffffff808211156108a657600080fd5b818701915087601f8301126108ba57600080fd5b8135818111156108cc576108cc61083f565b604051601f8201601f19908116603f011681019083821181831017156108f4576108f461083f565b816040528281528a602084870101111561090d57600080fd5b82602086016020830137600060208483010152809550505050505092959194509250565b6000806040838503121561094457600080fd5b61094d83610823565b946020939093013593505050565b6000815180845260005b8181101561098157602081850181015186830182015201610965565b506000602082860101526020601f19601f83011685010191505092915050565b60ff60f81b881681526000602060e060208401526109c260e084018a61095b565b83810360408501526109d4818a61095b565b606085018990526001600160a01b038816608086015260a0850187905284810360c08601528551808252602080880193509091019060005b81811015610a2857835183529284019291840191600101610a0c565b50909c9b505050505050505050505050565b600080600060608486031215610a4f57600080fd5b610a5884610823565b95602085013595506040909401359392505050565b600080600080600060808688031215610a8557600080fd5b610a8e86610823565b9450610a9c60208701610823565b935060408601359250606086013567ffffffffffffffff80821115610ac057600080fd5b818801915088601f830112610ad457600080fd5b813581811115610ae357600080fd5b896020828501011115610af557600080fd5b9699959850939650602001949392505050565b600080600060608486031215610b1d57600080fd5b610b2684610823565b925060208401359150610b3b60408501610823565b90509250925092565b6001600160a01b039384168152919092166020820152604081019190915260600190565b600060208284031215610b7a57600080fd5b5051919050565b600060208284031215610b9357600080fd5b81518015158114610ba357600080fd5b9392505050565b600181811c90821680610bbe57607f821691505b602082108103610bde57634e487b7160e01b600052602260045260246000fd5b5091905056fea2646970667358221220d017138bd6819e9424132baaee2859f25c2c29a5f3dbd101851db230af9f599e64736f6c63430008190033","linkReferences":{}},"methodIdentifiers":{"buyNFT(address,uint256,address)":"ffe50b89","eip712Domain()":"84b0196e","list(address,uint256,uint256)":"dda342bb","onERC721BuyReceived(address,address,uint256,bytes)":"e1f8d771","onERC721Received(address,address,uint256,bytes)":"150b7a02","queryOwner(address,uint256)":"3dae5dc8","queryPrice(address,uint256)":"e336afb0"},"storageLayout":{"storage":[{"astId":50936,"contract":"src/NFTMarketV1.sol:NFTMarketV1","label":"_nameFallback","offset":0,"slot":"0","type":"t_string_storage"},{"astId":50938,"contract":"src/NFTMarketV1.sol:NFTMarketV1","label":"_versionFallback","offset":0,"slot":"1","type":"t_string_storage"},{"astId":58197,"contract":"src/NFTMarketV1.sol:NFTMarketV1","label":"tokenContract","offset":0,"slot":"2","type":"t_contract(ERC20)48151"},{"astId":58200,"contract":"src/NFTMarketV1.sol:NFTMarketV1","label":"NFTContract","offset":0,"slot":"3","type":"t_contract(ERC721)49455"},{"astId":58212,"contract":"src/NFTMarketV1.sol:NFTMarketV1","label":"marketList","offset":0,"slot":"4","type":"t_mapping(t_address,t_mapping(t_uint256,t_struct(listUser)58205_storage))"}],"types":{"t_address":{"encoding":"inplace","label":"address","numberOfBytes":"20"},"t_contract(ERC20)48151":{"encoding":"inplace","label":"contract ERC20","numberOfBytes":"20"},"t_contract(ERC721)49455":{"encoding":"inplace","label":"contract ERC721","numberOfBytes":"20"},"t_mapping(t_address,t_mapping(t_uint256,t_struct(listUser)58205_storage))":{"encoding":"mapping","key":"t_address","label":"mapping(address => mapping(uint256 => struct NFTMarketV1.listUser))","numberOfBytes":"32","value":"t_mapping(t_uint256,t_struct(listUser)58205_storage)"},"t_mapping(t_uint256,t_struct(listUser)58205_storage)":{"encoding":"mapping","key":"t_uint256","label":"mapping(uint256 => struct NFTMarketV1.listUser)","numberOfBytes":"32","value":"t_struct(listUser)58205_storage"},"t_string_storage":{"encoding":"bytes","label":"string","numberOfBytes":"32"},"t_struct(listUser)58205_storage":{"encoding":"inplace","label":"struct NFTMarketV1.listUser","numberOfBytes":"64","members":[{"astId":58202,"contract":"src/NFTMarketV1.sol:NFTMarketV1","label":"owner","offset":0,"slot":"0","type":"t_address"},{"astId":58204,"contract":"src/NFTMarketV1.sol:NFTMarketV1","label":"listPrice","offset":0,"slot":"1","type":"t_uint256"}]},"t_uint256":{"encoding":"inplace","label":"uint256","numberOfBytes":"32"}}},"id":68}