{"abi":[{"type":"function","name":"buyNFT","inputs":[{"name":"contractAddress","type":"address","internalType":"address"},{"name":"tokenId","type":"uint256","internalType":"uint256"},{"name":"payErc20Contract","type":"address","internalType":"address"}],"outputs":[],"stateMutability":"nonpayable"},{"type":"function","name":"list","inputs":[{"name":"contractAddress","type":"address","internalType":"address"},{"name":"tokenId","type":"uint256","internalType":"uint256"},{"name":"listPrice","type":"uint256","internalType":"uint256"}],"outputs":[],"stateMutability":"nonpayable"},{"type":"function","name":"onERC721BuyReceived","inputs":[{"name":"contractAddress","type":"address","internalType":"address"},{"name":"buyUser","type":"address","internalType":"address"},{"name":"tokenId","type":"uint256","internalType":"uint256"},{"name":"","type":"bytes","internalType":"bytes"}],"outputs":[{"name":"","type":"bool","internalType":"bool"}],"stateMutability":"nonpayable"},{"type":"function","name":"onERC721Received","inputs":[{"name":"","type":"address","internalType":"address"},{"name":"","type":"address","internalType":"address"},{"name":"","type":"uint256","internalType":"uint256"},{"name":"","type":"bytes","internalType":"bytes"}],"outputs":[{"name":"","type":"bytes4","internalType":"bytes4"}],"stateMutability":"pure"},{"type":"function","name":"queryOwner","inputs":[{"name":"contractAddress","type":"address","internalType":"address"},{"name":"tokenId","type":"uint256","internalType":"uint256"}],"outputs":[{"name":"","type":"address","internalType":"address"}],"stateMutability":"view"},{"type":"function","name":"queryPrice","inputs":[{"name":"contractAddress","type":"address","internalType":"address"},{"name":"tokenId","type":"uint256","internalType":"uint256"}],"outputs":[{"name":"","type":"uint256","internalType":"uint256"}],"stateMutability":"view"}],"bytecode":{"object":"0x6080604052348015600f57600080fd5b506109038061001f6000396000f3fe608060405234801561001057600080fd5b50600436106100625760003560e01c8063150b7a02146100675780633dae5dc8146100a3578063dda342bb146100f1578063e1f8d77114610106578063e336afb014610129578063ffe50b8914610170575b600080fd5b610085610075366004610657565b630a85bd0160e11b949350505050565b6040516001600160e01b031990911681526020015b60405180910390f35b6100d96100b1366004610733565b6001600160a01b03918216600090815260026020908152604080832093835292905220541690565b6040516001600160a01b03909116815260200161009a565b6101046100ff36600461075d565b610183565b005b610119610114366004610790565b610232565b604051901515815260200161009a565b610162610137366004610733565b6001600160a01b03919091166000908152600260209081526040808320938352929052206001015490565b60405190815260200161009a565b61010461017e36600461082b565b6102f1565b600180546001600160a01b0319166001600160a01b038516908117909155604051632142170760e11b81526342842e0e906101c690339030908790600401610867565b600060405180830381600087803b1580156101e057600080fd5b505af11580156101f4573d6000803e3d6000fd5b505050506001600160a01b039290921660009081526002602090815260408083209383529290522080546001600160a01b0319163317815560010155565b600180546001600160a01b0319166001600160a01b038716908117909155604051632142170760e11b8152600091906342842e0e9061027990309089908990600401610867565b600060405180830381600087803b15801561029357600080fd5b505af11580156102a7573d6000803e3d6000fd5b505050506001600160a01b0395909516600090815260026020908152604080832095835294905292832080546001600160a01b031916815560019081019390935550909392505050565b600080546001600160a01b03199081166001600160a01b038481169182178455600180549093169087169081178355835260026020908152604080852087865290915292839020909101549151636eb1769f60e11b815233600482015230602482015282919063dd62ed3e90604401602060405180830381865afa15801561037d573d6000803e3d6000fd5b505050506040513d601f19601f820116820180604052508101906103a1919061088b565b10156103f45760405162461bcd60e51b815260206004820181905260248201527f496e73756666696369656e7420617574686f72697a6174696f6e206c696d697460448201526064015b60405180910390fd5b6000546040516370a0823160e01b815233600482015282916001600160a01b0316906370a0823190602401602060405180830381865afa15801561043c573d6000803e3d6000fd5b505050506040513d601f19601f82011682018060405250810190610460919061088b565b10156104a55760405162461bcd60e51b8152602060048201526014602482015273496e73756666696369656e742062616c616e636560601b60448201526064016103eb565b600080546001600160a01b03868116835260026020908152604080852088865290915292839020805460019091015493516323b872dd60e01b8152928216936323b872dd936104fb933393169190600401610867565b6020604051808303816000875af115801561051a573d6000803e3d6000fd5b505050506040513d601f19601f8201168201806040525081019061053e91906108a4565b6105805760405162461bcd60e51b8152602060048201526013602482015272151bdad95b88151c985b9cd9995c8819985a5b606a1b60448201526064016103eb565b600154604051632142170760e11b81526001600160a01b03909116906342842e0e906105b490309033908890600401610867565b600060405180830381600087803b1580156105ce57600080fd5b505af11580156105e2573d6000803e3d6000fd5b505050506001600160a01b0393909316600090815260026020908152604080832094835293905291822080546001600160a01b0319168155600101919091555050565b80356001600160a01b038116811461063c57600080fd5b919050565b634e487b7160e01b600052604160045260246000fd5b6000806000806080858703121561066d57600080fd5b61067685610625565b935061068460208601610625565b925060408501359150606085013567ffffffffffffffff808211156106a857600080fd5b818701915087601f8301126106bc57600080fd5b8135818111156106ce576106ce610641565b604051601f8201601f19908116603f011681019083821181831017156106f6576106f6610641565b816040528281528a602084870101111561070f57600080fd5b82602086016020830137600060208483010152809550505050505092959194509250565b6000806040838503121561074657600080fd5b61074f83610625565b946020939093013593505050565b60008060006060848603121561077257600080fd5b61077b84610625565b95602085013595506040909401359392505050565b6000806000806000608086880312156107a857600080fd5b6107b186610625565b94506107bf60208701610625565b935060408601359250606086013567ffffffffffffffff808211156107e357600080fd5b818801915088601f8301126107f757600080fd5b81358181111561080657600080fd5b89602082850101111561081857600080fd5b9699959850939650602001949392505050565b60008060006060848603121561084057600080fd5b61084984610625565b92506020840135915061085e60408501610625565b90509250925092565b6001600160a01b039384168152919092166020820152604081019190915260600190565b60006020828403121561089d57600080fd5b5051919050565b6000602082840312156108b657600080fd5b815180151581146108c657600080fd5b939250505056fea264697066735822122008edfe8e83ecd9708d05eeab40fb7d81d979a7963859b9ed6cb5515d6ef34f1664736f6c63430008190033","linkReferences":{}},"methodIdentifiers":{"buyNFT(address,uint256,address)":"ffe50b89","list(address,uint256,uint256)":"dda342bb","onERC721BuyReceived(address,address,uint256,bytes)":"e1f8d771","onERC721Received(address,address,uint256,bytes)":"150b7a02","queryOwner(address,uint256)":"3dae5dc8","queryPrice(address,uint256)":"e336afb0"},"storageLayout":{"storage":[{"astId":58792,"contract":"src/NFTMarketV1.sol:NFTMarketV1","label":"tokenContract","offset":0,"slot":"0","type":"t_contract(ERC20)48749"},{"astId":58795,"contract":"src/NFTMarketV1.sol:NFTMarketV1","label":"NFTContract","offset":0,"slot":"1","type":"t_contract(ERC721)50053"},{"astId":58807,"contract":"src/NFTMarketV1.sol:NFTMarketV1","label":"marketList","offset":0,"slot":"2","type":"t_mapping(t_address,t_mapping(t_uint256,t_struct(listUser)58800_storage))"}],"types":{"t_address":{"encoding":"inplace","label":"address","numberOfBytes":"20"},"t_contract(ERC20)48749":{"encoding":"inplace","label":"contract ERC20","numberOfBytes":"20"},"t_contract(ERC721)50053":{"encoding":"inplace","label":"contract ERC721","numberOfBytes":"20"},"t_mapping(t_address,t_mapping(t_uint256,t_struct(listUser)58800_storage))":{"encoding":"mapping","key":"t_address","label":"mapping(address => mapping(uint256 => struct NFTMarketV1.listUser))","numberOfBytes":"32","value":"t_mapping(t_uint256,t_struct(listUser)58800_storage)"},"t_mapping(t_uint256,t_struct(listUser)58800_storage)":{"encoding":"mapping","key":"t_uint256","label":"mapping(uint256 => struct NFTMarketV1.listUser)","numberOfBytes":"32","value":"t_struct(listUser)58800_storage"},"t_struct(listUser)58800_storage":{"encoding":"inplace","label":"struct NFTMarketV1.listUser","numberOfBytes":"64","members":[{"astId":58797,"contract":"src/NFTMarketV1.sol:NFTMarketV1","label":"owner","offset":0,"slot":"0","type":"t_address"},{"astId":58799,"contract":"src/NFTMarketV1.sol:NFTMarketV1","label":"listPrice","offset":0,"slot":"1","type":"t_uint256"}]},"t_uint256":{"encoding":"inplace","label":"uint256","numberOfBytes":"32"}}},"id":70}