{"abi":[{"type":"function","name":"bankBalance","inputs":[{"name":"contractAddress","type":"address","internalType":"address"}],"outputs":[{"name":"","type":"uint256","internalType":"uint256"}],"stateMutability":"view"},{"type":"function","name":"deposit","inputs":[{"name":"contractAddress","type":"address","internalType":"address"},{"name":"_value","type":"uint256","internalType":"uint256"}],"outputs":[{"name":"","type":"bool","internalType":"bool"}],"stateMutability":"nonpayable"},{"type":"function","name":"permitDeposit","inputs":[{"name":"contractAddress","type":"address","internalType":"address"},{"name":"spender","type":"address","internalType":"address"},{"name":"amount","type":"uint256","internalType":"uint256"},{"name":"deadline","type":"uint256","internalType":"uint256"},{"name":"v","type":"uint8","internalType":"uint8"},{"name":"r","type":"bytes32","internalType":"bytes32"},{"name":"s","type":"bytes32","internalType":"bytes32"}],"outputs":[],"stateMutability":"nonpayable"},{"type":"function","name":"tokensReceive","inputs":[{"name":"_from","type":"address","internalType":"address"},{"name":"","type":"address","internalType":"address"},{"name":"_value","type":"uint256","internalType":"uint256"},{"name":"","type":"bytes","internalType":"bytes"}],"outputs":[{"name":"","type":"bool","internalType":"bool"}],"stateMutability":"nonpayable"},{"type":"function","name":"withdraw","inputs":[{"name":"contractAddress","type":"address","internalType":"address"},{"name":"_value","type":"uint256","internalType":"uint256"}],"outputs":[{"name":"","type":"bool","internalType":"bool"}],"stateMutability":"nonpayable"}],"bytecode":{"object":"0x6080604052348015600f57600080fd5b506107028061001f6000396000f3fe608060405234801561001057600080fd5b50600436106100575760003560e01c8063454976a21461005c57806347e7ef241461008457806379c93970146100975780639839fa4a146100ac578063f3fef3a3146100ec575b600080fd5b61006f61006a3660046104c6565b6100ff565b60405190151581526020015b60405180910390f35b61006f6100923660046105a2565b610142565b6100aa6100a53660046105cc565b61026e565b005b6100de6100ba36600461063f565b6001600160a01b031660009081526020818152604080832033845290915290205490565b60405190815260200161007b565b61006f6100fa3660046105a2565b610308565b336000908152602081815260408083206001600160a01b0388168452909152812080548491908390610132908490610677565b9091555060019695505050505050565b6040513360248201523060448201526064810182905260009081906001600160a01b0385169060840160408051601f198184030181529181526020820180516001600160e01b03166323b872dd60e01b179052516101a0919061068a565b6000604051808303816000865af19150503d80600081146101dd576040519150601f19603f3d011682016040523d82523d6000602084013e6101e2565b606091505b505090508061022e5760405162461bcd60e51b8152602060048201526013602482015272151c985b9cd9995c919bdc9b4819985a5b1959606a1b60448201526064015b60405180910390fd5b6001600160a01b0384166000908152602081815260408083203384529091528120805485929061025f908490610677565b90915550909150505b92915050565b60405163d505accf60e01b81523360048201526001600160a01b038781166024830152604482018790526064820186905260ff8516608483015260a4820184905260c4820183905288169063d505accf9060e401600060405180830381600087803b1580156102dc57600080fd5b505af11580156102f0573d6000803e3d6000fd5b505050506102fe8786610142565b5050505050505050565b6001600160a01b0382166000908152602081815260408083203384529091528120548281101561037a5760405162461bcd60e51b815260206004820152601c60248201527f496e73756666696369656e74206163636f756e742062616c616e6365000000006044820152606401610225565b604051336024820152604481018490526000906001600160a01b0386169060640160408051601f198184030181529181526020820180516001600160e01b031663a9059cbb60e01b179052516103d0919061068a565b6000604051808303816000865af19150503d806000811461040d576040519150601f19603f3d011682016040523d82523d6000602084013e610412565b606091505b50509050806104555760405162461bcd60e51b815260206004820152600f60248201526e1dda5d1a191c985dc819985a5b1959608a1b6044820152606401610225565b6001600160a01b038516600090815260208181526040808320338452909152812080548692906104869084906106b9565b909155509095945050505050565b80356001600160a01b03811681146104ab57600080fd5b919050565b634e487b7160e01b600052604160045260246000fd5b600080600080608085870312156104dc57600080fd5b6104e585610494565b93506104f360208601610494565b925060408501359150606085013567ffffffffffffffff8082111561051757600080fd5b818701915087601f83011261052b57600080fd5b81358181111561053d5761053d6104b0565b604051601f8201601f19908116603f01168101908382118183101715610565576105656104b0565b816040528281528a602084870101111561057e57600080fd5b82602086016020830137600060208483010152809550505050505092959194509250565b600080604083850312156105b557600080fd5b6105be83610494565b946020939093013593505050565b600080600080600080600060e0888a0312156105e757600080fd5b6105f088610494565b96506105fe60208901610494565b95506040880135945060608801359350608088013560ff8116811461062257600080fd5b9699959850939692959460a0840135945060c09093013592915050565b60006020828403121561065157600080fd5b61065a82610494565b9392505050565b634e487b7160e01b600052601160045260246000fd5b8082018082111561026857610268610661565b6000825160005b818110156106ab5760208186018101518583015201610691565b506000920191825250919050565b818103818111156102685761026861066156fea2646970667358221220a23dd86c912028898c1b2c93dce9ee6357dd1926f2e11c03008482f1ddacf91964736f6c63430008190033","linkReferences":{}},"methodIdentifiers":{"bankBalance(address)":"9839fa4a","deposit(address,uint256)":"47e7ef24","permitDeposit(address,address,uint256,uint256,uint8,bytes32,bytes32)":"79c93970","tokensReceive(address,address,uint256,bytes)":"454976a2","withdraw(address,uint256)":"f3fef3a3"},"id":49}