{"abi":[{"type":"constructor","inputs":[{"name":"name_","type":"string","internalType":"string"},{"name":"symbol_","type":"string","internalType":"string"},{"name":"url_","type":"string","internalType":"string"}],"stateMutability":"nonpayable"},{"type":"function","name":"DOMAIN_SEPARATOR","inputs":[],"outputs":[{"name":"","type":"bytes32","internalType":"bytes32"}],"stateMutability":"view"},{"type":"function","name":"approve","inputs":[{"name":"to","type":"address","internalType":"address"},{"name":"tokenId","type":"uint256","internalType":"uint256"}],"outputs":[],"stateMutability":"nonpayable"},{"type":"function","name":"balanceOf","inputs":[{"name":"owner","type":"address","internalType":"address"}],"outputs":[{"name":"","type":"uint256","internalType":"uint256"}],"stateMutability":"view"},{"type":"function","name":"eip712Domain","inputs":[],"outputs":[{"name":"fields","type":"bytes1","internalType":"bytes1"},{"name":"name","type":"string","internalType":"string"},{"name":"version","type":"string","internalType":"string"},{"name":"chainId","type":"uint256","internalType":"uint256"},{"name":"verifyingContract","type":"address","internalType":"address"},{"name":"salt","type":"bytes32","internalType":"bytes32"},{"name":"extensions","type":"uint256[]","internalType":"uint256[]"}],"stateMutability":"view"},{"type":"function","name":"getApproved","inputs":[{"name":"tokenId","type":"uint256","internalType":"uint256"}],"outputs":[{"name":"","type":"address","internalType":"address"}],"stateMutability":"view"},{"type":"function","name":"isApprovedForAll","inputs":[{"name":"owner","type":"address","internalType":"address"},{"name":"operator","type":"address","internalType":"address"}],"outputs":[{"name":"","type":"bool","internalType":"bool"}],"stateMutability":"view"},{"type":"function","name":"mint","inputs":[{"name":"_to","type":"address","internalType":"address"}],"outputs":[],"stateMutability":"nonpayable"},{"type":"function","name":"name","inputs":[],"outputs":[{"name":"","type":"string","internalType":"string"}],"stateMutability":"view"},{"type":"function","name":"owner","inputs":[],"outputs":[{"name":"","type":"address","internalType":"address"}],"stateMutability":"view"},{"type":"function","name":"ownerOf","inputs":[{"name":"tokenId","type":"uint256","internalType":"uint256"}],"outputs":[{"name":"","type":"address","internalType":"address"}],"stateMutability":"view"},{"type":"function","name":"permit","inputs":[{"name":"owner","type":"address","internalType":"address"},{"name":"spender","type":"address","internalType":"address"},{"name":"value","type":"uint256","internalType":"uint256"},{"name":"deadline","type":"uint256","internalType":"uint256"},{"name":"v","type":"uint8","internalType":"uint8"},{"name":"r","type":"bytes32","internalType":"bytes32"},{"name":"s","type":"bytes32","internalType":"bytes32"}],"outputs":[],"stateMutability":"nonpayable"},{"type":"function","name":"renounceOwnership","inputs":[],"outputs":[],"stateMutability":"nonpayable"},{"type":"function","name":"safeTransferFrom","inputs":[{"name":"from","type":"address","internalType":"address"},{"name":"to","type":"address","internalType":"address"},{"name":"tokenId","type":"uint256","internalType":"uint256"}],"outputs":[],"stateMutability":"nonpayable"},{"type":"function","name":"safeTransferFrom","inputs":[{"name":"from","type":"address","internalType":"address"},{"name":"to","type":"address","internalType":"address"},{"name":"tokenId","type":"uint256","internalType":"uint256"},{"name":"data","type":"bytes","internalType":"bytes"}],"outputs":[],"stateMutability":"nonpayable"},{"type":"function","name":"setApprovalForAll","inputs":[{"name":"operator","type":"address","internalType":"address"},{"name":"approved","type":"bool","internalType":"bool"}],"outputs":[],"stateMutability":"nonpayable"},{"type":"function","name":"setNFTMartket","inputs":[{"name":"nftMarketAddress","type":"address","internalType":"address"}],"outputs":[],"stateMutability":"nonpayable"},{"type":"function","name":"supportsInterface","inputs":[{"name":"interfaceId","type":"bytes4","internalType":"bytes4"}],"outputs":[{"name":"","type":"bool","internalType":"bool"}],"stateMutability":"view"},{"type":"function","name":"symbol","inputs":[],"outputs":[{"name":"","type":"string","internalType":"string"}],"stateMutability":"view"},{"type":"function","name":"tokenURI","inputs":[{"name":"tokenId","type":"uint256","internalType":"uint256"}],"outputs":[{"name":"","type":"string","internalType":"string"}],"stateMutability":"view"},{"type":"function","name":"transferFrom","inputs":[{"name":"from","type":"address","internalType":"address"},{"name":"to","type":"address","internalType":"address"},{"name":"tokenId","type":"uint256","internalType":"uint256"}],"outputs":[],"stateMutability":"nonpayable"},{"type":"function","name":"transferOwnership","inputs":[{"name":"newOwner","type":"address","internalType":"address"}],"outputs":[],"stateMutability":"nonpayable"},{"type":"event","name":"Approval","inputs":[{"name":"owner","type":"address","indexed":true,"internalType":"address"},{"name":"approved","type":"address","indexed":true,"internalType":"address"},{"name":"tokenId","type":"uint256","indexed":true,"internalType":"uint256"}],"anonymous":false},{"type":"event","name":"ApprovalForAll","inputs":[{"name":"owner","type":"address","indexed":true,"internalType":"address"},{"name":"operator","type":"address","indexed":true,"internalType":"address"},{"name":"approved","type":"bool","indexed":false,"internalType":"bool"}],"anonymous":false},{"type":"event","name":"EIP712DomainChanged","inputs":[],"anonymous":false},{"type":"event","name":"OwnershipTransferred","inputs":[{"name":"previousOwner","type":"address","indexed":true,"internalType":"address"},{"name":"newOwner","type":"address","indexed":true,"internalType":"address"}],"anonymous":false},{"type":"event","name":"Transfer","inputs":[{"name":"from","type":"address","indexed":true,"internalType":"address"},{"name":"to","type":"address","indexed":true,"internalType":"address"},{"name":"tokenId","type":"uint256","indexed":true,"internalType":"uint256"}],"anonymous":false},{"type":"error","name":"ECDSAInvalidSignature","inputs":[]},{"type":"error","name":"ECDSAInvalidSignatureLength","inputs":[{"name":"length","type":"uint256","internalType":"uint256"}]},{"type":"error","name":"ECDSAInvalidSignatureS","inputs":[{"name":"s","type":"bytes32","internalType":"bytes32"}]},{"type":"error","name":"ERC721IncorrectOwner","inputs":[{"name":"sender","type":"address","internalType":"address"},{"name":"tokenId","type":"uint256","internalType":"uint256"},{"name":"owner","type":"address","internalType":"address"}]},{"type":"error","name":"ERC721InsufficientApproval","inputs":[{"name":"operator","type":"address","internalType":"address"},{"name":"tokenId","type":"uint256","internalType":"uint256"}]},{"type":"error","name":"ERC721InvalidApprover","inputs":[{"name":"approver","type":"address","internalType":"address"}]},{"type":"error","name":"ERC721InvalidOperator","inputs":[{"name":"operator","type":"address","internalType":"address"}]},{"type":"error","name":"ERC721InvalidOwner","inputs":[{"name":"owner","type":"address","internalType":"address"}]},{"type":"error","name":"ERC721InvalidReceiver","inputs":[{"name":"receiver","type":"address","internalType":"address"}]},{"type":"error","name":"ERC721InvalidSender","inputs":[{"name":"sender","type":"address","internalType":"address"}]},{"type":"error","name":"ERC721NonexistentToken","inputs":[{"name":"tokenId","type":"uint256","internalType":"uint256"}]},{"type":"error","name":"ExpiredSignature","inputs":[{"name":"deadline","type":"uint256","internalType":"uint256"}]},{"type":"error","name":"InvalidShortString","inputs":[]},{"type":"error","name":"InvalidSigner","inputs":[{"name":"signer","type":"address","internalType":"address"},{"name":"owner","type":"address","internalType":"address"}]},{"type":"error","name":"OwnableInvalidOwner","inputs":[{"name":"owner","type":"address","internalType":"address"}]},{"type":"error","name":"OwnableUnauthorizedAccount","inputs":[{"name":"account","type":"address","internalType":"address"}]},{"type":"error","name":"StringTooLong","inputs":[{"name":"str","type":"string","internalType":"string"}]},{"type":"error","name":"onlyNFTMarket","inputs":[{"name":"account","type":"address","internalType":"address"}]}],"bytecode":{"object":"0x6101806040526001600a557f6e71edae12b1b97f4d1f60370fef10105fa2faae0126114a169c64845d6126c96101605234801561003b57600080fd5b50604051611e17380380611e1783398101604081905261005a91610315565b6040805180820190915260018152603160f81b6020820152839033828560006100838382610427565b5060016100908282610427565b5050506001600160a01b0381166100c257604051631e4fbdf760e01b8152600060048201526024015b60405180910390fd5b6100cb81610191565b506100d78260076101e3565b610120526100e68160086101e3565b61014052815160208084019190912060e052815190820120610100524660a05261017360e05161010051604080517f8b73c3c69bb8fe3d512ecc4cf759cc79239f7b179b0ffacaa9a75d522b39400f60208201529081019290925260608201524660808201523060a082015260009060c00160405160208183030381529060405280519060200120905090565b60805250503060c05260096101888282610427565b5050505061053d565b600680546001600160a01b038381166001600160a01b0319831681179093556040519116919082907f8be0079c531659141344cd1fd0a4f28419497f9722a3daafe3b4186f6b6457e090600090a35050565b60006020835110156101ff576101f883610216565b9050610210565b8161020a8482610427565b5060ff90505b92915050565b600080829050601f81511115610241578260405163305a27a960e01b81526004016100b991906104e6565b805161024c82610519565b179392505050565b634e487b7160e01b600052604160045260246000fd5b60005b8381101561028557818101518382015260200161026d565b50506000910152565b600082601f83011261029f57600080fd5b81516001600160401b03808211156102b9576102b9610254565b604051601f8301601f19908116603f011681019082821181831017156102e1576102e1610254565b816040528381528660208588010111156102fa57600080fd5b61030b84602083016020890161026a565b9695505050505050565b60008060006060848603121561032a57600080fd5b83516001600160401b038082111561034157600080fd5b61034d8783880161028e565b9450602086015191508082111561036357600080fd5b61036f8783880161028e565b9350604086015191508082111561038557600080fd5b506103928682870161028e565b9150509250925092565b600181811c908216806103b057607f821691505b6020821081036103d057634e487b7160e01b600052602260045260246000fd5b50919050565b601f821115610422576000816000526020600020601f850160051c810160208610156103ff5750805b601f850160051c820191505b8181101561041e5782815560010161040b565b5050505b505050565b81516001600160401b0381111561044057610440610254565b6104548161044e845461039c565b846103d6565b602080601f83116001811461048957600084156104715750858301515b600019600386901b1c1916600185901b17855561041e565b600085815260208120601f198616915b828110156104b857888601518255948401946001909101908401610499565b50858210156104d65787850151600019600388901b60f8161c191681555b5050505050600190811b01905550565b602081526000825180602084015261050581604085016020870161026a565b601f01601f19169190910160400192915050565b805160208083015191908110156103d05760001960209190910360031b1b16919050565b60805160a05160c05160e051610100516101205161014051610160516118756105a2600039600061067901526000610b4901526000610b1c015260006109e0015260006109b8015260006109130152600061093d0152600061096701526118756000f3fe608060405234801561001057600080fd5b50600436106101375760003560e01c8063715018a6116100b8578063a7da53901161007c578063a7da53901461027d578063b88d4fde146102ad578063c87b56dd146102c0578063d505accf146102d3578063e985e9c5146102e6578063f2fde38b146102f957600080fd5b8063715018a61461022e57806384b0196e146102365780638da5cb5b1461025157806395d89b4114610262578063a22cb4651461026a57600080fd5b80633644e515116100ff5780633644e515146101cc57806342842e0e146101e25780636352211e146101f55780636a6278421461020857806370a082311461021b57600080fd5b806301ffc9a71461013c57806306fdde0314610164578063081812fc14610179578063095ea7b3146101a457806323b872dd146101b9575b600080fd5b61014f61014a36600461138c565b61030c565b60405190151581526020015b60405180910390f35b61016c61035e565b60405161015b91906113f9565b61018c61018736600461140c565b6103f0565b6040516001600160a01b03909116815260200161015b565b6101b76101b2366004611441565b610419565b005b6101b76101c736600461146b565b610428565b6101d46104b8565b60405190815260200161015b565b6101b76101f036600461146b565b6104c7565b61018c61020336600461140c565b6104e7565b6101b76102163660046114a7565b6104f2565b6101d46102293660046114a7565b610514565b6101b761055c565b61023e610570565b60405161015b97969594939291906114c2565b6006546001600160a01b031661018c565b61016c6105b6565b6101b761027836600461155b565b6105c5565b6101b761028b3660046114a7565b600b80546001600160a01b0319166001600160a01b0392909216919091179055565b6101b76102bb3660046115ad565b6105d0565b61016c6102ce36600461140c565b6105e7565b6101b76102e1366004611689565b61064f565b61014f6102f43660046116fc565b61075e565b6101b76103073660046114a7565b61078c565b60006001600160e01b031982166380ac58cd60e01b148061033d57506001600160e01b03198216635b5e139f60e01b145b8061035857506301ffc9a760e01b6001600160e01b03198316145b92915050565b60606000805461036d9061172f565b80601f01602080910402602001604051908101604052809291908181526020018280546103999061172f565b80156103e65780601f106103bb576101008083540402835291602001916103e6565b820191906000526020600020905b8154815290600101906020018083116103c957829003601f168201915b5050505050905090565b60006103fb826107c7565b506000828152600460205260409020546001600160a01b0316610358565b610424828233610800565b5050565b6001600160a01b03821661045757604051633250574960e11b8152600060048201526024015b60405180910390fd5b600061046483833361080d565b9050836001600160a01b0316816001600160a01b0316146104b2576040516364283d7b60e01b81526001600160a01b038086166004830152602482018490528216604482015260640161044e565b50505050565b60006104c2610906565b905090565b6104e2838383604051806020016040528060008152506105d0565b505050565b6000610358826107c7565b600a805461051191839190600061050883611769565b91905055610a31565b50565b60006001600160a01b038216610540576040516322718ad960e21b81526000600482015260240161044e565b506001600160a01b031660009081526003602052604090205490565b610564610a96565b61056e6000610ac3565b565b600060608060008060006060610584610b15565b61058c610b42565b60408051600080825260208201909252600f60f81b9b939a50919850469750309650945092509050565b60606001805461036d9061172f565b610424338383610b6f565b6105db848484610428565b6104b284848484610c0e565b60606105f2826107c7565b5060006105fd610d37565b9050600081511161061d5760405180602001604052806000815250610648565b8061062784610d46565b604051602001610638929190611790565b6040516020818303038152906040525b9392505050565b8342111561067357604051632f4aa44f60e21b81526004810185905260240161044e565b604080517f00000000000000000000000000000000000000000000000000000000000000006020808301919091526001600160a01b038a811683850152891660608301526080820188905260a0820188905260c08083018890528351808403909101815260e0909201909252805191012060006106ef82610dd9565b905060006106ff82878787610e06565b9050896001600160a01b0316816001600160a01b03161461074657604051637ba5ffb560e01b81526001600160a01b0380831660048301528b16602482015260440161044e565b6107528a8a6001610b6f565b50505050505050505050565b6001600160a01b03918216600090815260056020908152604080832093909416825291909152205460ff1690565b610794610a96565b6001600160a01b0381166107be57604051631e4fbdf760e01b81526000600482015260240161044e565b61051181610ac3565b6000818152600260205260408120546001600160a01b03168061035857604051637e27328960e01b81526004810184905260240161044e565b6104e28383836001610e34565b6000828152600260205260408120546001600160a01b039081169083161561083a5761083a818486610f3a565b6001600160a01b0381161561087857610857600085600080610e34565b6001600160a01b038116600090815260036020526040902080546000190190555b6001600160a01b038516156108a7576001600160a01b0385166000908152600360205260409020805460010190555b60008481526002602052604080822080546001600160a01b0319166001600160a01b0389811691821790925591518793918516917fddf252ad1be2c89b69c2b068fc378daa952ba7f163c4a11628f55a4df523b3ef91a4949350505050565b6000306001600160a01b037f00000000000000000000000000000000000000000000000000000000000000001614801561095f57507f000000000000000000000000000000000000000000000000000000000000000046145b1561098957507f000000000000000000000000000000000000000000000000000000000000000090565b6104c2604080517f8b73c3c69bb8fe3d512ecc4cf759cc79239f7b179b0ffacaa9a75d522b39400f60208201527f0000000000000000000000000000000000000000000000000000000000000000918101919091527f000000000000000000000000000000000000000000000000000000000000000060608201524660808201523060a082015260009060c00160405160208183030381529060405280519060200120905090565b6001600160a01b038216610a5b57604051633250574960e11b81526000600482015260240161044e565b6000610a698383600061080d565b90506001600160a01b038116156104e2576040516339e3563760e11b81526000600482015260240161044e565b6006546001600160a01b0316331461056e5760405163118cdaa760e01b815233600482015260240161044e565b600680546001600160a01b038381166001600160a01b0319831681179093556040519116919082907f8be0079c531659141344cd1fd0a4f28419497f9722a3daafe3b4186f6b6457e090600090a35050565b60606104c27f00000000000000000000000000000000000000000000000000000000000000006007610f9e565b60606104c27f00000000000000000000000000000000000000000000000000000000000000006008610f9e565b6001600160a01b038216610ba157604051630b61174360e31b81526001600160a01b038316600482015260240161044e565b6001600160a01b03838116600081815260056020908152604080832094871680845294825291829020805460ff191686151590811790915591519182527f17307eab39ab6107e8899845ad3d59bd9653f200f220920489ca2b5937696c31910160405180910390a3505050565b6001600160a01b0383163b156104b257604051630a85bd0160e11b81526001600160a01b0384169063150b7a0290610c509033908890879087906004016117cf565b6020604051808303816000875af1925050508015610c8b575060408051601f3d908101601f19168201909252610c889181019061180c565b60015b610cf4573d808015610cb9576040519150601f19603f3d011682016040523d82523d6000602084013e610cbe565b606091505b508051600003610cec57604051633250574960e11b81526001600160a01b038516600482015260240161044e565b805181602001fd5b6001600160e01b03198116630a85bd0160e11b14610d3057604051633250574960e11b81526001600160a01b038516600482015260240161044e565b5050505050565b60606009805461036d9061172f565b60606000610d5383611049565b600101905060008167ffffffffffffffff811115610d7357610d73611597565b6040519080825280601f01601f191660200182016040528015610d9d576020820181803683370190505b5090508181016020015b600019016f181899199a1a9b1b9c1cb0b131b232b360811b600a86061a8153600a8504945084610da757509392505050565b6000610358610de6610906565b8360405161190160f01b8152600281019290925260228201526042902090565b600080600080610e1888888888611121565b925092509250610e2882826111f0565b50909695505050505050565b8080610e4857506001600160a01b03821615155b15610f0a576000610e58846107c7565b90506001600160a01b03831615801590610e845750826001600160a01b0316816001600160a01b031614155b8015610e975750610e95818461075e565b155b15610ec05760405163a9fbf51f60e01b81526001600160a01b038416600482015260240161044e565b8115610f085783856001600160a01b0316826001600160a01b03167f8c5be1e5ebec7d5bd14f71427d1e84f3dd0314c0f7b2291e5b200ac8c7c3b92560405160405180910390a45b505b5050600090815260046020526040902080546001600160a01b0319166001600160a01b0392909216919091179055565b610f458383836112a9565b6104e2576001600160a01b038316610f7357604051637e27328960e01b81526004810182905260240161044e565b60405163177e802f60e01b81526001600160a01b03831660048201526024810182905260440161044e565b606060ff8314610fb857610fb18361130f565b9050610358565b818054610fc49061172f565b80601f0160208091040260200160405190810160405280929190818152602001828054610ff09061172f565b801561103d5780601f106110125761010080835404028352916020019161103d565b820191906000526020600020905b81548152906001019060200180831161102057829003601f168201915b50505050509050610358565b60008072184f03e93ff9f4daa797ed6e38ed64bf6a1f0160401b83106110885772184f03e93ff9f4daa797ed6e38ed64bf6a1f0160401b830492506040015b6d04ee2d6d415b85acef810000000083106110b4576d04ee2d6d415b85acef8100000000830492506020015b662386f26fc1000083106110d257662386f26fc10000830492506010015b6305f5e10083106110ea576305f5e100830492506008015b61271083106110fe57612710830492506004015b60648310611110576064830492506002015b600a83106103585760010192915050565b600080807f7fffffffffffffffffffffffffffffff5d576e7357a4501ddfe92f46681b20a084111561115c57506000915060039050826111e6565b604080516000808252602082018084528a905260ff891692820192909252606081018790526080810186905260019060a0016020604051602081039080840390855afa1580156111b0573d6000803e3d6000fd5b5050604051601f1901519150506001600160a01b0381166111dc575060009250600191508290506111e6565b9250600091508190505b9450945094915050565b600082600381111561120457611204611829565b0361120d575050565b600182600381111561122157611221611829565b0361123f5760405163f645eedf60e01b815260040160405180910390fd5b600282600381111561125357611253611829565b036112745760405163fce698f760e01b81526004810182905260240161044e565b600382600381111561128857611288611829565b03610424576040516335e2f38360e21b81526004810182905260240161044e565b60006001600160a01b038316158015906113075750826001600160a01b0316846001600160a01b031614806112e357506112e3848461075e565b8061130757506000828152600460205260409020546001600160a01b038481169116145b949350505050565b6060600061131c8361134e565b604080516020808252818301909252919250600091906020820181803683375050509182525060208101929092525090565b600060ff8216601f81111561035857604051632cd44ac360e21b815260040160405180910390fd5b6001600160e01b03198116811461051157600080fd5b60006020828403121561139e57600080fd5b813561064881611376565b60005b838110156113c45781810151838201526020016113ac565b50506000910152565b600081518084526113e58160208601602086016113a9565b601f01601f19169290920160200192915050565b60208152600061064860208301846113cd565b60006020828403121561141e57600080fd5b5035919050565b80356001600160a01b038116811461143c57600080fd5b919050565b6000806040838503121561145457600080fd5b61145d83611425565b946020939093013593505050565b60008060006060848603121561148057600080fd5b61148984611425565b925061149760208501611425565b9150604084013590509250925092565b6000602082840312156114b957600080fd5b61064882611425565b60ff60f81b881681526000602060e060208401526114e360e084018a6113cd565b83810360408501526114f5818a6113cd565b606085018990526001600160a01b038816608086015260a0850187905284810360c08601528551808252602080880193509091019060005b818110156115495783518352928401929184019160010161152d565b50909c9b505050505050505050505050565b6000806040838503121561156e57600080fd5b61157783611425565b91506020830135801515811461158c57600080fd5b809150509250929050565b634e487b7160e01b600052604160045260246000fd5b600080600080608085870312156115c357600080fd5b6115cc85611425565b93506115da60208601611425565b925060408501359150606085013567ffffffffffffffff808211156115fe57600080fd5b818701915087601f83011261161257600080fd5b81358181111561162457611624611597565b604051601f8201601f19908116603f0116810190838211818310171561164c5761164c611597565b816040528281528a602084870101111561166557600080fd5b82602086016020830137600060208483010152809550505050505092959194509250565b600080600080600080600060e0888a0312156116a457600080fd5b6116ad88611425565b96506116bb60208901611425565b95506040880135945060608801359350608088013560ff811681146116df57600080fd5b9699959850939692959460a0840135945060c09093013592915050565b6000806040838503121561170f57600080fd5b61171883611425565b915061172660208401611425565b90509250929050565b600181811c9082168061174357607f821691505b60208210810361176357634e487b7160e01b600052602260045260246000fd5b50919050565b60006001820161178957634e487b7160e01b600052601160045260246000fd5b5060010190565b600083516117a28184602088016113a9565b8351908301906117b68183602088016113a9565b64173539b7b760d91b9101908152600501949350505050565b6001600160a01b0385811682528416602082015260408101839052608060608201819052600090611802908301846113cd565b9695505050505050565b60006020828403121561181e57600080fd5b815161064881611376565b634e487b7160e01b600052602160045260246000fdfea2646970667358221220dacca4fae24054db5dacfde8734e97eb0cceda9cd6f6762c875c91dd3e02f68964736f6c63430008190033","linkReferences":{}},"methodIdentifiers":{"DOMAIN_SEPARATOR()":"3644e515","approve(address,uint256)":"095ea7b3","balanceOf(address)":"70a08231","eip712Domain()":"84b0196e","getApproved(uint256)":"081812fc","isApprovedForAll(address,address)":"e985e9c5","mint(address)":"6a627842","name()":"06fdde03","owner()":"8da5cb5b","ownerOf(uint256)":"6352211e","permit(address,address,uint256,uint256,uint8,bytes32,bytes32)":"d505accf","renounceOwnership()":"715018a6","safeTransferFrom(address,address,uint256)":"42842e0e","safeTransferFrom(address,address,uint256,bytes)":"b88d4fde","setApprovalForAll(address,bool)":"a22cb465","setNFTMartket(address)":"a7da5390","supportsInterface(bytes4)":"01ffc9a7","symbol()":"95d89b41","tokenURI(uint256)":"c87b56dd","transferFrom(address,address,uint256)":"23b872dd","transferOwnership(address)":"f2fde38b"},"id":48}