{"abi":[{"type":"constructor","inputs":[],"stateMutability":"nonpayable"},{"type":"function","name":"deployInscription","inputs":[{"name":"symbol","type":"string","internalType":"string"},{"name":"totalSupply","type":"uint256","internalType":"uint256"},{"name":"perMint","type":"uint256","internalType":"uint256"},{"name":"price","type":"uint256","internalType":"uint256"}],"outputs":[{"name":"","type":"address","internalType":"address"}],"stateMutability":"nonpayable"},{"type":"function","name":"erc20Implementation","inputs":[],"outputs":[{"name":"","type":"address","internalType":"address"}],"stateMutability":"view"},{"type":"function","name":"getBalance","inputs":[],"outputs":[{"name":"","type":"uint256","internalType":"uint256"}],"stateMutability":"view"},{"type":"function","name":"mintInscription","inputs":[{"name":"tokenAddr","type":"address","internalType":"address"}],"outputs":[],"stateMutability":"payable"},{"type":"function","name":"owner","inputs":[],"outputs":[{"name":"","type":"address","internalType":"address"}],"stateMutability":"view"},{"type":"function","name":"ratio","inputs":[],"outputs":[{"name":"","type":"uint256","internalType":"uint256"}],"stateMutability":"view"},{"type":"function","name":"renounceOwnership","inputs":[],"outputs":[],"stateMutability":"nonpayable"},{"type":"function","name":"setErc20Implementation","inputs":[{"name":"_erc20Implementation","type":"address","internalType":"address"}],"outputs":[],"stateMutability":"nonpayable"},{"type":"function","name":"setRatio","inputs":[{"name":"_radio","type":"uint256","internalType":"uint256"}],"outputs":[],"stateMutability":"nonpayable"},{"type":"function","name":"transferOwnership","inputs":[{"name":"newOwner","type":"address","internalType":"address"}],"outputs":[],"stateMutability":"nonpayable"},{"type":"event","name":"OwnershipTransferred","inputs":[{"name":"previousOwner","type":"address","indexed":true,"internalType":"address"},{"name":"newOwner","type":"address","indexed":true,"internalType":"address"}],"anonymous":false},{"type":"event","name":"setERC20ImplementationEvent","inputs":[{"name":"implementationAddress","type":"address","indexed":true,"internalType":"address"}],"anonymous":false},{"type":"event","name":"setRatioEvent","inputs":[{"name":"ratio","type":"uint256","indexed":true,"internalType":"uint256"}],"anonymous":false},{"type":"error","name":"OwnableInvalidOwner","inputs":[{"name":"owner","type":"address","internalType":"address"}]},{"type":"error","name":"OwnableUnauthorizedAccount","inputs":[{"name":"account","type":"address","internalType":"address"}]}],"bytecode":{"object":"0x6080604052600a600155348015601457600080fd5b503380603a57604051631e4fbdf760e01b81526000600482015260240160405180910390fd5b6041816046565b506096565b600080546001600160a01b038381166001600160a01b0319831681178455604051919092169283917f8be0079c531659141344cd1fd0a4f28419497f9722a3daafe3b4186f6b6457e09190a35050565b6107e8806100a56000396000f3fe6080604052600436106100915760003560e01c8063901be04111610059578063901be0411461013b578063a9643c211461015b578063b2237ba31461017b578063b341458a1461019b578063f2fde38b146101ae57600080fd5b806312065fe0146100965780633ef8af43146100b8578063715018a6146100f057806371ca337d146101075780638da5cb5b1461011d575b600080fd5b3480156100a257600080fd5b50475b6040519081526020015b60405180910390f35b3480156100c457600080fd5b506100d86100d336600461060a565b6101ce565b6040516001600160a01b0390911681526020016100af565b3480156100fc57600080fd5b50610105610245565b005b34801561011357600080fd5b506100a560015481565b34801561012957600080fd5b506000546001600160a01b03166100d8565b34801561014757600080fd5b506002546100d8906001600160a01b031681565b34801561016757600080fd5b50610105610176366004610692565b610259565b34801561018757600080fd5b506101056101963660046106c2565b6102ab565b6101056101a9366004610692565b6102e6565b3480156101ba57600080fd5b506101056101c9366004610692565b61041d565b6002546000906001600160a01b031661022e5760405162461bcd60e51b815260206004820152601e60248201527f496d706c656d656e746174696f6e2061646472657373206973206e756c6c000060448201526064015b60405180910390fd5b61023b868686868661045b565b9695505050505050565b61024d6104eb565b6102576000610518565b565b6102616104eb565b600280546001600160a01b0319166001600160a01b0383169081179091556040517f663045effd97e74bf7627812fea49bb0e5a745985c71b66c00d131c0a06e1c9090600090a250565b6102b36104eb565b600181905560405181907f5f2a8970f373c204e3ffe3387ff7d74cd8879593f79d4ad832d5bdd26662d00990600090a250565b60008190506000816001600160a01b031663517faa816040518163ffffffff1660e01b8152600401602060405180830381865afa15801561032b573d6000803e3d6000fd5b505050506040513d601f19601f8201168201806040525081019061034f91906106db565b9050600060646001546064610364919061070a565b61036e9190610723565b6103789083610745565b90508134146103bc5760405162461bcd60e51b815260206004820152601060248201526f706c6561736520706179206d6f6e657960801b6044820152606401610225565b604051634d9f9d2560e11b81523360048201526001600160a01b03841690639b3f3a4a9083906024016000604051808303818588803b1580156103fe57600080fd5b505af1158015610412573d6000803e3d6000fd5b505050505050505050565b6104256104eb565b6001600160a01b03811661044f57604051631e4fbdf760e01b815260006004820152602401610225565b61045881610518565b50565b6002546000908190610475906001600160a01b0316610568565b60405163631831fb60e01b81529091506001600160a01b0382169063631831fb906104ae908a908a908a908a908a90309060040161075c565b600060405180830381600087803b1580156104c857600080fd5b505af11580156104dc573d6000803e3d6000fd5b50929998505050505050505050565b6000546001600160a01b031633146102575760405163118cdaa760e01b8152336004820152602401610225565b600080546001600160a01b038381166001600160a01b0319831681178455604051919092169283917f8be0079c531659141344cd1fd0a4f28419497f9722a3daafe3b4186f6b6457e09190a35050565b6000808260601b9050604051733d602d80600a3d3981f3363d3d373d3d3d363d7360601b81528160148201526e5af43d82803e903d91602b57fd5bf360881b60288201526037816000f09250506001600160a01b0382166106045760405162461bcd60e51b8152602060048201526016602482015275115490cc4c4d8dce8818dc99585d194819985a5b195960521b6044820152606401610225565b50919050565b60008060008060006080868803121561062257600080fd5b853567ffffffffffffffff8082111561063a57600080fd5b818801915088601f83011261064e57600080fd5b81358181111561065d57600080fd5b89602082850101111561066f57600080fd5b60209283019a909950918801359760408101359750606001359550909350505050565b6000602082840312156106a457600080fd5b81356001600160a01b03811681146106bb57600080fd5b9392505050565b6000602082840312156106d457600080fd5b5035919050565b6000602082840312156106ed57600080fd5b5051919050565b634e487b7160e01b600052601160045260246000fd5b8181038181111561071d5761071d6106f4565b92915050565b60008261074057634e487b7160e01b600052601260045260246000fd5b500490565b808202811582820484141761071d5761071d6106f4565b60a081528560a0820152858760c0830137600060c08783018101919091526020820195909552604081019390935260608301919091526001600160a01b03166080820152601f909201601f19169091010191905056fea2646970667358221220146c5f59fb5e1d7d9d07ecec0b0f376f35ad7df6c7fbc63e7dbe5d461d76457364736f6c63430008190033","linkReferences":{}},"methodIdentifiers":{"deployInscription(string,uint256,uint256,uint256)":"3ef8af43","erc20Implementation()":"901be041","getBalance()":"12065fe0","mintInscription(address)":"b341458a","owner()":"8da5cb5b","ratio()":"71ca337d","renounceOwnership()":"715018a6","setErc20Implementation(address)":"a9643c21","setRatio(uint256)":"b2237ba3","transferOwnership(address)":"f2fde38b"},"id":32}