{"abi":[{"type":"constructor","inputs":[{"name":"name_","type":"string","internalType":"string"},{"name":"symbol_","type":"string","internalType":"string"},{"name":"totalSupply","type":"uint256","internalType":"uint256"}],"stateMutability":"nonpayable"},{"type":"function","name":"DOMAIN_SEPARATOR","inputs":[],"outputs":[{"name":"","type":"bytes32","internalType":"bytes32"}],"stateMutability":"view"},{"type":"function","name":"allowance","inputs":[{"name":"owner","type":"address","internalType":"address"},{"name":"spender","type":"address","internalType":"address"}],"outputs":[{"name":"","type":"uint256","internalType":"uint256"}],"stateMutability":"view"},{"type":"function","name":"approve","inputs":[{"name":"spender","type":"address","internalType":"address"},{"name":"value","type":"uint256","internalType":"uint256"}],"outputs":[{"name":"","type":"bool","internalType":"bool"}],"stateMutability":"nonpayable"},{"type":"function","name":"balanceOf","inputs":[{"name":"account","type":"address","internalType":"address"}],"outputs":[{"name":"","type":"uint256","internalType":"uint256"}],"stateMutability":"view"},{"type":"function","name":"decimals","inputs":[],"outputs":[{"name":"","type":"uint8","internalType":"uint8"}],"stateMutability":"view"},{"type":"function","name":"eip712Domain","inputs":[],"outputs":[{"name":"fields","type":"bytes1","internalType":"bytes1"},{"name":"name","type":"string","internalType":"string"},{"name":"version","type":"string","internalType":"string"},{"name":"chainId","type":"uint256","internalType":"uint256"},{"name":"verifyingContract","type":"address","internalType":"address"},{"name":"salt","type":"bytes32","internalType":"bytes32"},{"name":"extensions","type":"uint256[]","internalType":"uint256[]"}],"stateMutability":"view"},{"type":"function","name":"name","inputs":[],"outputs":[{"name":"","type":"string","internalType":"string"}],"stateMutability":"view"},{"type":"function","name":"nonces","inputs":[{"name":"owner","type":"address","internalType":"address"}],"outputs":[{"name":"","type":"uint256","internalType":"uint256"}],"stateMutability":"view"},{"type":"function","name":"permit","inputs":[{"name":"owner","type":"address","internalType":"address"},{"name":"spender","type":"address","internalType":"address"},{"name":"value","type":"uint256","internalType":"uint256"},{"name":"deadline","type":"uint256","internalType":"uint256"},{"name":"v","type":"uint8","internalType":"uint8"},{"name":"r","type":"bytes32","internalType":"bytes32"},{"name":"s","type":"bytes32","internalType":"bytes32"}],"outputs":[],"stateMutability":"nonpayable"},{"type":"function","name":"symbol","inputs":[],"outputs":[{"name":"","type":"string","internalType":"string"}],"stateMutability":"view"},{"type":"function","name":"totalSupply","inputs":[],"outputs":[{"name":"","type":"uint256","internalType":"uint256"}],"stateMutability":"view"},{"type":"function","name":"transfer","inputs":[{"name":"to","type":"address","internalType":"address"},{"name":"value","type":"uint256","internalType":"uint256"}],"outputs":[{"name":"","type":"bool","internalType":"bool"}],"stateMutability":"nonpayable"},{"type":"function","name":"transferFrom","inputs":[{"name":"from","type":"address","internalType":"address"},{"name":"to","type":"address","internalType":"address"},{"name":"value","type":"uint256","internalType":"uint256"}],"outputs":[{"name":"","type":"bool","internalType":"bool"}],"stateMutability":"nonpayable"},{"type":"function","name":"transferWithCallback","inputs":[{"name":"_to","type":"address","internalType":"address"},{"name":"_value","type":"uint256","internalType":"uint256"},{"name":"_data","type":"bytes","internalType":"bytes"}],"outputs":[],"stateMutability":"nonpayable"},{"type":"event","name":"Approval","inputs":[{"name":"owner","type":"address","indexed":true,"internalType":"address"},{"name":"spender","type":"address","indexed":true,"internalType":"address"},{"name":"value","type":"uint256","indexed":false,"internalType":"uint256"}],"anonymous":false},{"type":"event","name":"EIP712DomainChanged","inputs":[],"anonymous":false},{"type":"event","name":"Transfer","inputs":[{"name":"from","type":"address","indexed":true,"internalType":"address"},{"name":"to","type":"address","indexed":true,"internalType":"address"},{"name":"value","type":"uint256","indexed":false,"internalType":"uint256"}],"anonymous":false},{"type":"error","name":"ECDSAInvalidSignature","inputs":[]},{"type":"error","name":"ECDSAInvalidSignatureLength","inputs":[{"name":"length","type":"uint256","internalType":"uint256"}]},{"type":"error","name":"ECDSAInvalidSignatureS","inputs":[{"name":"s","type":"bytes32","internalType":"bytes32"}]},{"type":"error","name":"ERC20InsufficientAllowance","inputs":[{"name":"spender","type":"address","internalType":"address"},{"name":"allowance","type":"uint256","internalType":"uint256"},{"name":"needed","type":"uint256","internalType":"uint256"}]},{"type":"error","name":"ERC20InsufficientBalance","inputs":[{"name":"sender","type":"address","internalType":"address"},{"name":"balance","type":"uint256","internalType":"uint256"},{"name":"needed","type":"uint256","internalType":"uint256"}]},{"type":"error","name":"ERC20InvalidApprover","inputs":[{"name":"approver","type":"address","internalType":"address"}]},{"type":"error","name":"ERC20InvalidReceiver","inputs":[{"name":"receiver","type":"address","internalType":"address"}]},{"type":"error","name":"ERC20InvalidSender","inputs":[{"name":"sender","type":"address","internalType":"address"}]},{"type":"error","name":"ERC20InvalidSpender","inputs":[{"name":"spender","type":"address","internalType":"address"}]},{"type":"error","name":"ERC2612ExpiredSignature","inputs":[{"name":"deadline","type":"uint256","internalType":"uint256"}]},{"type":"error","name":"ERC2612InvalidSigner","inputs":[{"name":"signer","type":"address","internalType":"address"},{"name":"owner","type":"address","internalType":"address"}]},{"type":"error","name":"InvalidAccountNonce","inputs":[{"name":"account","type":"address","internalType":"address"},{"name":"currentNonce","type":"uint256","internalType":"uint256"}]},{"type":"error","name":"InvalidShortString","inputs":[]},{"type":"error","name":"StringTooLong","inputs":[{"name":"str","type":"string","internalType":"string"}]}],"bytecode":{"object":"0x6101606040818152346104705761175c803803809161001e8286610475565b843982016060838203126104705782516001600160401b039290838111610470578261004b9186016104bb565b91602090818601518581116104705783916100679188016104bb565b950151908251958387018781108782111761038757845260019586885282880196603160f81b885286518281116103875760038054918383811c93168015610466575b8784101461045057601f9283811161040a575b5080878482116001146103a85760009161039d575b5060001982841b1c191690841b1781555b8451918483116103875760049586548581811c9116801561037d575b8982101461036857828111610322575b50879184116001146102bc579383949184926000956102b1575b50501b92600019911b1c19161782555b6101428661050f565b96610120978852610152896106a0565b96610140978852848151910120988960e05251902061010098818a524660a052865191858301917f8b73c3c69bb8fe3d512ecc4cf759cc79239f7b179b0ffacaa9a75d522b39400f83528884015260608301524660808301523060a083015260a0825260c08201928284109084111761029c57828752815190206080523060c05233156102855750506002549083820180921161027057506000917fddf252ad1be2c89b69c2b068fc378daa952ba7f163c4a11628f55a4df523b3ef9160025533835282815284832084815401905584519384523393a35191610f7693846107e6853960805184610ae2015260a05184610bae015260c05184610aac015260e05184610b3101525183610b57015251826105000152518161052a0152f35b601190634e487b7160e01b6000525260246000fd5b63ec442f0560e01b8252600060c490910152602490fd5b604184634e487b7160e01b6000525260246000fd5b015193503880610129565b9190601f198416928760005284896000209460005b8b8983831061030b57505050106102f1575b50505050811b018255610139565b01519060f884600019921b161c19169055388080806102e3565b8686015189559097019694850194889350016102d1565b87600052886000208380870160051c8201928b881061035f575b0160051c019086905b82811061035357505061010f565b60008155018690610345565b9250819261033c565b602288634e487b7160e01b6000525260246000fd5b90607f16906100ff565b634e487b7160e01b600052604160045260246000fd5b90508a0151386100d2565b60008481528981208794509190601f198416908b8f5b8383106103f35750505083116103db575b5050811b0181556100e3565b8c015160001983861b60f8161c1916905538806103cf565b840151855589969094019392830192018b8f6103be565b82600052876000208480840160051c8201928a8510610447575b0160051c019085905b82811061043b5750506100bd565b6000815501859061042d565b92508192610424565b634e487b7160e01b600052602260045260246000fd5b92607f16926100aa565b600080fd5b601f909101601f19168101906001600160401b0382119082101761038757604052565b60005b8381106104ab5750506000910152565b818101518382015260200161049b565b81601f820112156104705780516001600160401b03811161038757604051926104ee601f8301601f191660200185610475565b818452602082840101116104705761050c9160208085019101610498565b90565b8051602091908281101561058a575090601f82511161054a578082519201519080831061053b57501790565b82600019910360031b1b161790565b60449061057c9260405193849263305a27a960e01b845280600485015282519283918260248701528686019101610498565b601f01601f19168101030190fd5b6001600160401b038111610387576005928354926001938481811c91168015610696575b8382101461045057601f8111610662575b5081601f84116001146105fc57509282939183926000946105f1575b50501b916000199060031b1c191617905560ff90565b0151925038806105db565b919083601f1981168760005284600020946000905b88838310610648575050501061062f575b505050811b01905560ff90565b015160001960f88460031b161c19169055388080610622565b858701518855909601959485019487935090810190610611565b8560005284601f846000209201871c820191601f8601881c015b82811061068a5750506105bf565b6000815501859061067c565b90607f16906105ae565b8051602090818110156106ca5750601f82511161054a578082519201519080831061053b57501790565b906001600160401b03821161038757600654926001938481811c911680156107db575b8382101461045057601f81116107a4575b5081601f841160011461073c5750928293918392600094610731575b50501b916000199060031b1c19161760065560ff90565b01519250388061071a565b919083601f198116600660005284600020946000905b8883831061078a5750505010610771575b505050811b0160065560ff90565b015160001960f88460031b161c19169055388080610763565b858701518855909601959485019487935090810190610752565b600660005284601f84600020920160051c820191601f860160051c015b8281106107cf5750506106fe565b600081550185906107c1565b90607f16906106ed56fe608060408181526004918236101561001657600080fd5b600092833560e01c91826306fdde03146107f457508163095ea7b3146107ca57816318160ddd146107ab57816323b872dd146106b7578163313ce5671461069b5781633644e5151461067757816370a08231146106405781637ecebe001461060857816384b0196e146104e857816395d89b41146103f4578163a9059cbb146103c3578163d313919514610272578163d505accf1461010a575063dd62ed3e146100bf57600080fd5b34610106578060031936011261010657806020926100db61090c565b6100e3610927565b6001600160a01b0391821683526001865283832091168252845220549051908152f35b5080fd5b839150346101065760e03660031901126101065761012661090c565b61012e610927565b906044359260643560843560ff8116810361026e578142116102575760018060a01b0390818516928389526007602052898920908154916001830190558a519060208201927f6e71edae12b1b97f4d1f60370fef10105fa2faae0126114a169c64845d6126c98452868d840152858a1660608401528a608084015260a083015260c082015260c0815260e0810181811067ffffffffffffffff821117610244578b5251902061021291610209916101e3610aa9565b908c519161190160f01b83526002830152602282015260c43591604260a4359220610e2b565b90929192610ebb565b168181036102295786610226878787610bd4565b80f35b87516325c0072360e11b815292830152602482015260449150fd5b634e487b7160e01b8b526041875260248bfd5b875163313c898160e11b8152808401839052602490fd5b8680fd5b8383346101065760603660031901126101065761028d61090c565b67ffffffffffffffff91906044356024358482116103bf57366023830112156103bf57818701359485116103ac579585966020958551936102d788601f19601f850116018661096f565b81855236602483830101116103a85781899260248a930183880137850101526103018185336109cb565b833b61030b578680f35b61034e96869460018060a01b0316928651988995869485936322a4bb5160e11b8552339085015286602485015260448401526080606484015260848301906108cc565b03925af190811561039f5750610369575b8080808086958680f35b81813d8311610398575b61037d818361096f565b8101031261010657518015150361039557818061035f565b80fd5b503d610373565b513d85823e3d90fd5b8880fd5b634e487b7160e01b865260418752602486fd5b8580fd5b5050346101065780600319360112610106576020906103ed6103e361090c565b60243590336109cb565b5160018152f35b919050346104e457826003193601126104e457805183819490845461041881610991565b91828552602096600192886001821691826000146104ba57505060011461045f575b858861045b8961044c848a038561096f565b519282849384528301906108cc565b0390f35b815286935091907f8a35acfbc15ff81a39ae7d344fd709f28e8600b4aa8c65c6b64bfe7fe36bd19b5b8284106104a2575050508201018161044c61045b3861043a565b8054848a018601528895508794909301928101610488565b60ff19168882015294151560051b8701909401945085935061044c925061045b915038905061043a565b8280fd5b919050346104e457826003193601126104e4576105247f0000000000000000000000000000000000000000000000000000000000000000610c67565b9261054e7f0000000000000000000000000000000000000000000000000000000000000000610d6b565b90825192602092602085019585871067ffffffffffffffff8811176105f557509260206105ab83889661059e998b9996528686528151998a99600f60f81b8b5260e0868c015260e08b01906108cc565b91898303908a01526108cc565b924660608801523060808801528460a088015286840360c088015251928381520193925b8281106105de57505050500390f35b8351855286955093810193928101926001016105cf565b634e487b7160e01b845260419052602483fd5b5050346101065760203660031901126101065760209181906001600160a01b0361063061090c565b1681526007845220549051908152f35b5050346101065760203660031901126101065760209181906001600160a01b0361066861090c565b16815280845220549051908152f35b505034610106578160031936011261010657602090610694610aa9565b9051908152f35b5050346101065781600319360112610106576020905160128152f35b90508234610395576060366003190112610395576106d361090c565b6106db610927565b916044359360018060a01b038316808352600160205286832033845260205286832054916000198303610717575b6020886103ed8989896109cb565b86831061077f578115610768573315610751575082526001602090815286832033845281529186902090859003905582906103ed87610709565b8751634a1406b160e11b8152908101849052602490fd5b875163e602df0560e01b8152908101849052602490fd5b8751637dc7a0d960e11b8152339181019182526020820193909352604081018790528291506060010390fd5b5050346101065781600319360112610106576020906002549051908152f35b5050346101065780600319360112610106576020906103ed6107ea61090c565b6024359033610bd4565b848434610106578160031936011261010657828260035461081481610991565b90818452602095600191876001821691826000146108a5575050600114610849575b50505061045b929161044c91038561096f565b9190869350600383527fc2575a0e9e593c00f959f8c92f12db2869c3395a3b0502d05e2516446f71f85b5b82841061088d575050508201018161044c61045b610836565b8054848a018601528895508794909301928101610874565b60ff19168782015293151560051b8601909301935084925061044c915061045b9050610836565b919082519283825260005b8481106108f8575050826000602080949584010152601f8019910116010190565b6020818301810151848301820152016108d7565b600435906001600160a01b038216820361092257565b600080fd5b602435906001600160a01b038216820361092257565b6040810190811067ffffffffffffffff82111761095957604052565b634e487b7160e01b600052604160045260246000fd5b90601f8019910116810190811067ffffffffffffffff82111761095957604052565b90600182811c921680156109c1575b60208310146109ab57565b634e487b7160e01b600052602260045260246000fd5b91607f16916109a0565b916001600160a01b03808416928315610a905716928315610a775760009083825281602052604082205490838210610a45575091604082827fddf252ad1be2c89b69c2b068fc378daa952ba7f163c4a11628f55a4df523b3ef958760209652828652038282205586815220818154019055604051908152a3565b60405163391434e360e21b81526001600160a01b03919091166004820152602481019190915260448101839052606490fd5b60405163ec442f0560e01b815260006004820152602490fd5b604051634b637e8f60e11b815260006004820152602490fd5b307f00000000000000000000000000000000000000000000000000000000000000006001600160a01b03161480610bab575b15610b04577f000000000000000000000000000000000000000000000000000000000000000090565b60405160208101907f8b73c3c69bb8fe3d512ecc4cf759cc79239f7b179b0ffacaa9a75d522b39400f82527f000000000000000000000000000000000000000000000000000000000000000060408201527f000000000000000000000000000000000000000000000000000000000000000060608201524660808201523060a082015260a0815260c0810181811067ffffffffffffffff8211176109595760405251902090565b507f00000000000000000000000000000000000000000000000000000000000000004614610adb565b6001600160a01b03908116918215610c4e5716918215610c355760207f8c5be1e5ebec7d5bd14f71427d1e84f3dd0314c0f7b2291e5b200ac8c7c3b925918360005260018252604060002085600052825280604060002055604051908152a3565b604051634a1406b160e11b815260006004820152602490fd5b60405163e602df0560e01b815260006004820152602490fd5b60ff8114610ca55760ff811690601f8211610c935760405191610c898361093d565b8252602082015290565b604051632cd44ac360e21b8152600490fd5b50604051600554816000610cb883610991565b80835292602090600190818116908115610d475750600114610ce6575b5050610ce39250038261096f565b90565b91509260056000527f036b6384b5eca791c62761152d0c79bb0604c104a5fb6f4eb0703f3154bb3db0936000925b828410610d2f5750610ce39450505081016020013880610cd5565b85548785018301529485019486945092810192610d14565b91505060209250610ce394915060ff191682840152151560051b8201013880610cd5565b60ff8114610d8d5760ff811690601f8211610c935760405191610c898361093d565b50604051600654816000610da083610991565b80835292602090600190818116908115610d475750600114610dca575050610ce39250038261096f565b91509260066000527ff652222313e28459528d920b65115c16c04f3efc82aaedc97be59f3f377c0d3f936000925b828410610e135750610ce39450505081016020013880610cd5565b85548785018301529485019486945092810192610df8565b91907f7fffffffffffffffffffffffffffffff5d576e7357a4501ddfe92f46681b20a08411610eaf57926020929160ff608095604051948552168484015260408301526060820152600092839182805260015afa15610ea35780516001600160a01b03811615610e9a57918190565b50809160019190565b604051903d90823e3d90fd5b50505060009160039190565b6004811015610f2a5780610ecd575050565b60018103610ee75760405163f645eedf60e01b8152600490fd5b60028103610f085760405163fce698f760e01b815260048101839052602490fd5b600314610f125750565b602490604051906335e2f38360e21b82526004820152fd5b634e487b7160e01b600052602160045260246000fdfea2646970667358221220376334855ba4a24fec9c51e675c9d24963d2a693f676b20103e50e7cfad9afc264736f6c63430008190033","linkReferences":{}},"methodIdentifiers":{"DOMAIN_SEPARATOR()":"3644e515","allowance(address,address)":"dd62ed3e","approve(address,uint256)":"095ea7b3","balanceOf(address)":"70a08231","decimals()":"313ce567","eip712Domain()":"84b0196e","name()":"06fdde03","nonces(address)":"7ecebe00","permit(address,address,uint256,uint256,uint8,bytes32,bytes32)":"d505accf","symbol()":"95d89b41","totalSupply()":"18160ddd","transfer(address,uint256)":"a9059cbb","transferFrom(address,address,uint256)":"23b872dd","transferWithCallback(address,uint256,bytes)":"d3139195"},"id":47}