{"abi":[{"type":"constructor","inputs":[{"name":"_DOMAIN_SEPARATOR","type":"bytes32","internalType":"bytes32"}],"stateMutability":"nonpayable"},{"type":"function","name":"PERMIT_TYPEHASH","inputs":[],"outputs":[{"name":"","type":"bytes32","internalType":"bytes32"}],"stateMutability":"view"},{"type":"function","name":"getTypedDataHash","inputs":[{"name":"_permit","type":"tuple","internalType":"struct SigUtils.Permit","components":[{"name":"owner","type":"address","internalType":"address"},{"name":"spender","type":"address","internalType":"address"},{"name":"value","type":"uint256","internalType":"uint256"},{"name":"nonce","type":"uint256","internalType":"uint256"},{"name":"deadline","type":"uint256","internalType":"uint256"}]}],"outputs":[{"name":"","type":"bytes32","internalType":"bytes32"}],"stateMutability":"view"}],"bytecode":{"object":"0x608034604e57601f61026f38819003918201601f19168301916001600160401b03831184841017605357808492602094604052833981010312604e5751600055604051610205908161006a8239f35b600080fd5b634e487b7160e01b600052604160045260246000fdfe6080604090808252600436101561001557600080fd5b600090813560e01c90816330adf81f14610191575063ba20b89d1461003957600080fd5b3461018e5760a036600319011261018e57815167ffffffffffffffff9160a082018381118382101761017a5784526004356001600160a01b03818116929183810361017657845260243590811690818103610176576020850152608060443594858882015260643590816060820152608435928391015283549588519360208501967f6e71edae12b1b97f4d1f60370fef10105fa2faae0126114a169c64845d6126c988528a8601526060850152608084015260a083015260c082015260c0815260e081019281841086851117610162578387528151902061190160f01b610100830190815261010283019590955261012282015260428352610160019384118285101761014e575082602094525190208152f35b634e487b7160e01b81526041600452602490fd5b634e487b7160e01b83526041600452602483fd5b8280fd5b634e487b7160e01b82526041600452602482fd5b80fd5b9050346101cb57816003193601126101cb57807f6e71edae12b1b97f4d1f60370fef10105fa2faae0126114a169c64845d6126c960209252f35b5080fdfea26469706673582212206c82b32620b912aa17b6c4241f82951ff656722f533b1d7a9a28b390b78aae9c64736f6c63430008190033","linkReferences":{}},"methodIdentifiers":{"PERMIT_TYPEHASH()":"30adf81f","getTypedDataHash((address,address,uint256,uint256,uint256))":"ba20b89d"},"id":56}