{"abi":[{"type":"constructor","inputs":[{"name":"name_","type":"string","internalType":"string"},{"name":"symbol_","type":"string","internalType":"string"},{"name":"totalSupply","type":"uint256","internalType":"uint256"}],"stateMutability":"nonpayable"},{"type":"function","name":"DOMAIN_SEPARATOR","inputs":[],"outputs":[{"name":"","type":"bytes32","internalType":"bytes32"}],"stateMutability":"view"},{"type":"function","name":"allowance","inputs":[{"name":"owner","type":"address","internalType":"address"},{"name":"spender","type":"address","internalType":"address"}],"outputs":[{"name":"","type":"uint256","internalType":"uint256"}],"stateMutability":"view"},{"type":"function","name":"approve","inputs":[{"name":"spender","type":"address","internalType":"address"},{"name":"value","type":"uint256","internalType":"uint256"}],"outputs":[{"name":"","type":"bool","internalType":"bool"}],"stateMutability":"nonpayable"},{"type":"function","name":"balanceOf","inputs":[{"name":"account","type":"address","internalType":"address"}],"outputs":[{"name":"","type":"uint256","internalType":"uint256"}],"stateMutability":"view"},{"type":"function","name":"decimals","inputs":[],"outputs":[{"name":"","type":"uint8","internalType":"uint8"}],"stateMutability":"view"},{"type":"function","name":"eip712Domain","inputs":[],"outputs":[{"name":"fields","type":"bytes1","internalType":"bytes1"},{"name":"name","type":"string","internalType":"string"},{"name":"version","type":"string","internalType":"string"},{"name":"chainId","type":"uint256","internalType":"uint256"},{"name":"verifyingContract","type":"address","internalType":"address"},{"name":"salt","type":"bytes32","internalType":"bytes32"},{"name":"extensions","type":"uint256[]","internalType":"uint256[]"}],"stateMutability":"view"},{"type":"function","name":"name","inputs":[],"outputs":[{"name":"","type":"string","internalType":"string"}],"stateMutability":"view"},{"type":"function","name":"nonces","inputs":[{"name":"owner","type":"address","internalType":"address"}],"outputs":[{"name":"","type":"uint256","internalType":"uint256"}],"stateMutability":"view"},{"type":"function","name":"permit","inputs":[{"name":"owner","type":"address","internalType":"address"},{"name":"spender","type":"address","internalType":"address"},{"name":"value","type":"uint256","internalType":"uint256"},{"name":"deadline","type":"uint256","internalType":"uint256"},{"name":"v","type":"uint8","internalType":"uint8"},{"name":"r","type":"bytes32","internalType":"bytes32"},{"name":"s","type":"bytes32","internalType":"bytes32"}],"outputs":[],"stateMutability":"nonpayable"},{"type":"function","name":"symbol","inputs":[],"outputs":[{"name":"","type":"string","internalType":"string"}],"stateMutability":"view"},{"type":"function","name":"totalSupply","inputs":[],"outputs":[{"name":"","type":"uint256","internalType":"uint256"}],"stateMutability":"view"},{"type":"function","name":"transfer","inputs":[{"name":"to","type":"address","internalType":"address"},{"name":"value","type":"uint256","internalType":"uint256"}],"outputs":[{"name":"","type":"bool","internalType":"bool"}],"stateMutability":"nonpayable"},{"type":"function","name":"transferFrom","inputs":[{"name":"from","type":"address","internalType":"address"},{"name":"to","type":"address","internalType":"address"},{"name":"value","type":"uint256","internalType":"uint256"}],"outputs":[{"name":"","type":"bool","internalType":"bool"}],"stateMutability":"nonpayable"},{"type":"function","name":"transferWithCallback","inputs":[{"name":"_to","type":"address","internalType":"address"},{"name":"_value","type":"uint256","internalType":"uint256"},{"name":"_data","type":"bytes","internalType":"bytes"}],"outputs":[],"stateMutability":"nonpayable"},{"type":"event","name":"Approval","inputs":[{"name":"owner","type":"address","indexed":true,"internalType":"address"},{"name":"spender","type":"address","indexed":true,"internalType":"address"},{"name":"value","type":"uint256","indexed":false,"internalType":"uint256"}],"anonymous":false},{"type":"event","name":"EIP712DomainChanged","inputs":[],"anonymous":false},{"type":"event","name":"Transfer","inputs":[{"name":"from","type":"address","indexed":true,"internalType":"address"},{"name":"to","type":"address","indexed":true,"internalType":"address"},{"name":"value","type":"uint256","indexed":false,"internalType":"uint256"}],"anonymous":false},{"type":"error","name":"ECDSAInvalidSignature","inputs":[]},{"type":"error","name":"ECDSAInvalidSignatureLength","inputs":[{"name":"length","type":"uint256","internalType":"uint256"}]},{"type":"error","name":"ECDSAInvalidSignatureS","inputs":[{"name":"s","type":"bytes32","internalType":"bytes32"}]},{"type":"error","name":"ERC20InsufficientAllowance","inputs":[{"name":"spender","type":"address","internalType":"address"},{"name":"allowance","type":"uint256","internalType":"uint256"},{"name":"needed","type":"uint256","internalType":"uint256"}]},{"type":"error","name":"ERC20InsufficientBalance","inputs":[{"name":"sender","type":"address","internalType":"address"},{"name":"balance","type":"uint256","internalType":"uint256"},{"name":"needed","type":"uint256","internalType":"uint256"}]},{"type":"error","name":"ERC20InvalidApprover","inputs":[{"name":"approver","type":"address","internalType":"address"}]},{"type":"error","name":"ERC20InvalidReceiver","inputs":[{"name":"receiver","type":"address","internalType":"address"}]},{"type":"error","name":"ERC20InvalidSender","inputs":[{"name":"sender","type":"address","internalType":"address"}]},{"type":"error","name":"ERC20InvalidSpender","inputs":[{"name":"spender","type":"address","internalType":"address"}]},{"type":"error","name":"ERC2612ExpiredSignature","inputs":[{"name":"deadline","type":"uint256","internalType":"uint256"}]},{"type":"error","name":"ERC2612InvalidSigner","inputs":[{"name":"signer","type":"address","internalType":"address"},{"name":"owner","type":"address","internalType":"address"}]},{"type":"error","name":"InvalidAccountNonce","inputs":[{"name":"account","type":"address","internalType":"address"},{"name":"currentNonce","type":"uint256","internalType":"uint256"}]},{"type":"error","name":"InvalidShortString","inputs":[]},{"type":"error","name":"StringTooLong","inputs":[{"name":"str","type":"string","internalType":"string"}]}],"bytecode":{"object":"0x61016060405234801561001157600080fd5b5060405161174b38038061174b833981016040819052610030916103ca565b6040805180820190915260018152603160f81b6020820152839081908185600361005a83826104c1565b50600461006782826104c1565b506100779150839050600561012f565b6101205261008681600661012f565b61014052815160208084019190912060e052815190820120610100524660a05261011360e05161010051604080517f8b73c3c69bb8fe3d512ecc4cf759cc79239f7b179b0ffacaa9a75d522b39400f60208201529081019290925260608201524660808201523060a082015260009060c00160405160208183030381529060405280519060200120905090565b60805250503060c052506101273382610162565b5050506105f8565b600060208351101561014b57610144836101a1565b905061015c565b8161015684826104c1565b5060ff90505b92915050565b6001600160a01b0382166101915760405163ec442f0560e01b8152600060048201526024015b60405180910390fd5b61019d600083836101df565b5050565b600080829050601f815111156101cc578260405163305a27a960e01b81526004016101889190610580565b80516101d7826105b3565b179392505050565b6001600160a01b03831661020a5780600260008282546101ff91906105d7565b9091555061027c9050565b6001600160a01b0383166000908152602081905260409020548181101561025d5760405163391434e360e21b81526001600160a01b03851660048201526024810182905260448101839052606401610188565b6001600160a01b03841660009081526020819052604090209082900390555b6001600160a01b038216610298576002805482900390556102b7565b6001600160a01b03821660009081526020819052604090208054820190555b816001600160a01b0316836001600160a01b03167fddf252ad1be2c89b69c2b068fc378daa952ba7f163c4a11628f55a4df523b3ef836040516102fc91815260200190565b60405180910390a3505050565b634e487b7160e01b600052604160045260246000fd5b60005b8381101561033a578181015183820152602001610322565b50506000910152565b600082601f83011261035457600080fd5b81516001600160401b038082111561036e5761036e610309565b604051601f8301601f19908116603f0116810190828211818310171561039657610396610309565b816040528381528660208588010111156103af57600080fd5b6103c084602083016020890161031f565b9695505050505050565b6000806000606084860312156103df57600080fd5b83516001600160401b03808211156103f657600080fd5b61040287838801610343565b9450602086015191508082111561041857600080fd5b5061042586828701610343565b925050604084015190509250925092565b600181811c9082168061044a57607f821691505b60208210810361046a57634e487b7160e01b600052602260045260246000fd5b50919050565b601f8211156104bc576000816000526020600020601f850160051c810160208610156104995750805b601f850160051c820191505b818110156104b8578281556001016104a5565b5050505b505050565b81516001600160401b038111156104da576104da610309565b6104ee816104e88454610436565b84610470565b602080601f831160018114610523576000841561050b5750858301515b600019600386901b1c1916600185901b1785556104b8565b600085815260208120601f198616915b8281101561055257888601518255948401946001909101908401610533565b50858210156105705787850151600019600388901b60f8161c191681555b5050505050600190811b01905550565b602081526000825180602084015261059f81604085016020870161031f565b601f01601f19169190910160400192915050565b8051602080830151919081101561046a5760001960209190910360031b1b16919050565b8082018082111561015c57634e487b7160e01b600052601160045260246000fd5b60805160a05160c05160e0516101005161012051610140516110f961065260003960006107b80152600061078b015260006107330152600061070b0152600061066601526000610690015260006106ba01526110f96000f3fe608060405234801561001057600080fd5b50600436106100ea5760003560e01c80637ecebe001161008c578063a9059cbb11610066578063a9059cbb146101cb578063d3139195146101de578063d505accf146101f3578063dd62ed3e1461020657600080fd5b80637ecebe001461019557806384b0196e146101a857806395d89b41146101c357600080fd5b806323b872dd116100c857806323b872dd14610142578063313ce567146101555780633644e5151461016457806370a082311461016c57600080fd5b806306fdde03146100ef578063095ea7b31461010d57806318160ddd14610130575b600080fd5b6100f761023f565b6040516101049190610d1c565b60405180910390f35b61012061011b366004610d52565b6102d1565b6040519015158152602001610104565b6002545b604051908152602001610104565b610120610150366004610d7c565b6102eb565b60405160128152602001610104565b61013461030f565b61013461017a366004610db8565b6001600160a01b031660009081526020819052604090205490565b6101346101a3366004610db8565b61031e565b6101b061033c565b6040516101049796959493929190610dd3565b6100f7610382565b6101206101d9366004610d52565b610391565b6101f16101ec366004610e82565b61039f565b005b6101f1610201366004610f4d565b610436565b610134610214366004610fc0565b6001600160a01b03918216600090815260016020908152604080832093909416825291909152205490565b60606003805461024e90610ff3565b80601f016020809104026020016040519081016040528092919081815260200182805461027a90610ff3565b80156102c75780601f1061029c576101008083540402835291602001916102c7565b820191906000526020600020905b8154815290600101906020018083116102aa57829003601f168201915b5050505050905090565b6000336102df818585610575565b60019150505b92915050565b6000336102f9858285610582565b6103048585856105fa565b506001949350505050565b6000610319610659565b905090565b6001600160a01b0381166000908152600760205260408120546102e5565b600060608060008060006060610350610784565b6103586107b1565b60408051600080825260208201909252600f60f81b9b939a50919850469750309650945092509050565b60606004805461024e90610ff3565b6000336102df8185856105fa565b6103a98383610391565b506001600160a01b0383163b15610431576040516322a4bb5160e11b81526001600160a01b0384169063454976a2906103ec90339087908790879060040161102d565b6020604051808303816000875af115801561040b573d6000803e3d6000fd5b505050506040513d601f19601f8201168201806040525081019061042f919061106a565b505b505050565b8342111561045f5760405163313c898160e11b8152600481018590526024015b60405180910390fd5b60007f6e71edae12b1b97f4d1f60370fef10105fa2faae0126114a169c64845d6126c98888886104ac8c6001600160a01b0316600090815260076020526040902080546001810190915590565b6040805160208101969096526001600160a01b0394851690860152929091166060840152608083015260a082015260c0810186905260e0016040516020818303038152906040528051906020012090506000610507826107de565b905060006105178287878761080b565b9050896001600160a01b0316816001600160a01b03161461055e576040516325c0072360e11b81526001600160a01b0380831660048301528b166024820152604401610456565b6105698a8a8a610575565b50505050505050505050565b6104318383836001610839565b6001600160a01b03838116600090815260016020908152604080832093861683529290522054600019811461042f57818110156105eb57604051637dc7a0d960e11b81526001600160a01b03841660048201526024810182905260448101839052606401610456565b61042f84848484036000610839565b6001600160a01b03831661062457604051634b637e8f60e11b815260006004820152602401610456565b6001600160a01b03821661064e5760405163ec442f0560e01b815260006004820152602401610456565b61043183838361090e565b6000306001600160a01b037f0000000000000000000000000000000000000000000000000000000000000000161480156106b257507f000000000000000000000000000000000000000000000000000000000000000046145b156106dc57507f000000000000000000000000000000000000000000000000000000000000000090565b610319604080517f8b73c3c69bb8fe3d512ecc4cf759cc79239f7b179b0ffacaa9a75d522b39400f60208201527f0000000000000000000000000000000000000000000000000000000000000000918101919091527f000000000000000000000000000000000000000000000000000000000000000060608201524660808201523060a082015260009060c00160405160208183030381529060405280519060200120905090565b60606103197f00000000000000000000000000000000000000000000000000000000000000006005610a38565b60606103197f00000000000000000000000000000000000000000000000000000000000000006006610a38565b60006102e56107eb610659565b8360405161190160f01b8152600281019290925260228201526042902090565b60008060008061081d88888888610ae3565b92509250925061082d8282610bb2565b50909695505050505050565b6001600160a01b0384166108635760405163e602df0560e01b815260006004820152602401610456565b6001600160a01b03831661088d57604051634a1406b160e11b815260006004820152602401610456565b6001600160a01b038085166000908152600160209081526040808320938716835292905220829055801561042f57826001600160a01b0316846001600160a01b03167f8c5be1e5ebec7d5bd14f71427d1e84f3dd0314c0f7b2291e5b200ac8c7c3b9258460405161090091815260200190565b60405180910390a350505050565b6001600160a01b03831661093957806002600082825461092e919061108c565b909155506109ab9050565b6001600160a01b0383166000908152602081905260409020548181101561098c5760405163391434e360e21b81526001600160a01b03851660048201526024810182905260448101839052606401610456565b6001600160a01b03841660009081526020819052604090209082900390555b6001600160a01b0382166109c7576002805482900390556109e6565b6001600160a01b03821660009081526020819052604090208054820190555b816001600160a01b0316836001600160a01b03167fddf252ad1be2c89b69c2b068fc378daa952ba7f163c4a11628f55a4df523b3ef83604051610a2b91815260200190565b60405180910390a3505050565b606060ff8314610a5257610a4b83610c6f565b90506102e5565b818054610a5e90610ff3565b80601f0160208091040260200160405190810160405280929190818152602001828054610a8a90610ff3565b8015610ad75780601f10610aac57610100808354040283529160200191610ad7565b820191906000526020600020905b815481529060010190602001808311610aba57829003601f168201915b505050505090506102e5565b600080807f7fffffffffffffffffffffffffffffff5d576e7357a4501ddfe92f46681b20a0841115610b1e5750600091506003905082610ba8565b604080516000808252602082018084528a905260ff891692820192909252606081018790526080810186905260019060a0016020604051602081039080840390855afa158015610b72573d6000803e3d6000fd5b5050604051601f1901519150506001600160a01b038116610b9e57506000925060019150829050610ba8565b9250600091508190505b9450945094915050565b6000826003811115610bc657610bc66110ad565b03610bcf575050565b6001826003811115610be357610be36110ad565b03610c015760405163f645eedf60e01b815260040160405180910390fd5b6002826003811115610c1557610c156110ad565b03610c365760405163fce698f760e01b815260048101829052602401610456565b6003826003811115610c4a57610c4a6110ad565b03610c6b576040516335e2f38360e21b815260048101829052602401610456565b5050565b60606000610c7c83610cae565b604080516020808252818301909252919250600091906020820181803683375050509182525060208101929092525090565b600060ff8216601f8111156102e557604051632cd44ac360e21b815260040160405180910390fd5b6000815180845260005b81811015610cfc57602081850181015186830182015201610ce0565b506000602082860101526020601f19601f83011685010191505092915050565b602081526000610d2f6020830184610cd6565b9392505050565b80356001600160a01b0381168114610d4d57600080fd5b919050565b60008060408385031215610d6557600080fd5b610d6e83610d36565b946020939093013593505050565b600080600060608486031215610d9157600080fd5b610d9a84610d36565b9250610da860208501610d36565b9150604084013590509250925092565b600060208284031215610dca57600080fd5b610d2f82610d36565b60ff60f81b881681526000602060e06020840152610df460e084018a610cd6565b8381036040850152610e06818a610cd6565b606085018990526001600160a01b038816608086015260a0850187905284810360c08601528551808252602080880193509091019060005b81811015610e5a57835183529284019291840191600101610e3e565b50909c9b505050505050505050505050565b634e487b7160e01b600052604160045260246000fd5b600080600060608486031215610e9757600080fd5b610ea084610d36565b925060208401359150604084013567ffffffffffffffff80821115610ec457600080fd5b818601915086601f830112610ed857600080fd5b813581811115610eea57610eea610e6c565b604051601f8201601f19908116603f01168101908382118183101715610f1257610f12610e6c565b81604052828152896020848701011115610f2b57600080fd5b8260208601602083013760006020848301015280955050505050509250925092565b600080600080600080600060e0888a031215610f6857600080fd5b610f7188610d36565b9650610f7f60208901610d36565b95506040880135945060608801359350608088013560ff81168114610fa357600080fd5b9699959850939692959460a0840135945060c09093013592915050565b60008060408385031215610fd357600080fd5b610fdc83610d36565b9150610fea60208401610d36565b90509250929050565b600181811c9082168061100757607f821691505b60208210810361102757634e487b7160e01b600052602260045260246000fd5b50919050565b6001600160a01b038581168252841660208201526040810183905260806060820181905260009061106090830184610cd6565b9695505050505050565b60006020828403121561107c57600080fd5b81518015158114610d2f57600080fd5b808201808211156102e557634e487b7160e01b600052601160045260246000fd5b634e487b7160e01b600052602160045260246000fdfea26469706673582212205ba334707fa2c00d7e179adef3d90404299db00c61b2afe093247777e207596d64736f6c63430008190033","linkReferences":{}},"methodIdentifiers":{"DOMAIN_SEPARATOR()":"3644e515","allowance(address,address)":"dd62ed3e","approve(address,uint256)":"095ea7b3","balanceOf(address)":"70a08231","decimals()":"313ce567","eip712Domain()":"84b0196e","name()":"06fdde03","nonces(address)":"7ecebe00","permit(address,address,uint256,uint256,uint8,bytes32,bytes32)":"d505accf","symbol()":"95d89b41","totalSupply()":"18160ddd","transfer(address,uint256)":"a9059cbb","transferFrom(address,address,uint256)":"23b872dd","transferWithCallback(address,uint256,bytes)":"d3139195"},"storageLayout":{"storage":[{"astId":47659,"contract":"src/Base20Token.sol:Base20Token","label":"_balances","offset":0,"slot":"0","type":"t_mapping(t_address,t_uint256)"},{"astId":47665,"contract":"src/Base20Token.sol:Base20Token","label":"_allowances","offset":0,"slot":"1","type":"t_mapping(t_address,t_mapping(t_address,t_uint256))"},{"astId":47667,"contract":"src/Base20Token.sol:Base20Token","label":"_totalSupply","offset":0,"slot":"2","type":"t_uint256"},{"astId":47669,"contract":"src/Base20Token.sol:Base20Token","label":"_name","offset":0,"slot":"3","type":"t_string_storage"},{"astId":47671,"contract":"src/Base20Token.sol:Base20Token","label":"_symbol","offset":0,"slot":"4","type":"t_string_storage"},{"astId":50936,"contract":"src/Base20Token.sol:Base20Token","label":"_nameFallback","offset":0,"slot":"5","type":"t_string_storage"},{"astId":50938,"contract":"src/Base20Token.sol:Base20Token","label":"_versionFallback","offset":0,"slot":"6","type":"t_string_storage"},{"astId":49915,"contract":"src/Base20Token.sol:Base20Token","label":"_nonces","offset":0,"slot":"7","type":"t_mapping(t_address,t_uint256)"}],"types":{"t_address":{"encoding":"inplace","label":"address","numberOfBytes":"20"},"t_mapping(t_address,t_mapping(t_address,t_uint256))":{"encoding":"mapping","key":"t_address","label":"mapping(address => mapping(address => uint256))","numberOfBytes":"32","value":"t_mapping(t_address,t_uint256)"},"t_mapping(t_address,t_uint256)":{"encoding":"mapping","key":"t_address","label":"mapping(address => uint256)","numberOfBytes":"32","value":"t_uint256"},"t_string_storage":{"encoding":"bytes","label":"string","numberOfBytes":"32"},"t_uint256":{"encoding":"inplace","label":"uint256","numberOfBytes":"32"}}},"id":64}