{"abi":[{"type":"function","name":"buyNFT","inputs":[{"name":"contractAddress","type":"address","internalType":"address"},{"name":"tokenId","type":"uint256","internalType":"uint256"},{"name":"payErc20Contract","type":"address","internalType":"address"}],"outputs":[],"stateMutability":"nonpayable"},{"type":"function","name":"isWhite","inputs":[{"name":"contractAddress","type":"address","internalType":"address"},{"name":"tokenId","type":"uint256","internalType":"uint256"},{"name":"deadline","type":"uint256","internalType":"uint256"},{"name":"v","type":"uint8","internalType":"uint8"},{"name":"r","type":"bytes32","internalType":"bytes32"},{"name":"s","type":"bytes32","internalType":"bytes32"}],"outputs":[],"stateMutability":"nonpayable"},{"type":"function","name":"list","inputs":[{"name":"contractAddress","type":"address","internalType":"address"},{"name":"tokenId","type":"uint256","internalType":"uint256"},{"name":"listPric","type":"uint256","internalType":"uint256"}],"outputs":[],"stateMutability":"nonpayable"},{"type":"function","name":"listPrice","inputs":[{"name":"contractAddress","type":"address","internalType":"address"},{"name":"tokenId","type":"uint256","internalType":"uint256"}],"outputs":[{"name":"","type":"uint256","internalType":"uint256"}],"stateMutability":"view"},{"type":"function","name":"onERC721Received","inputs":[{"name":"","type":"address","internalType":"address"},{"name":"","type":"address","internalType":"address"},{"name":"","type":"uint256","internalType":"uint256"},{"name":"","type":"bytes","internalType":"bytes"}],"outputs":[{"name":"","type":"bytes4","internalType":"bytes4"}],"stateMutability":"pure"},{"type":"function","name":"ownerOf","inputs":[{"name":"contractAddress","type":"address","internalType":"address"},{"name":"tokenId","type":"uint256","internalType":"uint256"}],"outputs":[{"name":"","type":"address","internalType":"address"}],"stateMutability":"view"},{"type":"function","name":"permitBuy","inputs":[{"name":"nftAddress","type":"address","internalType":"address"},{"name":"tokenId","type":"uint256","internalType":"uint256"},{"name":"erc20Address","type":"address","internalType":"address"},{"name":"owner","type":"address","internalType":"address"},{"name":"spender","type":"address","internalType":"address"},{"name":"_value","type":"uint256","internalType":"uint256"},{"name":"deadline","type":"uint256","internalType":"uint256"},{"name":"v","type":"uint8","internalType":"uint8"},{"name":"r","type":"bytes32","internalType":"bytes32"},{"name":"s","type":"bytes32","internalType":"bytes32"}],"outputs":[],"stateMutability":"nonpayable"},{"type":"function","name":"permitList","inputs":[{"name":"contractAddress","type":"address","internalType":"address"},{"name":"price","type":"uint256","internalType":"uint256"},{"name":"tokenId","type":"uint256","internalType":"uint256"},{"name":"deadline","type":"uint256","internalType":"uint256"},{"name":"v","type":"uint8","internalType":"uint8"},{"name":"r","type":"bytes32","internalType":"bytes32"},{"name":"s","type":"bytes32","internalType":"bytes32"}],"outputs":[],"stateMutability":"nonpayable"},{"type":"function","name":"tokensReceive","inputs":[{"name":"_from","type":"address","internalType":"address"},{"name":"_to","type":"address","internalType":"address"},{"name":"_value","type":"uint256","internalType":"uint256"},{"name":"_data","type":"bytes","internalType":"bytes"}],"outputs":[{"name":"","type":"bool","internalType":"bool"}],"stateMutability":"nonpayable"},{"type":"event","name":"buyOrder","inputs":[{"name":"from","type":"address","indexed":true,"internalType":"address"},{"name":"contractAddress","type":"address","indexed":true,"internalType":"address"},{"name":"tokenId","type":"uint256","indexed":true,"internalType":"uint256"},{"name":"listPrice","type":"uint256","indexed":false,"internalType":"uint256"}],"anonymous":false},{"type":"event","name":"listOrder","inputs":[{"name":"from","type":"address","indexed":true,"internalType":"address"},{"name":"contractAddress","type":"address","indexed":true,"internalType":"address"},{"name":"tokenId","type":"uint256","indexed":true,"internalType":"uint256"},{"name":"listPrice","type":"uint256","indexed":false,"internalType":"uint256"}],"anonymous":false}],"bytecode":{"object":"0x60a06040527f49ecf333e5b8c95c40fdafc95c1ad136e8914a8fb55e9dc8bb01eaa83a2df9ad608052348015603357600080fd5b5060805161112661004c600039600050506111266000f3fe608060405234801561001057600080fd5b50600436106100935760003560e01c80638b199bc7116100665780638b199bc714610137578063c9961e7a14610158578063dda342bb1461016b578063f0bbe2821461017e578063ffe50b891461019157600080fd5b8063150b7a02146100985780631f29d2dc146100d4578063454976a2146100ff578063456f669b14610122575b600080fd5b6100b66100a6366004610d1d565b630a85bd0160e11b949350505050565b6040516001600160e01b031990911681526020015b60405180910390f35b6100e76100e2366004610de1565b6101a4565b6040516001600160a01b0390911681526020016100cb565b61011261010d366004610d1d565b6101cc565b60405190151581526020016100cb565b610135610130366004610e23565b610399565b005b61014a610145366004610de1565b6103af565b6040519081526020016100cb565b610135610166366004610e7d565b6103da565b610135610179366004610ee2565b6103f2565b61013561018c366004610f17565b6104e2565b61013561019f366004610fb6565b610500565b6001600160a01b03918216600090815260026020908152604080832093835292905220541690565b600080828060200190518101906101e39190610ff8565b80519091506001600160a01b031615801590610203575060008160200151115b6102485760405162461bcd60e51b81526020600482015260116024820152706461746120656e747279206572726f727360781b60448201526064015b60405180910390fd5b8361025b826000015183602001516103af565b1461029f5760405162461bcd60e51b81526020600482015260146024820152734e6f20657175616c73206c69737420707269636560601b604482015260640161023f565b60006102b3826000015183602001516101a4565b905060006102cb87846000015185602001518b610658565b9050806103095760405162461bcd60e51b815260206004820152600c60248201526b1d185b9cd9995c8819985a5b60a21b604482015260640161023f565b600080546001600160a01b0319163390811790915560405163a9059cbb60e01b81526001600160a01b03841660048201526024810188905263a9059cbb906044016020604051808303816000875af1158015610369573d6000803e3d6000fd5b505050506040513d601f19601f8201168201806040525081019061038d9190611050565b50979650505050505050565b6103a78686868686866107d1565b505050505050565b6001600160a01b03919091166000908152600260209081526040808320938352929052206001015490565b6103e987878787878787610bc1565b50505050505050565b600180546001600160a01b0319166001600160a01b038516908117909155604051632142170760e11b8152336004820152306024820152604481018490526342842e0e90606401600060405180830381600087803b15801561045357600080fd5b505af1158015610467573d6000803e3d6000fd5b505050506001600160a01b038316600081815260026020908152604080832086845282529182902080546001600160a01b03191633908117825560019091018590559151848152859392917f9403cc472149b57dc853960dcefe862ece534877fe046522f9b075e046c69236910160405180910390a4505050565b6104f48a8a8a8a8a8a8a8a8a8a610c49565b50505050505050505050565b600061050c84846103af565b600080546001600160a01b0319166001600160a01b0385811691821783558781168352600260209081526040808520898652909152928390205492516323b872dd60e01b815233600482015292166024830152604482018390529192506323b872dd906064016020604051808303816000875af1158015610591573d6000803e3d6000fd5b505050506040513d601f19601f820116820180604052508101906105b59190611050565b6105f75760405162461bcd60e51b8152602060048201526013602482015272135bdb995e48151c985b9cd9995c8819985a5b606a1b604482015260640161023f565b61060330858533610658565b5082846001600160a01b0316336001600160a01b03167fcd8a64c4d006e94cc9ec7c0907e485b0ee6b17e0bff0f7a75b6840b73111a9648460405161064a91815260200190565b60405180910390a450505050565b60008061066585856101a4565b6001600160a01b0316036106ae5760405162461bcd60e51b815260206004820152601060248201526f1d5cd95c881a5cc81b9bdd081b1a5cdd60821b604482015260640161023f565b816001600160a01b03166106c285856101a4565b6001600160a01b03160361070e5760405162461bcd60e51b8152602060048201526013602482015272313abcb2b91034b9903737ba1039b2b63632b960691b604482015260640161023f565b600180546001600160a01b0319166001600160a01b03868116918217909255604051632142170760e11b81528783166004820152918416602483015260448201859052906342842e0e90606401600060405180830381600087803b15801561077557600080fd5b505af1158015610789573d6000803e3d6000fd5b505050506001600160a01b0393909316600090815260026020908152604080832094835293905291822080546001600160a01b03191681556001908101929092555092915050565b604080518082018252600c81526b2130b9b29b9918aa37b5b2b760a11b6020918201528151808301835260018152603160f81b9082015281517f8b73c3c69bb8fe3d512ecc4cf759cc79239f7b179b0ffacaa9a75d522b39400f918101919091527f6ccfce68ff28ed05677cd3d5c1eeb6ef6bfce748e4a76371c5699b141b993cac918101919091527fc89efdaa54c0f20c7adf612882df0950f5a951637e0307cdcb4c672f298b8bc660608201524660808201523060a082015260009060c00160408051808303601f190181528282528051602091820120600180546001600160a01b0319166001600160a01b038d16908117909155638da5cb5b60e01b85529251909450600093638da5cb5b9260048083019391928290030181865afa158015610901573d6000803e3d6000fd5b505050506040513d601f19601f820116820180604052508101906109259190611079565b604080517f6e71edae12b1b97f4d1f60370fef10105fa2faae0126114a169c64845d6126c960208201526001600160a01b038316918101919091523360608201526080810189905260a0810189905260c0810188905290915060009060e00160408051601f198184030181528282528051602091820120600154633644e51560e01b855292519094506000936001600160a01b0390931692633644e5159260048083019391928290030181865afa1580156109e4573d6000803e3d6000fd5b505050506040513d601f19601f82011682018060405250810190610a089190611096565b60405161190160f01b602082015260228101919091526042810183905260620160408051601f198184030181528282528051602091820120600080855291840180845281905260ff8b169284019290925260608301899052608083018890529092509060019060a0016020604051602081039080840390855afa158015610a93573d6000803e3d6000fd5b505050602060405103519050836001600160a01b0316816001600160a01b031614610b005760405162461bcd60e51b815260206004820152601d60248201527f4d7946756e6374696f6e3a20696e76616c6964207369676e6174757265000000604482015260640161023f565b6001600160a01b038116610b565760405162461bcd60e51b815260206004820152601860248201527f45434453413a20696e76616c6964207369676e61747572650000000000000000604482015260640161023f565b884210610bb45760405162461bcd60e51b815260206004820152602660248201527f4d7946756e6374696f6e3a207369676e6564207472616e73616374696f6e20656044820152651e1c1a5c995960d21b606482015260840161023f565b5050505050505050505050565b600180546001600160a01b0319166001600160a01b03891690811790915560405163d505accf60e01b815263d505accf90610c0c90339030908a908a908a908a908a906004016110af565b600060405180830381600087803b158015610c2657600080fd5b505af1158015610c3a573d6000803e3d6000fd5b505050506103e98786886103f2565b60405163d505accf60e01b81526001600160a01b0389169063d505accf90610c81908a908a908a908a908a908a908a906004016110af565b600060405180830381600087803b158015610c9b57600080fd5b505af1158015610caf573d6000803e3d6000fd5b505050506104f48a8a8a610500565b6001600160a01b0381168114610cd357600080fd5b50565b634e487b7160e01b600052604160045260246000fd5b604051601f8201601f1916810167ffffffffffffffff81118282101715610d1557610d15610cd6565b604052919050565b60008060008060808587031215610d3357600080fd5b8435610d3e81610cbe565b9350602085810135610d4f81610cbe565b935060408601359250606086013567ffffffffffffffff80821115610d7357600080fd5b818801915088601f830112610d8757600080fd5b813581811115610d9957610d99610cd6565b610dab601f8201601f19168501610cec565b91508082528984828501011115610dc157600080fd5b808484018584013760008482840101525080935050505092959194509250565b60008060408385031215610df457600080fd5b8235610dff81610cbe565b946020939093013593505050565b803560ff81168114610e1e57600080fd5b919050565b60008060008060008060c08789031215610e3c57600080fd5b8635610e4781610cbe565b95506020870135945060408701359350610e6360608801610e0d565b92506080870135915060a087013590509295509295509295565b600080600080600080600060e0888a031215610e9857600080fd5b8735610ea381610cbe565b9650602088013595506040880135945060608801359350610ec660808901610e0d565b925060a0880135915060c0880135905092959891949750929550565b600080600060608486031215610ef757600080fd5b8335610f0281610cbe565b95602085013595506040909401359392505050565b6000806000806000806000806000806101408b8d031215610f3757600080fd5b8a35610f4281610cbe565b995060208b0135985060408b0135610f5981610cbe565b975060608b0135610f6981610cbe565b965060808b0135610f7981610cbe565b955060a08b0135945060c08b01359350610f9560e08c01610e0d565b92506101008b013591506101208b013590509295989b9194979a5092959850565b600080600060608486031215610fcb57600080fd5b8335610fd681610cbe565b9250602084013591506040840135610fed81610cbe565b809150509250925092565b60006040828403121561100a57600080fd5b6040516040810181811067ffffffffffffffff8211171561102d5761102d610cd6565b604052825161103b81610cbe565b81526020928301519281019290925250919050565b60006020828403121561106257600080fd5b8151801515811461107257600080fd5b9392505050565b60006020828403121561108b57600080fd5b815161107281610cbe565b6000602082840312156110a857600080fd5b5051919050565b6001600160a01b0397881681529590961660208601526040850193909352606084019190915260ff16608083015260a082015260c081019190915260e0019056fea2646970667358221220181bc1fe201ffea30ce814d442153950458482b2df3df3d216036df09da137d064736f6c63430008190033","linkReferences":{}},"methodIdentifiers":{"buyNFT(address,uint256,address)":"ffe50b89","isWhite(address,uint256,uint256,uint8,bytes32,bytes32)":"456f669b","list(address,uint256,uint256)":"dda342bb","listPrice(address,uint256)":"8b199bc7","onERC721Received(address,address,uint256,bytes)":"150b7a02","ownerOf(address,uint256)":"1f29d2dc","permitBuy(address,uint256,address,address,address,uint256,uint256,uint8,bytes32,bytes32)":"f0bbe282","permitList(address,uint256,uint256,uint256,uint8,bytes32,bytes32)":"c9961e7a","tokensReceive(address,address,uint256,bytes)":"454976a2"},"id":49}