{"abi":[{"type":"constructor","inputs":[{"name":"name_","type":"string","internalType":"string"},{"name":"symbol_","type":"string","internalType":"string"},{"name":"url_","type":"string","internalType":"string"}],"stateMutability":"nonpayable"},{"type":"function","name":"approve","inputs":[{"name":"to","type":"address","internalType":"address"},{"name":"tokenId","type":"uint256","internalType":"uint256"}],"outputs":[],"stateMutability":"nonpayable"},{"type":"function","name":"balanceOf","inputs":[{"name":"owner","type":"address","internalType":"address"}],"outputs":[{"name":"","type":"uint256","internalType":"uint256"}],"stateMutability":"view"},{"type":"function","name":"getApproved","inputs":[{"name":"tokenId","type":"uint256","internalType":"uint256"}],"outputs":[{"name":"","type":"address","internalType":"address"}],"stateMutability":"view"},{"type":"function","name":"isApprovedForAll","inputs":[{"name":"owner","type":"address","internalType":"address"},{"name":"operator","type":"address","internalType":"address"}],"outputs":[{"name":"","type":"bool","internalType":"bool"}],"stateMutability":"view"},{"type":"function","name":"mint","inputs":[{"name":"_to","type":"address","internalType":"address"}],"outputs":[],"stateMutability":"nonpayable"},{"type":"function","name":"name","inputs":[],"outputs":[{"name":"","type":"string","internalType":"string"}],"stateMutability":"view"},{"type":"function","name":"owner","inputs":[],"outputs":[{"name":"","type":"address","internalType":"address"}],"stateMutability":"view"},{"type":"function","name":"ownerOf","inputs":[{"name":"tokenId","type":"uint256","internalType":"uint256"}],"outputs":[{"name":"","type":"address","internalType":"address"}],"stateMutability":"view"},{"type":"function","name":"renounceOwnership","inputs":[],"outputs":[],"stateMutability":"nonpayable"},{"type":"function","name":"safeTransferFrom","inputs":[{"name":"from","type":"address","internalType":"address"},{"name":"to","type":"address","internalType":"address"},{"name":"tokenId","type":"uint256","internalType":"uint256"}],"outputs":[],"stateMutability":"nonpayable"},{"type":"function","name":"safeTransferFrom","inputs":[{"name":"from","type":"address","internalType":"address"},{"name":"to","type":"address","internalType":"address"},{"name":"tokenId","type":"uint256","internalType":"uint256"},{"name":"data","type":"bytes","internalType":"bytes"}],"outputs":[],"stateMutability":"nonpayable"},{"type":"function","name":"setApprovalForAll","inputs":[{"name":"operator","type":"address","internalType":"address"},{"name":"approved","type":"bool","internalType":"bool"}],"outputs":[],"stateMutability":"nonpayable"},{"type":"function","name":"setNFTMartket","inputs":[{"name":"nftMarketAddress","type":"address","internalType":"address"}],"outputs":[],"stateMutability":"nonpayable"},{"type":"function","name":"supportsInterface","inputs":[{"name":"interfaceId","type":"bytes4","internalType":"bytes4"}],"outputs":[{"name":"","type":"bool","internalType":"bool"}],"stateMutability":"view"},{"type":"function","name":"symbol","inputs":[],"outputs":[{"name":"","type":"string","internalType":"string"}],"stateMutability":"view"},{"type":"function","name":"tokenURI","inputs":[{"name":"tokenId","type":"uint256","internalType":"uint256"}],"outputs":[{"name":"","type":"string","internalType":"string"}],"stateMutability":"view"},{"type":"function","name":"transferFrom","inputs":[{"name":"from","type":"address","internalType":"address"},{"name":"to","type":"address","internalType":"address"},{"name":"tokenId","type":"uint256","internalType":"uint256"}],"outputs":[],"stateMutability":"nonpayable"},{"type":"function","name":"transferOwnership","inputs":[{"name":"newOwner","type":"address","internalType":"address"}],"outputs":[],"stateMutability":"nonpayable"},{"type":"event","name":"Approval","inputs":[{"name":"owner","type":"address","indexed":true,"internalType":"address"},{"name":"approved","type":"address","indexed":true,"internalType":"address"},{"name":"tokenId","type":"uint256","indexed":true,"internalType":"uint256"}],"anonymous":false},{"type":"event","name":"ApprovalForAll","inputs":[{"name":"owner","type":"address","indexed":true,"internalType":"address"},{"name":"operator","type":"address","indexed":true,"internalType":"address"},{"name":"approved","type":"bool","indexed":false,"internalType":"bool"}],"anonymous":false},{"type":"event","name":"OwnershipTransferred","inputs":[{"name":"previousOwner","type":"address","indexed":true,"internalType":"address"},{"name":"newOwner","type":"address","indexed":true,"internalType":"address"}],"anonymous":false},{"type":"event","name":"Transfer","inputs":[{"name":"from","type":"address","indexed":true,"internalType":"address"},{"name":"to","type":"address","indexed":true,"internalType":"address"},{"name":"tokenId","type":"uint256","indexed":true,"internalType":"uint256"}],"anonymous":false},{"type":"error","name":"ERC721IncorrectOwner","inputs":[{"name":"sender","type":"address","internalType":"address"},{"name":"tokenId","type":"uint256","internalType":"uint256"},{"name":"owner","type":"address","internalType":"address"}]},{"type":"error","name":"ERC721InsufficientApproval","inputs":[{"name":"operator","type":"address","internalType":"address"},{"name":"tokenId","type":"uint256","internalType":"uint256"}]},{"type":"error","name":"ERC721InvalidApprover","inputs":[{"name":"approver","type":"address","internalType":"address"}]},{"type":"error","name":"ERC721InvalidOperator","inputs":[{"name":"operator","type":"address","internalType":"address"}]},{"type":"error","name":"ERC721InvalidOwner","inputs":[{"name":"owner","type":"address","internalType":"address"}]},{"type":"error","name":"ERC721InvalidReceiver","inputs":[{"name":"receiver","type":"address","internalType":"address"}]},{"type":"error","name":"ERC721InvalidSender","inputs":[{"name":"sender","type":"address","internalType":"address"}]},{"type":"error","name":"ERC721NonexistentToken","inputs":[{"name":"tokenId","type":"uint256","internalType":"uint256"}]},{"type":"error","name":"OwnableInvalidOwner","inputs":[{"name":"owner","type":"address","internalType":"address"}]},{"type":"error","name":"OwnableUnauthorizedAccount","inputs":[{"name":"account","type":"address","internalType":"address"}]},{"type":"error","name":"onlyNFTMarket","inputs":[{"name":"account","type":"address","internalType":"address"}]}],"bytecode":{"object":"0x60a060405260016008557f49ecf333e5b8c95c40fdafc95c1ad136e8914a8fb55e9dc8bb01eaa83a2df9ad60805234801561003957600080fd5b50604051611510380380611510833981016040819052610058916101d4565b338383600061006783826102e6565b50600161007482826102e6565b5050506001600160a01b0381166100a557604051631e4fbdf760e01b81526000600482015260240160405180910390fd5b6100ae816100c4565b5060076100bb82826102e6565b505050506103a5565b600680546001600160a01b038381166001600160a01b0319831681179093556040519116919082907f8be0079c531659141344cd1fd0a4f28419497f9722a3daafe3b4186f6b6457e090600090a35050565b634e487b7160e01b600052604160045260246000fd5b600082601f83011261013d57600080fd5b81516001600160401b038082111561015757610157610116565b604051601f8301601f19908116603f0116810190828211818310171561017f5761017f610116565b816040528381526020925086602085880101111561019c57600080fd5b600091505b838210156101be57858201830151818301840152908201906101a1565b6000602085830101528094505050505092915050565b6000806000606084860312156101e957600080fd5b83516001600160401b038082111561020057600080fd5b61020c8783880161012c565b9450602086015191508082111561022257600080fd5b61022e8783880161012c565b9350604086015191508082111561024457600080fd5b506102518682870161012c565b9150509250925092565b600181811c9082168061026f57607f821691505b60208210810361028f57634e487b7160e01b600052602260045260246000fd5b50919050565b601f8211156102e1576000816000526020600020601f850160051c810160208610156102be5750805b601f850160051c820191505b818110156102dd578281556001016102ca565b5050505b505050565b81516001600160401b038111156102ff576102ff610116565b6103138161030d845461025b565b84610295565b602080601f83116001811461034857600084156103305750858301515b600019600386901b1c1916600185901b1785556102dd565b600085815260208120601f198616915b8281101561037757888601518255948401946001909101908401610358565b50858210156103955787850151600019600388901b60f8161c191681555b5050505050600190811b01905550565b6080516111536103bd600039600050506111536000f3fe608060405234801561001057600080fd5b50600436106101165760003560e01c8063715018a6116100a2578063a7da539011610071578063a7da539014610239578063b88d4fde14610269578063c87b56dd1461027c578063e985e9c51461028f578063f2fde38b146102a257600080fd5b8063715018a6146102055780638da5cb5b1461020d57806395d89b411461021e578063a22cb4651461022657600080fd5b806323b872dd116100e957806323b872dd1461019857806342842e0e146101ab5780636352211e146101be5780636a627842146101d157806370a08231146101e457600080fd5b806301ffc9a71461011b57806306fdde0314610143578063081812fc14610158578063095ea7b314610183575b600080fd5b61012e610129366004610d8c565b6102b5565b60405190151581526020015b60405180910390f35b61014b610307565b60405161013a9190610df9565b61016b610166366004610e0c565b610399565b6040516001600160a01b03909116815260200161013a565b610196610191366004610e41565b6103c2565b005b6101966101a6366004610e6b565b6103d1565b6101966101b9366004610e6b565b610461565b61016b6101cc366004610e0c565b610481565b6101966101df366004610ea7565b61048c565b6101f76101f2366004610ea7565b6104b6565b60405190815260200161013a565b6101966104fe565b6006546001600160a01b031661016b565b61014b610512565b610196610234366004610ec2565b610521565b610196610247366004610ea7565b600980546001600160a01b0319166001600160a01b0392909216919091179055565b610196610277366004610f14565b61052c565b61014b61028a366004610e0c565b610543565b61012e61029d366004610ff0565b6105ab565b6101966102b0366004610ea7565b6105d9565b60006001600160e01b031982166380ac58cd60e01b14806102e657506001600160e01b03198216635b5e139f60e01b145b8061030157506301ffc9a760e01b6001600160e01b03198316145b92915050565b60606000805461031690611023565b80601f016020809104026020016040519081016040528092919081815260200182805461034290611023565b801561038f5780601f106103645761010080835404028352916020019161038f565b820191906000526020600020905b81548152906001019060200180831161037257829003601f168201915b5050505050905090565b60006103a482610614565b506000828152600460205260409020546001600160a01b0316610301565b6103cd82823361064d565b5050565b6001600160a01b03821661040057604051633250574960e11b8152600060048201526024015b60405180910390fd5b600061040d83833361065a565b9050836001600160a01b0316816001600160a01b03161461045b576040516364283d7b60e01b81526001600160a01b03808616600483015260248201849052821660448201526064016103f7565b50505050565b61047c8383836040518060200160405280600081525061052c565b505050565b600061030182610614565b610494610753565b600880546104b39183919060006104aa8361105d565b91905055610780565b50565b60006001600160a01b0382166104e2576040516322718ad960e21b8152600060048201526024016103f7565b506001600160a01b031660009081526003602052604090205490565b6105066107e5565b6105106000610812565b565b60606001805461031690611023565b6103cd338383610864565b6105378484846103d1565b61045b84848484610903565b606061054e82610614565b506000610559610a2c565b9050600081511161057957604051806020016040528060008152506105a4565b8061058384610a3b565b604051602001610594929190611084565b6040516020818303038152906040525b9392505050565b6001600160a01b03918216600090815260056020908152604080832093909416825291909152205460ff1690565b6105e16107e5565b6001600160a01b03811661060b57604051631e4fbdf760e01b8152600060048201526024016103f7565b6104b381610812565b6000818152600260205260408120546001600160a01b03168061030157604051637e27328960e01b8152600481018490526024016103f7565b61047c8383836001610ace565b6000828152600260205260408120546001600160a01b039081169083161561068757610687818486610bd4565b6001600160a01b038116156106c5576106a4600085600080610ace565b6001600160a01b038116600090815260036020526040902080546000190190555b6001600160a01b038516156106f4576001600160a01b0385166000908152600360205260409020805460010190555b60008481526002602052604080822080546001600160a01b0319166001600160a01b0389811691821790925591518793918516917fddf252ad1be2c89b69c2b068fc378daa952ba7f163c4a11628f55a4df523b3ef91a4949350505050565b6009546001600160a01b0316331461051057604051630e44fd4d60e11b81523360048201526024016103f7565b6001600160a01b0382166107aa57604051633250574960e11b8152600060048201526024016103f7565b60006107b88383600061065a565b90506001600160a01b0381161561047c576040516339e3563760e11b8152600060048201526024016103f7565b6006546001600160a01b031633146105105760405163118cdaa760e01b81523360048201526024016103f7565b600680546001600160a01b038381166001600160a01b0319831681179093556040519116919082907f8be0079c531659141344cd1fd0a4f28419497f9722a3daafe3b4186f6b6457e090600090a35050565b6001600160a01b03821661089657604051630b61174360e31b81526001600160a01b03831660048201526024016103f7565b6001600160a01b03838116600081815260056020908152604080832094871680845294825291829020805460ff191686151590811790915591519182527f17307eab39ab6107e8899845ad3d59bd9653f200f220920489ca2b5937696c31910160405180910390a3505050565b6001600160a01b0383163b1561045b57604051630a85bd0160e11b81526001600160a01b0384169063150b7a02906109459033908890879087906004016110c3565b6020604051808303816000875af1925050508015610980575060408051601f3d908101601f1916820190925261097d91810190611100565b60015b6109e9573d8080156109ae576040519150601f19603f3d011682016040523d82523d6000602084013e6109b3565b606091505b5080516000036109e157604051633250574960e11b81526001600160a01b03851660048201526024016103f7565b805181602001fd5b6001600160e01b03198116630a85bd0160e11b14610a2557604051633250574960e11b81526001600160a01b03851660048201526024016103f7565b5050505050565b60606007805461031690611023565b60606000610a4883610c38565b600101905060008167ffffffffffffffff811115610a6857610a68610efe565b6040519080825280601f01601f191660200182016040528015610a92576020820181803683370190505b5090508181016020015b600019016f181899199a1a9b1b9c1cb0b131b232b360811b600a86061a8153600a8504945084610a9c57509392505050565b8080610ae257506001600160a01b03821615155b15610ba4576000610af284610614565b90506001600160a01b03831615801590610b1e5750826001600160a01b0316816001600160a01b031614155b8015610b315750610b2f81846105ab565b155b15610b5a5760405163a9fbf51f60e01b81526001600160a01b03841660048201526024016103f7565b8115610ba25783856001600160a01b0316826001600160a01b03167f8c5be1e5ebec7d5bd14f71427d1e84f3dd0314c0f7b2291e5b200ac8c7c3b92560405160405180910390a45b505b5050600090815260046020526040902080546001600160a01b0319166001600160a01b0392909216919091179055565b610bdf838383610d10565b61047c576001600160a01b038316610c0d57604051637e27328960e01b8152600481018290526024016103f7565b60405163177e802f60e01b81526001600160a01b0383166004820152602481018290526044016103f7565b60008072184f03e93ff9f4daa797ed6e38ed64bf6a1f0160401b8310610c775772184f03e93ff9f4daa797ed6e38ed64bf6a1f0160401b830492506040015b6d04ee2d6d415b85acef81000000008310610ca3576d04ee2d6d415b85acef8100000000830492506020015b662386f26fc100008310610cc157662386f26fc10000830492506010015b6305f5e1008310610cd9576305f5e100830492506008015b6127108310610ced57612710830492506004015b60648310610cff576064830492506002015b600a83106103015760010192915050565b60006001600160a01b03831615801590610d6e5750826001600160a01b0316846001600160a01b03161480610d4a5750610d4a84846105ab565b80610d6e57506000828152600460205260409020546001600160a01b038481169116145b949350505050565b6001600160e01b0319811681146104b357600080fd5b600060208284031215610d9e57600080fd5b81356105a481610d76565b60005b83811015610dc4578181015183820152602001610dac565b50506000910152565b60008151808452610de5816020860160208601610da9565b601f01601f19169290920160200192915050565b6020815260006105a46020830184610dcd565b600060208284031215610e1e57600080fd5b5035919050565b80356001600160a01b0381168114610e3c57600080fd5b919050565b60008060408385031215610e5457600080fd5b610e5d83610e25565b946020939093013593505050565b600080600060608486031215610e8057600080fd5b610e8984610e25565b9250610e9760208501610e25565b9150604084013590509250925092565b600060208284031215610eb957600080fd5b6105a482610e25565b60008060408385031215610ed557600080fd5b610ede83610e25565b915060208301358015158114610ef357600080fd5b809150509250929050565b634e487b7160e01b600052604160045260246000fd5b60008060008060808587031215610f2a57600080fd5b610f3385610e25565b9350610f4160208601610e25565b925060408501359150606085013567ffffffffffffffff80821115610f6557600080fd5b818701915087601f830112610f7957600080fd5b813581811115610f8b57610f8b610efe565b604051601f8201601f19908116603f01168101908382118183101715610fb357610fb3610efe565b816040528281528a6020848701011115610fcc57600080fd5b82602086016020830137600060208483010152809550505050505092959194509250565b6000806040838503121561100357600080fd5b61100c83610e25565b915061101a60208401610e25565b90509250929050565b600181811c9082168061103757607f821691505b60208210810361105757634e487b7160e01b600052602260045260246000fd5b50919050565b60006001820161107d57634e487b7160e01b600052601160045260246000fd5b5060010190565b60008351611096818460208801610da9565b8351908301906110aa818360208801610da9565b64173539b7b760d91b9101908152600501949350505050565b6001600160a01b03858116825284166020820152604081018390526080606082018190526000906110f690830184610dcd565b9695505050505050565b60006020828403121561111257600080fd5b81516105a481610d7656fea2646970667358221220b4747cc3a07adf7f7d7aa60dd3da22070b549ed587739f349a3171d620320cb564736f6c63430008190033","linkReferences":{}},"methodIdentifiers":{"approve(address,uint256)":"095ea7b3","balanceOf(address)":"70a08231","getApproved(uint256)":"081812fc","isApprovedForAll(address,address)":"e985e9c5","mint(address)":"6a627842","name()":"06fdde03","owner()":"8da5cb5b","ownerOf(uint256)":"6352211e","renounceOwnership()":"715018a6","safeTransferFrom(address,address,uint256)":"42842e0e","safeTransferFrom(address,address,uint256,bytes)":"b88d4fde","setApprovalForAll(address,bool)":"a22cb465","setNFTMartket(address)":"a7da5390","supportsInterface(bytes4)":"01ffc9a7","symbol()":"95d89b41","tokenURI(uint256)":"c87b56dd","transferFrom(address,address,uint256)":"23b872dd","transferOwnership(address)":"f2fde38b"},"id":48}