{"abi":[{"type":"constructor","inputs":[{"name":"name_","type":"string","internalType":"string"},{"name":"symbol_","type":"string","internalType":"string"},{"name":"url_","type":"string","internalType":"string"}],"stateMutability":"nonpayable"},{"type":"function","name":"DOMAIN_SEPARATOR","inputs":[],"outputs":[{"name":"","type":"bytes32","internalType":"bytes32"}],"stateMutability":"view"},{"type":"function","name":"approve","inputs":[{"name":"to","type":"address","internalType":"address"},{"name":"tokenId","type":"uint256","internalType":"uint256"}],"outputs":[],"stateMutability":"nonpayable"},{"type":"function","name":"balanceOf","inputs":[{"name":"owner","type":"address","internalType":"address"}],"outputs":[{"name":"","type":"uint256","internalType":"uint256"}],"stateMutability":"view"},{"type":"function","name":"eip712Domain","inputs":[],"outputs":[{"name":"fields","type":"bytes1","internalType":"bytes1"},{"name":"name","type":"string","internalType":"string"},{"name":"version","type":"string","internalType":"string"},{"name":"chainId","type":"uint256","internalType":"uint256"},{"name":"verifyingContract","type":"address","internalType":"address"},{"name":"salt","type":"bytes32","internalType":"bytes32"},{"name":"extensions","type":"uint256[]","internalType":"uint256[]"}],"stateMutability":"view"},{"type":"function","name":"getApproved","inputs":[{"name":"tokenId","type":"uint256","internalType":"uint256"}],"outputs":[{"name":"","type":"address","internalType":"address"}],"stateMutability":"view"},{"type":"function","name":"isApprovedForAll","inputs":[{"name":"owner","type":"address","internalType":"address"},{"name":"operator","type":"address","internalType":"address"}],"outputs":[{"name":"","type":"bool","internalType":"bool"}],"stateMutability":"view"},{"type":"function","name":"mint","inputs":[{"name":"_to","type":"address","internalType":"address"}],"outputs":[],"stateMutability":"nonpayable"},{"type":"function","name":"name","inputs":[],"outputs":[{"name":"","type":"string","internalType":"string"}],"stateMutability":"view"},{"type":"function","name":"owner","inputs":[],"outputs":[{"name":"","type":"address","internalType":"address"}],"stateMutability":"view"},{"type":"function","name":"ownerOf","inputs":[{"name":"tokenId","type":"uint256","internalType":"uint256"}],"outputs":[{"name":"","type":"address","internalType":"address"}],"stateMutability":"view"},{"type":"function","name":"permit","inputs":[{"name":"owner","type":"address","internalType":"address"},{"name":"spender","type":"address","internalType":"address"},{"name":"value","type":"uint256","internalType":"uint256"},{"name":"deadline","type":"uint256","internalType":"uint256"},{"name":"v","type":"uint8","internalType":"uint8"},{"name":"r","type":"bytes32","internalType":"bytes32"},{"name":"s","type":"bytes32","internalType":"bytes32"}],"outputs":[],"stateMutability":"nonpayable"},{"type":"function","name":"renounceOwnership","inputs":[],"outputs":[],"stateMutability":"nonpayable"},{"type":"function","name":"safeTransferFrom","inputs":[{"name":"from","type":"address","internalType":"address"},{"name":"to","type":"address","internalType":"address"},{"name":"tokenId","type":"uint256","internalType":"uint256"}],"outputs":[],"stateMutability":"nonpayable"},{"type":"function","name":"safeTransferFrom","inputs":[{"name":"from","type":"address","internalType":"address"},{"name":"to","type":"address","internalType":"address"},{"name":"tokenId","type":"uint256","internalType":"uint256"},{"name":"data","type":"bytes","internalType":"bytes"}],"outputs":[],"stateMutability":"nonpayable"},{"type":"function","name":"setApprovalForAll","inputs":[{"name":"operator","type":"address","internalType":"address"},{"name":"approved","type":"bool","internalType":"bool"}],"outputs":[],"stateMutability":"nonpayable"},{"type":"function","name":"setNFTMartket","inputs":[{"name":"nftMarketAddress","type":"address","internalType":"address"}],"outputs":[],"stateMutability":"nonpayable"},{"type":"function","name":"supportsInterface","inputs":[{"name":"interfaceId","type":"bytes4","internalType":"bytes4"}],"outputs":[{"name":"","type":"bool","internalType":"bool"}],"stateMutability":"view"},{"type":"function","name":"symbol","inputs":[],"outputs":[{"name":"","type":"string","internalType":"string"}],"stateMutability":"view"},{"type":"function","name":"tokenURI","inputs":[{"name":"tokenId","type":"uint256","internalType":"uint256"}],"outputs":[{"name":"","type":"string","internalType":"string"}],"stateMutability":"view"},{"type":"function","name":"transferFrom","inputs":[{"name":"from","type":"address","internalType":"address"},{"name":"to","type":"address","internalType":"address"},{"name":"tokenId","type":"uint256","internalType":"uint256"}],"outputs":[],"stateMutability":"nonpayable"},{"type":"function","name":"transferOwnership","inputs":[{"name":"newOwner","type":"address","internalType":"address"}],"outputs":[],"stateMutability":"nonpayable"},{"type":"event","name":"Approval","inputs":[{"name":"owner","type":"address","indexed":true,"internalType":"address"},{"name":"approved","type":"address","indexed":true,"internalType":"address"},{"name":"tokenId","type":"uint256","indexed":true,"internalType":"uint256"}],"anonymous":false},{"type":"event","name":"ApprovalForAll","inputs":[{"name":"owner","type":"address","indexed":true,"internalType":"address"},{"name":"operator","type":"address","indexed":true,"internalType":"address"},{"name":"approved","type":"bool","indexed":false,"internalType":"bool"}],"anonymous":false},{"type":"event","name":"EIP712DomainChanged","inputs":[],"anonymous":false},{"type":"event","name":"OwnershipTransferred","inputs":[{"name":"previousOwner","type":"address","indexed":true,"internalType":"address"},{"name":"newOwner","type":"address","indexed":true,"internalType":"address"}],"anonymous":false},{"type":"event","name":"Transfer","inputs":[{"name":"from","type":"address","indexed":true,"internalType":"address"},{"name":"to","type":"address","indexed":true,"internalType":"address"},{"name":"tokenId","type":"uint256","indexed":true,"internalType":"uint256"}],"anonymous":false},{"type":"error","name":"ECDSAInvalidSignature","inputs":[]},{"type":"error","name":"ECDSAInvalidSignatureLength","inputs":[{"name":"length","type":"uint256","internalType":"uint256"}]},{"type":"error","name":"ECDSAInvalidSignatureS","inputs":[{"name":"s","type":"bytes32","internalType":"bytes32"}]},{"type":"error","name":"ERC721IncorrectOwner","inputs":[{"name":"sender","type":"address","internalType":"address"},{"name":"tokenId","type":"uint256","internalType":"uint256"},{"name":"owner","type":"address","internalType":"address"}]},{"type":"error","name":"ERC721InsufficientApproval","inputs":[{"name":"operator","type":"address","internalType":"address"},{"name":"tokenId","type":"uint256","internalType":"uint256"}]},{"type":"error","name":"ERC721InvalidApprover","inputs":[{"name":"approver","type":"address","internalType":"address"}]},{"type":"error","name":"ERC721InvalidOperator","inputs":[{"name":"operator","type":"address","internalType":"address"}]},{"type":"error","name":"ERC721InvalidOwner","inputs":[{"name":"owner","type":"address","internalType":"address"}]},{"type":"error","name":"ERC721InvalidReceiver","inputs":[{"name":"receiver","type":"address","internalType":"address"}]},{"type":"error","name":"ERC721InvalidSender","inputs":[{"name":"sender","type":"address","internalType":"address"}]},{"type":"error","name":"ERC721NonexistentToken","inputs":[{"name":"tokenId","type":"uint256","internalType":"uint256"}]},{"type":"error","name":"ExpiredSignature","inputs":[{"name":"deadline","type":"uint256","internalType":"uint256"}]},{"type":"error","name":"InvalidShortString","inputs":[]},{"type":"error","name":"InvalidSigner","inputs":[{"name":"signer","type":"address","internalType":"address"},{"name":"owner","type":"address","internalType":"address"}]},{"type":"error","name":"OwnableInvalidOwner","inputs":[{"name":"owner","type":"address","internalType":"address"}]},{"type":"error","name":"OwnableUnauthorizedAccount","inputs":[{"name":"account","type":"address","internalType":"address"}]},{"type":"error","name":"StringTooLong","inputs":[{"name":"str","type":"string","internalType":"string"}]},{"type":"error","name":"onlyNFTMarket","inputs":[{"name":"account","type":"address","internalType":"address"}]}],"bytecode":{"object":"0x610180604090808252346105d75761207f803803809161001f82856105dc565b833981016060828203126105d75781516001600160401b0393908481116105d7578261004c918501610622565b90602093848101518681116105d75784610067918301610622565b93828201518781116105d75761007d9201610622565b93815195828701878110828211176105c1578352600180885282880196603160f81b88528551908382116105c1576000978854928484811c941680156105b7575b878510146105a357601f93848111610560575b508087858211600114610500578b916104f5575b50600019600383901b1c191690851b1789555b8051908582116104e15784548581811c911680156104d7575b888210146104c357908185849311610475575b508790858311600114610416578b9261040b575b5050600019600383901b1c191690841b1783555b33156103f35760068054336001600160a01b0319821681179092556001600160a01b03167f8be0079c531659141344cd1fd0a4f28419497f9722a3daafe3b4186f6b6457e08a80a361019d87610676565b98610120998a526101ad8b610820565b976101409889528681519101209a8b60e052519020996101009a808c524660a052875190878201927f8b73c3c69bb8fe3d512ecc4cf759cc79239f7b179b0ffacaa9a75d522b39400f84528983015260608201524660808201523060a082015260a0815260c08101818110878211176103df5788525190206080523060c05282600a55610160977f6e71edae12b1b97f4d1f60370fef10105fa2faae0126114a169c64845d6126c9895281519485116103cb576009548481811c911680156103c1575b878210146103ad57838111610369575b50859285116001146103055793945084929190836102fa575b50501b916000199060031b1c1916176009555b51926117199485610966863960805185611228015260a051856112f4015260c051856111f2015260e051856112770152518461129d01525183610888015251826108b2015251816102320152f35b015192503880610299565b6009815285812093958591601f198316915b8883831061034f5750505010610336575b505050811b016009556102ac565b015160001960f88460031b161c19169055388080610328565b858701518855909601959485019487935090810190610317565b600982528682208480880160051c8201928989106103a4575b0160051c019085905b828110610399575050610280565b83815501859061038b565b92508192610382565b634e487b7160e01b82526022600452602482fd5b90607f1690610270565b634e487b7160e01b81526041600452602490fd5b634e487b7160e01b8b52604160045260248bfd5b8551631e4fbdf760e01b815260048101899052602490fd5b015190503880610138565b868c52888c208794509190601f1984168d5b8b82821061045f5750508411610446575b505050811b01835561014c565b015160001960f88460031b161c19169055388080610439565b8385015186558a97909501949384019301610428565b909150858b52878b208580850160051c8201928a86106104ba575b918891869594930160051c01915b8281106104ac575050610124565b8d815585945088910161049e565b92508192610490565b634e487b7160e01b8b52602260045260248bfd5b90607f1690610111565b634e487b7160e01b8a52604160045260248afd5b9050890151386100e5565b8b8052888c2087935090601f1983168d8b8e5b838310610549575050508311610530575b5050811b0189556100f8565b8b015160001960f88460031b161c191690553880610524565b84015185558a969094019392830192018b8e610513565b8a8052878b208580840160051c8201928a851061059a575b0160051c019086905b82811061058f5750506100d1565b8c8155018690610581565b92508192610578565b634e487b7160e01b8a52602260045260248afd5b93607f16936100be565b634e487b7160e01b600052604160045260246000fd5b600080fd5b601f909101601f19168101906001600160401b038211908210176105c157604052565b60005b8381106106125750506000910152565b8181015183820152602001610602565b81601f820112156105d75780516001600160401b0381116105c15760405192610655601f8301601f1916602001856105dc565b818452602082840101116105d75761067391602080850191016105ff565b90565b8051602090818110156106ef5750601f8251116106af57808251920151908083106106a057501790565b82600019910360031b1b161790565b6044906106e19260405193849263305a27a960e01b8452806004850152825192839182602487015286860191016105ff565b601f01601f19168101030190fd5b906001600160401b0382116105c157600754926001938481811c91168015610816575b8382101461080057601f81116107c9575b5081601f84116001146107615750928293918392600094610756575b50501b916000199060031b1c19161760075560ff90565b01519250388061073f565b919083601f198116600760005284600020946000905b888383106107af5750505010610796575b505050811b0160075560ff90565b015160001960f88460031b161c19169055388080610788565b858701518855909601959485019487935090810190610777565b600760005284601f84600020920160051c820191601f860160051c015b8281106107f4575050610723565b600081550185906107e6565b634e487b7160e01b600052602260045260246000fd5b90607f1690610712565b80516020908181101561084a5750601f8251116106af57808251920151908083106106a057501790565b906001600160401b0382116105c157600854926001938481811c9116801561095b575b8382101461080057601f8111610924575b5081601f84116001146108bc57509282939183926000946108b1575b50501b916000199060031b1c19161760085560ff90565b01519250388061089a565b919083601f198116600860005284600020946000905b8883831061090a57505050106108f1575b505050811b0160085560ff90565b015160001960f88460031b161c191690553880806108e3565b8587015188559096019594850194879350908101906108d2565b600860005284601f84600020920160051c820191601f860160051c015b82811061094f57505061087e565b60008155018590610941565b90607f169061086d56fe6080604081815260048036101561001557600080fd5b600092833560e01c90816301ffc9a714610ce65750806306fdde0314610c35578063081812fc14610bfa578063095ea7b314610bd357806323b872dd14610bbb5780633644e51514610b9757806342842e0e14610b6e5780636352211e14610b3d5780636a62784214610a1657806370a08231146109c1578063715018a61461096457806384b0196e1461086c5780638da5cb5b1461084357806395d89b4114610767578063a22cb465146106c6578063a7da53901461068d578063b88d4fde14610607578063c87b56dd1461033c578063d505accf146101e9578063e985e9c5146101975763f2fde38b1461010a57600080fd5b3461019357602036600319011261019357610123610d9a565b9061012c61131a565b6001600160a01b0391821692831561017d575050600654826001600160601b0360a01b821617600655167f8be0079c531659141344cd1fd0a4f28419497f9722a3daafe3b4186f6b6457e08380a380f35b51631e4fbdf760e01b8152908101849052602490fd5b8280fd5b5050346101e557806003193601126101e55760ff816020936101b7610d9a565b6101bf610db5565b6001600160a01b0391821683526005875283832091168252855220549151911615158152f35b5080fd5b508290346101e55760e03660031901126101e557610205610d9a565b9061020e610db5565b6044359160643560843560ff811681036103385781421161032157875190602082017f0000000000000000000000000000000000000000000000000000000000000000815260018060a01b039283891694858c83015284881660608301528860808301528860a083015260c082015260c0815260e0810181811067ffffffffffffffff82111761030e578b525190206102dc916102d3916102ad6111ef565b908c519161190160f01b83526002830152602282015260c43591604260a43592206115ce565b9092919261165e565b168181036102f357866102f0878787611346565b80f35b8751637ba5ffb560e01b815292830152602482015260449150fd5b634e487b7160e01b8b526041875260248bfd5b8751632f4aa44f60e21b8152808401839052602490fd5b8680fd5b508290346101e5576020918260031936011261060457813561035d816111b4565b50845192829060095461036f81610e8c565b80875286888101946001938a6001821691826000146105e957505060011461058e575b61039e92500387610e4e565b855115610571578390849286957a184f03e93ff9f4daa797ed6e38ed64bf6a1f0100000000000000009081811015610564575b5050886d04ee2d6d415b85acef810000000080861015610556575b5050662386f26fc1000080851015610547575b506305f5e10080851015610538575b506127108085101561052a575b5050606483101561051a575b600a80931015610510575b908160218661045c60018d990161045461044b82610e70565b9a519a8b610e4e565b808a52610e70565b888c019990601f1901368b3750870101905b6104da575b505050506104d69361049a936104c5936104a96025948a519788955180928c880190610d52565b8401915180938a840190610d52565b0164173539b7b760d91b87820152036005810184520182610e4e565b925b51928284938452830190610d75565b0390f35b600019019083906f181899199a1a9b1b9c1cb0b131b232b360811b8282061a83530491821561050b5791908261046e565b610473565b9360010193610432565b9391606460029104920193610427565b95019490920491898061041b565b6008919694049301948a61040e565b6010919694049301948a6103ff565b96019590930492888b6103ec565b8b97500493508a806103d1565b505050506104d6915083519061058682610e00565b8152926104c7565b505060098652868887847f6e1540171b6c0c960b71a7020d9f60077f6af931a8bbf590da0223dacf75c7af5b8583106105d057505061039e9350820101610392565b80919294505483858d0101520191018990848a936105ba565b60ff1916885261039e94151560051b84010191506103929050565b80fd5b50903461019357608036600319011261019357610622610d9a565b61062a610db5565b846064359467ffffffffffffffff86116101e557366023870112156101e5578501359461066261065987610e70565b95519586610e4e565b85855236602487830101116101e557856102f096602460209301838801378501015260443591611065565b8334610604576020366003190112610604576001600160a01b036106af610d9a565b166001600160601b0360a01b600b541617600b5580f35b5090346101935780600319360112610193576106e0610d9a565b9060243591821515809303610763576001600160a01b031692831561074e5750338452600560205280842083855260205280842060ff1981541660ff8416179055519081527f17307eab39ab6107e8899845ad3d59bd9653f200f220920489ca2b5937696c3160203392a380f35b836024925191630b61174360e31b8352820152fd5b8480fd5b82843461060457806003193601126106045781519182826001936001549461078e86610e8c565b918285526020968760018216918260001461081c5750506001146107c0575b5050506104d692916104c7910385610e4e565b9190869350600183527fb10e2d527612073b26eecdfd717e6a320cf44b4afac2b0732d9fcbe2b7fa0cf65b82841061080457505050820101816104c76104d66107ad565b8054848a0186015288955087949093019281016107eb565b60ff19168782015293151560051b860190930193508492506104c791506104d690506107ad565b5050346101e557816003193601126101e55760065490516001600160a01b039091168152602090f35b5050346101e557816003193601126101e55790610908916108ac7f000000000000000000000000000000000000000000000000000000000000000061140a565b916108d67f000000000000000000000000000000000000000000000000000000000000000061150e565b6109158351936108e585610e00565b8385526020928151978897600f60f81b895260e060208a015260e0890190610d75565b9187830390880152610d75565b904660608601523060808601528260a086015284820360c0860152602080855193848152019401925b82811061094d57505050500390f35b83518552869550938101939281019260010161093e565b833461060457806003193601126106045761097d61131a565b600680546001600160a01b0319811690915581906001600160a01b03167f8be0079c531659141344cd1fd0a4f28419497f9722a3daafe3b4186f6b6457e08280a380f35b509134610604576020366003190112610604576001600160a01b036109e4610d9a565b16928315610a015750806020938392526003845220549051908152f35b91516322718ad960e21b815291820152602490fd5b50903461019357602036600319011261019357610a31610d9a565b600a5460001991828214610b2a5760018201600a556001600160a01b03908116908115610b1357828752600260205284872054168015159384610ae0575b508187526003602052848720600181540190558287526002602052848720826001600160601b0360a01b8254161790557fddf252ad1be2c89b69c2b068fc378daa952ba7f163c4a11628f55a4df523b3ef8780a4610acb578280f35b9160249251916339e3563760e11b8352820152fd5b600084815260046020526040902080546001600160a01b0319169055818852600360205285882090815401905538610a6f565b8451633250574960e11b8152808701889052602490fd5b634e487b7160e01b865260118552602486fd5b5091346106045760203660031901126106045750610b5d602092356111b4565b90516001600160a01b039091168152f35b5050346101e5576102f090610b8236610dcb565b91925192610b8f84610e00565b858452611065565b5050346101e557816003193601126101e557602090610bb46111ef565b9051908152f35b8334610604576102f0610bcd36610dcb565b91610ec6565b5050346101e557366003190112610604576102f0610bef610d9a565b339060243590611346565b503461019357602036600319011261019357918260209335610c1b816111b4565b50825283528190205490516001600160a01b039091168152f35b82843461060457806003193601126106045781519182828354610c5781610e8c565b908184526020956001918760018216918260001461081c575050600114610c8b575050506104d692916104c7910385610e4e565b91908693508280527f290decd9548b62a8d60345a988386fc84ba6bc95484008f6362f93160ef3e5635b828410610cce57505050820101816104c76104d66107ad565b8054848a018601528895508794909301928101610cb5565b92505034610193576020366003190112610193573563ffffffff60e01b811680910361019357602092506380ac58cd60e01b8114908115610d41575b8115610d30575b5015158152f35b6301ffc9a760e01b14905038610d29565b635b5e139f60e01b81149150610d22565b60005b838110610d655750506000910152565b8181015183820152602001610d55565b90602091610d8e81518092818552858086019101610d52565b601f01601f1916010190565b600435906001600160a01b0382168203610db057565b600080fd5b602435906001600160a01b0382168203610db057565b6060906003190112610db0576001600160a01b03906004358281168103610db057916024359081168103610db0579060443590565b6020810190811067ffffffffffffffff821117610e1c57604052565b634e487b7160e01b600052604160045260246000fd5b6040810190811067ffffffffffffffff821117610e1c57604052565b90601f8019910116810190811067ffffffffffffffff821117610e1c57604052565b67ffffffffffffffff8111610e1c57601f01601f191660200190565b90600182811c92168015610ebc575b6020831014610ea657565b634e487b7160e01b600052602260045260246000fd5b91607f1691610e9b565b6001600160a01b03918216929091831561104c57600092828452826020956002875260409684888820541696879133151580610fb6575b509060027fddf252ad1be2c89b69c2b068fc378daa952ba7f163c4a11628f55a4df523b3ef9284610f83575b858352600381528b8320805460010190558683525289812080546001600160a01b0319168517905580a41692838303610f625750505050565b6064945051926364283d7b60e01b8452600484015260248301526044820152fd5b600087815260046020526040902080546001600160a01b0319169055848352600381528b83208054600019019055610f29565b9193945091508061100b575b15610fd257859291879138610efd565b878688610fef576024915190637e27328960e01b82526004820152fd5b604491519063177e802f60e01b82523360048301526024820152fd5b503387148015611030575b80610fc25750858252600481523385898420541614610fc2565b5086825260058152878220338352815260ff8883205416611016565b604051633250574960e11b815260006004820152602490fd5b611070838383610ec6565b813b61107d575b50505050565b604051630a85bd0160e11b8082523360048301526001600160a01b039283166024830152604482019490945260806064820152602095929091169390929083906110cb906084830190610d75565b039285816000958187895af1849181611174575b5061113f575050503d600014611137573d6110f981610e70565b906111076040519283610e4e565b81528091843d92013e5b8051928361113257604051633250574960e11b815260048101849052602490fd5b019050fd5b506060611111565b919450915063ffffffff60e01b160361115c575038808080611077565b60249060405190633250574960e11b82526004820152fd5b9091508681813d83116111ad575b61118c8183610e4e565b8101031261076357516001600160e01b0319811681036107635790386110df565b503d611182565b6000818152600260205260409020546001600160a01b03169081156111d7575090565b60249060405190637e27328960e01b82526004820152fd5b307f00000000000000000000000000000000000000000000000000000000000000006001600160a01b031614806112f1575b1561124a577f000000000000000000000000000000000000000000000000000000000000000090565b60405160208101907f8b73c3c69bb8fe3d512ecc4cf759cc79239f7b179b0ffacaa9a75d522b39400f82527f000000000000000000000000000000000000000000000000000000000000000060408201527f000000000000000000000000000000000000000000000000000000000000000060608201524660808201523060a082015260a0815260c0810181811067ffffffffffffffff821117610e1c5760405251902090565b507f00000000000000000000000000000000000000000000000000000000000000004614611221565b6006546001600160a01b0316330361132e57565b60405163118cdaa760e01b8152336004820152602490fd5b61134f826111b4565b6001600160a01b03939091908416801515806113fe575b806113d7575b6113bf575083169282918491167f8c5be1e5ebec7d5bd14f71427d1e84f3dd0314c0f7b2291e5b200ac8c7c3b925600080a460005260046020526040600020906001600160601b0360a01b825416179055565b6024906040519063a9fbf51f60e01b82526004820152fd5b50848316600052600560205260406000208160005260205260ff604060002054161561136c565b50808584161415611366565b60ff81146114485760ff811690601f8211611436576040519161142c83610e32565b8252602082015290565b604051632cd44ac360e21b8152600490fd5b5060405160075481600061145b83610e8c565b808352926020906001908181169081156114ea5750600114611489575b505061148692500382610e4e565b90565b91509260076000527fa66cc928b5edb82af9bd49922954155ab7b0942694bea4ce44661d9a8736c688936000925b8284106114d257506114869450505081016020013880611478565b855487850183015294850194869450928101926114b7565b9150506020925061148694915060ff191682840152151560051b8201013880611478565b60ff81146115305760ff811690601f8211611436576040519161142c83610e32565b5060405160085481600061154383610e8c565b808352926020906001908181169081156114ea575060011461156d57505061148692500382610e4e565b91509260086000527ff3f7a9fe364faab93b216da50a3214154f22a0a2b415b23a84c8169e8b636ee3936000925b8284106115b657506114869450505081016020013880611478565b8554878501830152948501948694509281019261159b565b91907f7fffffffffffffffffffffffffffffff5d576e7357a4501ddfe92f46681b20a0841161165257926020929160ff608095604051948552168484015260408301526060820152600092839182805260015afa156116465780516001600160a01b0381161561163d57918190565b50809160019190565b604051903d90823e3d90fd5b50505060009160039190565b60048110156116cd5780611670575050565b6001810361168a5760405163f645eedf60e01b8152600490fd5b600281036116ab5760405163fce698f760e01b815260048101839052602490fd5b6003146116b55750565b602490604051906335e2f38360e21b82526004820152fd5b634e487b7160e01b600052602160045260246000fdfea2646970667358221220ba2eb5443c142706983ba1d778235f9b7f5db0dda7af6c66280307f029544ae564736f6c63430008190033","linkReferences":{}},"methodIdentifiers":{"DOMAIN_SEPARATOR()":"3644e515","approve(address,uint256)":"095ea7b3","balanceOf(address)":"70a08231","eip712Domain()":"84b0196e","getApproved(uint256)":"081812fc","isApprovedForAll(address,address)":"e985e9c5","mint(address)":"6a627842","name()":"06fdde03","owner()":"8da5cb5b","ownerOf(uint256)":"6352211e","permit(address,address,uint256,uint256,uint8,bytes32,bytes32)":"d505accf","renounceOwnership()":"715018a6","safeTransferFrom(address,address,uint256)":"42842e0e","safeTransferFrom(address,address,uint256,bytes)":"b88d4fde","setApprovalForAll(address,bool)":"a22cb465","setNFTMartket(address)":"a7da5390","supportsInterface(bytes4)":"01ffc9a7","symbol()":"95d89b41","tokenURI(uint256)":"c87b56dd","transferFrom(address,address,uint256)":"23b872dd","transferOwnership(address)":"f2fde38b"},"id":48}