{"abi":[{"type":"constructor","inputs":[{"name":"logic","type":"address","internalType":"address"},{"name":"admin","type":"address","internalType":"address"},{"name":"a","type":"bytes","internalType":"bytes"}],"stateMutability":"nonpayable"},{"type":"fallback","stateMutability":"payable"},{"type":"receive","stateMutability":"payable"},{"type":"function","name":"getAddminAddress","inputs":[],"outputs":[{"name":"","type":"address","internalType":"address"}],"stateMutability":"nonpayable"},{"type":"event","name":"AdminChanged","inputs":[{"name":"previousAdmin","type":"address","indexed":false,"internalType":"address"},{"name":"newAdmin","type":"address","indexed":false,"internalType":"address"}],"anonymous":false},{"type":"event","name":"Upgraded","inputs":[{"name":"implementation","type":"address","indexed":true,"internalType":"address"}],"anonymous":false},{"type":"error","name":"AddressEmptyCode","inputs":[{"name":"target","type":"address","internalType":"address"}]},{"type":"error","name":"ERC1967InvalidAdmin","inputs":[{"name":"admin","type":"address","internalType":"address"}]},{"type":"error","name":"ERC1967InvalidImplementation","inputs":[{"name":"implementation","type":"address","internalType":"address"}]},{"type":"error","name":"ERC1967NonPayable","inputs":[]},{"type":"error","name":"FailedInnerCall","inputs":[]},{"type":"error","name":"ProxyDeniedAdminAccess","inputs":[]}],"bytecode":{"object":"0x60a060405234801561001057600080fd5b50604051610efc380380610efc83398101604081905261002f916103b0565b828282828161003e82826100a2565b50508160405161004d9061034d565b6001600160a01b039091168152602001604051809103906000f080158015610079573d6000803e3d6000fd5b506001600160a01b031660805261009761009260805190565b610101565b50505050505061049c565b6100ab8261016f565b6040516001600160a01b038316907fbc7cd75a20ee27fd9adebab32041f755214dbc6bffa90cc0225b39da2e5c2d3b90600090a28051156100f5576100f082826101ee565b505050565b6100fd610265565b5050565b7f7e644d79422f17c01e4894b5f4f588d331ebfa28653d42ae832dc59e38c9798f610141600080516020610edc833981519152546001600160a01b031690565b604080516001600160a01b03928316815291841660208301520160405180910390a161016c81610286565b50565b806001600160a01b03163b6000036101aa57604051634c9c8ce360e01b81526001600160a01b03821660048201526024015b60405180910390fd5b807f360894a13ba1a3210667c828492db98dca3e2076cc3735a920a3ca505d382bbc5b80546001600160a01b0319166001600160a01b039290921691909117905550565b6060600080846001600160a01b03168460405161020b9190610480565b600060405180830381855af49150503d8060008114610246576040519150601f19603f3d011682016040523d82523d6000602084013e61024b565b606091505b50909250905061025c8583836102c5565b95945050505050565b34156102845760405163b398979f60e01b815260040160405180910390fd5b565b6001600160a01b0381166102b057604051633173bdd160e11b8152600060048201526024016101a1565b80600080516020610edc8339815191526101cd565b6060826102da576102d582610324565b61031d565b81511580156102f157506001600160a01b0384163b155b1561031a57604051639996b31560e01b81526001600160a01b03851660048201526024016101a1565b50805b9392505050565b8051156103345780518082602001fd5b604051630a12f52160e11b815260040160405180910390fd5b610524806109b883390190565b80516001600160a01b038116811461037157600080fd5b919050565b634e487b7160e01b600052604160045260246000fd5b60005b838110156103a757818101518382015260200161038f565b50506000910152565b6000806000606084860312156103c557600080fd5b6103ce8461035a565b92506103dc6020850161035a565b60408501519092506001600160401b03808211156103f957600080fd5b818601915086601f83011261040d57600080fd5b81518181111561041f5761041f610376565b604051601f8201601f19908116603f0116810190838211818310171561044757610447610376565b8160405282815289602084870101111561046057600080fd5b61047183602083016020880161038c565b80955050505050509250925092565b6000825161049281846020870161038c565b9190910192915050565b6080516104fc6104bc6000396000818160480152608501526104fc6000f3fe6080604052600436106100225760003560e01c80639d35b9451461003957610031565b366100315761002f610083565b005b61002f610083565b34801561004557600080fd5b507f00000000000000000000000000000000000000000000000000000000000000006040516001600160a01b03909116815260200160405180910390f35b7f00000000000000000000000000000000000000000000000000000000000000006001600160a01b031633036100f0576000356001600160e01b03191663278f794360e11b146100e6576040516334ad5dbb60e21b815260040160405180910390fd5b6100ee6100fd565b565b6100ee61012c565b905090565b60008061010d3660048184610387565b81019061011a91906103c7565b91509150610128828261013c565b5050565b6100ee610137610197565b6101ca565b610145826101ee565b6040516001600160a01b038316907fbc7cd75a20ee27fd9adebab32041f755214dbc6bffa90cc0225b39da2e5c2d3b90600090a280511561018f5761018a828261026a565b505050565b6101286102e0565b60006100f87f360894a13ba1a3210667c828492db98dca3e2076cc3735a920a3ca505d382bbc546001600160a01b031690565b3660008037600080366000845af43d6000803e8080156101e9573d6000f35b3d6000fd5b806001600160a01b03163b60000361022957604051634c9c8ce360e01b81526001600160a01b03821660048201526024015b60405180910390fd5b7f360894a13ba1a3210667c828492db98dca3e2076cc3735a920a3ca505d382bbc80546001600160a01b0319166001600160a01b0392909216919091179055565b6060600080846001600160a01b0316846040516102879190610497565b600060405180830381855af49150503d80600081146102c2576040519150601f19603f3d011682016040523d82523d6000602084013e6102c7565b606091505b50915091506102d78583836102ff565b95945050505050565b34156100ee5760405163b398979f60e01b815260040160405180910390fd5b6060826103145761030f8261035e565b610357565b815115801561032b57506001600160a01b0384163b155b1561035457604051639996b31560e01b81526001600160a01b0385166004820152602401610220565b50805b9392505050565b80511561036e5780518082602001fd5b604051630a12f52160e11b815260040160405180910390fd5b6000808585111561039757600080fd5b838611156103a457600080fd5b5050820193919092039150565b634e487b7160e01b600052604160045260246000fd5b600080604083850312156103da57600080fd5b82356001600160a01b03811681146103f157600080fd5b9150602083013567ffffffffffffffff8082111561040e57600080fd5b818501915085601f83011261042257600080fd5b813581811115610434576104346103b1565b604051601f8201601f19908116603f0116810190838211818310171561045c5761045c6103b1565b8160405282815288602084870101111561047557600080fd5b8260208601602083013760006020848301015280955050505050509250929050565b6000825160005b818110156104b8576020818601810151858301520161049e565b50600092019182525091905056fea2646970667358221220e32439802495980ced32029a72fee2c59c3ee32543c68da4cccf18c4fbc4cf0264736f6c63430008190033608060405234801561001057600080fd5b5060405161052438038061052483398101604081905261002f916100be565b806001600160a01b03811661005e57604051631e4fbdf760e01b81526000600482015260240160405180910390fd5b6100678161006e565b50506100ee565b600080546001600160a01b038381166001600160a01b0319831681178455604051919092169283917f8be0079c531659141344cd1fd0a4f28419497f9722a3daafe3b4186f6b6457e09190a35050565b6000602082840312156100d057600080fd5b81516001600160a01b03811681146100e757600080fd5b9392505050565b610427806100fd6000396000f3fe60806040526004361061004a5760003560e01c8063715018a61461004f5780638da5cb5b146100665780639623609d14610093578063ad3cb1cc146100a6578063f2fde38b146100e4575b600080fd5b34801561005b57600080fd5b50610064610104565b005b34801561007257600080fd5b506000546040516001600160a01b0390911681526020015b60405180910390f35b6100646100a1366004610272565b610118565b3480156100b257600080fd5b506100d7604051806040016040528060058152602001640352e302e360dc1b81525081565b60405161008a919061038e565b3480156100f057600080fd5b506100646100ff3660046103a8565b610187565b61010c6101ca565b61011660006101f7565b565b6101206101ca565b60405163278f794360e11b81526001600160a01b03841690634f1ef28690349061015090869086906004016103c5565b6000604051808303818588803b15801561016957600080fd5b505af115801561017d573d6000803e3d6000fd5b5050505050505050565b61018f6101ca565b6001600160a01b0381166101be57604051631e4fbdf760e01b8152600060048201526024015b60405180910390fd5b6101c7816101f7565b50565b6000546001600160a01b031633146101165760405163118cdaa760e01b81523360048201526024016101b5565b600080546001600160a01b038381166001600160a01b0319831681178455604051919092169283917f8be0079c531659141344cd1fd0a4f28419497f9722a3daafe3b4186f6b6457e09190a35050565b6001600160a01b03811681146101c757600080fd5b634e487b7160e01b600052604160045260246000fd5b60008060006060848603121561028757600080fd5b833561029281610247565b925060208401356102a281610247565b9150604084013567ffffffffffffffff808211156102bf57600080fd5b818601915086601f8301126102d357600080fd5b8135818111156102e5576102e561025c565b604051601f8201601f19908116603f0116810190838211818310171561030d5761030d61025c565b8160405282815289602084870101111561032657600080fd5b8260208601602083013760006020848301015280955050505050509250925092565b6000815180845260005b8181101561036e57602081850181015186830182015201610352565b506000602082860101526020601f19601f83011685010191505092915050565b6020815260006103a16020830184610348565b9392505050565b6000602082840312156103ba57600080fd5b81356103a181610247565b6001600160a01b03831681526040602082018190526000906103e990830184610348565b94935050505056fea2646970667358221220bc26cd7a873fcdd1760cf8b5a17a5eda6351e30db48515d3b9b5bd987e668a0864736f6c63430008190033b53127684a568b3173ae13b9f8a6016e243e63b6e8ee1178d6a717850b5d6103","linkReferences":{}},"methodIdentifiers":{"getAddminAddress()":"9d35b945"},"storageLayout":{"storage":[],"types":{}},"id":66}