{"abi":[{"type":"constructor","inputs":[],"stateMutability":"nonpayable"},{"type":"fallback","stateMutability":"payable"},{"type":"receive","stateMutability":"payable"},{"type":"function","name":"_setAdmin","inputs":[{"name":"_adminAddress","type":"address","internalType":"address"}],"outputs":[],"stateMutability":"nonpayable"},{"type":"function","name":"upgradeTo","inputs":[{"name":"_implementationAddress","type":"address","internalType":"address"}],"outputs":[],"stateMutability":"nonpayable"},{"type":"error","name":"adminAddressError","inputs":[{"name":"implementationAddress","type":"address","internalType":"address"}]},{"type":"error","name":"implementationAddressError","inputs":[{"name":"implementationAddress","type":"address","internalType":"address"}]}],"bytecode":{"object":"0x6080604052348015600f57600080fd5b5033603f603c60017fb53127684a568b3173ae13b9f8a6016e243e63b6e8ee1178d6a717850b5d61046061565b90565b80546001600160a01b0319166001600160a01b03929092169190911790556087565b81810381811115608157634e487b7160e01b600052601160045260246000fd5b92915050565b610352806100966000396000f3fe60806040526004361061002d5760003560e01c80633659cfe6146100445780633a74a767146100645761003c565b3661003c5761003a610084565b005b61003a610084565b34801561005057600080fd5b5061003a61005f3660046102a7565b6100e0565b34801561007057600080fd5b5061003a61007f3660046102a7565b6100e9565b61008c61019a565b6001600160a01b0316336001600160a01b0316146100b6576100b46100af6101d9565b610209565b565b60006100c536600481846102cb565b8101906100d291906102a7565b90506100dd8161022d565b50565b6100dd8161022d565b6001600160a01b0381163b1580610119575061010361019a565b6001600160a01b0316336001600160a01b031614155b156101475760405163687c27c560e11b81526001600160a01b03821660048201526024015b60405180910390fd5b8061017961017660017fb53127684a568b3173ae13b9f8a6016e243e63b6e8ee1178d6a717850b5d61046102f5565b90565b80546001600160a01b0319166001600160a01b039290921691909117905550565b60006101ca61017660017fb53127684a568b3173ae13b9f8a6016e243e63b6e8ee1178d6a717850b5d61046102f5565b546001600160a01b0316919050565b60006101ca61017660017f360894a13ba1a3210667c828492db98dca3e2076cc3735a920a3ca505d382bbd6102f5565b3660008037600080366000845af43d6000803e808015610228573d6000f35b3d6000fd5b6000816001600160a01b03163b11610263576040516305d2e97560e21b81526001600160a01b038216600482015260240161013e565b8061017961017660017f360894a13ba1a3210667c828492db98dca3e2076cc3735a920a3ca505d382bbd6102f5565b6001600160a01b03811681146100dd57600080fd5b6000602082840312156102b957600080fd5b81356102c481610292565b9392505050565b600080858511156102db57600080fd5b838611156102e857600080fd5b5050820193919092039150565b8181038181111561031657634e487b7160e01b600052601160045260246000fd5b9291505056fea2646970667358221220b1264859e267d4e67d9513d5d1b02bbda639fd030c3c811e63a02d63b907126f64736f6c63430008190033","linkReferences":{}},"methodIdentifiers":{"_setAdmin(address)":"3a74a767","upgradeTo(address)":"3659cfe6"},"id":49}