{"abi":[{"type":"function","name":"bankBalance","inputs":[{"name":"contractAddress","type":"address","internalType":"address"}],"outputs":[{"name":"","type":"uint256","internalType":"uint256"}],"stateMutability":"view"},{"type":"function","name":"deposit","inputs":[{"name":"contractAddress","type":"address","internalType":"address"},{"name":"_value","type":"uint256","internalType":"uint256"}],"outputs":[{"name":"","type":"bool","internalType":"bool"}],"stateMutability":"nonpayable"},{"type":"function","name":"tokensReceive","inputs":[{"name":"_from","type":"address","internalType":"address"},{"name":"","type":"address","internalType":"address"},{"name":"_value","type":"uint256","internalType":"uint256"},{"name":"","type":"bytes","internalType":"bytes"}],"outputs":[{"name":"","type":"bool","internalType":"bool"}],"stateMutability":"nonpayable"},{"type":"function","name":"withdraw","inputs":[{"name":"contractAddress","type":"address","internalType":"address"},{"name":"_value","type":"uint256","internalType":"uint256"}],"outputs":[{"name":"","type":"bool","internalType":"bool"}],"stateMutability":"nonpayable"}],"bytecode":{"object":"0x6080604052348015600f57600080fd5b506105d58061001f6000396000f3fe608060405234801561001057600080fd5b506004361061004c5760003560e01c8063454976a21461005157806347e7ef24146100795780639839fa4a1461008c578063f3fef3a3146100cc575b600080fd5b61006461005f36600461040c565b6100df565b60405190151581526020015b60405180910390f35b6100646100873660046104e8565b610122565b6100be61009a366004610512565b6001600160a01b031660009081526020818152604080832033845290915290205490565b604051908152602001610070565b6100646100da3660046104e8565b61024e565b336000908152602081815260408083206001600160a01b038816845290915281208054849190839061011290849061054a565b9091555060019695505050505050565b6040513360248201523060448201526064810182905260009081906001600160a01b0385169060840160408051601f198184030181529181526020820180516001600160e01b03166323b872dd60e01b17905251610180919061055d565b6000604051808303816000865af19150503d80600081146101bd576040519150601f19603f3d011682016040523d82523d6000602084013e6101c2565b606091505b505090508061020e5760405162461bcd60e51b8152602060048201526013602482015272151c985b9cd9995c919bdc9b4819985a5b1959606a1b60448201526064015b60405180910390fd5b6001600160a01b0384166000908152602081815260408083203384529091528120805485929061023f90849061054a565b90915550909150505b92915050565b6001600160a01b038216600090815260208181526040808320338452909152812054828110156102c05760405162461bcd60e51b815260206004820152601c60248201527f496e73756666696369656e74206163636f756e742062616c616e6365000000006044820152606401610205565b604051336024820152604481018490526000906001600160a01b0386169060640160408051601f198184030181529181526020820180516001600160e01b031663a9059cbb60e01b17905251610316919061055d565b6000604051808303816000865af19150503d8060008114610353576040519150601f19603f3d011682016040523d82523d6000602084013e610358565b606091505b505090508061039b5760405162461bcd60e51b815260206004820152600f60248201526e1dda5d1a191c985dc819985a5b1959608a1b6044820152606401610205565b6001600160a01b038516600090815260208181526040808320338452909152812080548692906103cc90849061058c565b909155509095945050505050565b80356001600160a01b03811681146103f157600080fd5b919050565b634e487b7160e01b600052604160045260246000fd5b6000806000806080858703121561042257600080fd5b61042b856103da565b9350610439602086016103da565b925060408501359150606085013567ffffffffffffffff8082111561045d57600080fd5b818701915087601f83011261047157600080fd5b813581811115610483576104836103f6565b604051601f8201601f19908116603f011681019083821181831017156104ab576104ab6103f6565b816040528281528a60208487010111156104c457600080fd5b82602086016020830137600060208483010152809550505050505092959194509250565b600080604083850312156104fb57600080fd5b610504836103da565b946020939093013593505050565b60006020828403121561052457600080fd5b61052d826103da565b9392505050565b634e487b7160e01b600052601160045260246000fd5b8082018082111561024857610248610534565b6000825160005b8181101561057e5760208186018101518583015201610564565b506000920191825250919050565b818103818111156102485761024861053456fea26469706673582212208d8863ef09172b771d25c55b8948dc5186824e749eeb0e40ad329b9304ac4d9a64736f6c63430008190033","linkReferences":{}},"methodIdentifiers":{"bankBalance(address)":"9839fa4a","deposit(address,uint256)":"47e7ef24","tokensReceive(address,address,uint256,bytes)":"454976a2","withdraw(address,uint256)":"f3fef3a3"},"id":30}