{"abi":[{"type":"constructor","inputs":[],"stateMutability":"nonpayable"},{"type":"function","name":"allowance","inputs":[{"name":"owner","type":"address","internalType":"address"},{"name":"spender","type":"address","internalType":"address"}],"outputs":[{"name":"","type":"uint256","internalType":"uint256"}],"stateMutability":"view"},{"type":"function","name":"approve","inputs":[{"name":"spender","type":"address","internalType":"address"},{"name":"value","type":"uint256","internalType":"uint256"}],"outputs":[{"name":"","type":"bool","internalType":"bool"}],"stateMutability":"nonpayable"},{"type":"function","name":"balanceOf","inputs":[{"name":"account","type":"address","internalType":"address"}],"outputs":[{"name":"","type":"uint256","internalType":"uint256"}],"stateMutability":"view"},{"type":"function","name":"decimals","inputs":[],"outputs":[{"name":"","type":"uint8","internalType":"uint8"}],"stateMutability":"view"},{"type":"function","name":"initialize","inputs":[{"name":"_symbol","type":"string","internalType":"string"},{"name":"_totalSupply","type":"uint256","internalType":"uint256"},{"name":"_perMint","type":"uint256","internalType":"uint256"},{"name":"_price","type":"uint256","internalType":"uint256"},{"name":"_factoryAddress","type":"address","internalType":"address"}],"outputs":[],"stateMutability":"nonpayable"},{"type":"function","name":"maxTotalSupply_","inputs":[],"outputs":[{"name":"","type":"uint256","internalType":"uint256"}],"stateMutability":"view"},{"type":"function","name":"mimt","inputs":[{"name":"mintUser","type":"address","internalType":"address"}],"outputs":[],"stateMutability":"payable"},{"type":"function","name":"mintAddress","inputs":[{"name":"","type":"uint256","internalType":"uint256"}],"outputs":[{"name":"","type":"address","internalType":"address"}],"stateMutability":"view"},{"type":"function","name":"name","inputs":[],"outputs":[{"name":"","type":"string","internalType":"string"}],"stateMutability":"view"},{"type":"function","name":"perMint","inputs":[],"outputs":[{"name":"","type":"uint256","internalType":"uint256"}],"stateMutability":"view"},{"type":"function","name":"price","inputs":[],"outputs":[{"name":"","type":"uint256","internalType":"uint256"}],"stateMutability":"view"},{"type":"function","name":"priceOfOne","inputs":[],"outputs":[{"name":"","type":"uint256","internalType":"uint256"}],"stateMutability":"view"},{"type":"function","name":"symbol","inputs":[],"outputs":[{"name":"","type":"string","internalType":"string"}],"stateMutability":"view"},{"type":"function","name":"totalSupply","inputs":[],"outputs":[{"name":"","type":"uint256","internalType":"uint256"}],"stateMutability":"view"},{"type":"function","name":"transfer","inputs":[{"name":"to","type":"address","internalType":"address"},{"name":"value","type":"uint256","internalType":"uint256"}],"outputs":[{"name":"","type":"bool","internalType":"bool"}],"stateMutability":"nonpayable"},{"type":"function","name":"transferFrom","inputs":[{"name":"from","type":"address","internalType":"address"},{"name":"to","type":"address","internalType":"address"},{"name":"value","type":"uint256","internalType":"uint256"}],"outputs":[{"name":"","type":"bool","internalType":"bool"}],"stateMutability":"nonpayable"},{"type":"function","name":"transferWithCallback","inputs":[{"name":"_to","type":"address","internalType":"address"},{"name":"_value","type":"uint256","internalType":"uint256"},{"name":"_data","type":"bytes","internalType":"bytes"}],"outputs":[],"stateMutability":"nonpayable"},{"type":"event","name":"Approval","inputs":[{"name":"owner","type":"address","indexed":true,"internalType":"address"},{"name":"spender","type":"address","indexed":true,"internalType":"address"},{"name":"value","type":"uint256","indexed":false,"internalType":"uint256"}],"anonymous":false},{"type":"event","name":"ERC20Mint","inputs":[{"name":"sender","type":"address","indexed":false,"internalType":"address"},{"name":"amount","type":"uint256","indexed":false,"internalType":"uint256"},{"name":"balance","type":"uint256","indexed":false,"internalType":"uint256"}],"anonymous":false},{"type":"event","name":"Initialized","inputs":[{"name":"version","type":"uint64","indexed":false,"internalType":"uint64"}],"anonymous":false},{"type":"event","name":"Transfer","inputs":[{"name":"from","type":"address","indexed":true,"internalType":"address"},{"name":"to","type":"address","indexed":true,"internalType":"address"},{"name":"value","type":"uint256","indexed":false,"internalType":"uint256"}],"anonymous":false},{"type":"event","name":"finishMint","inputs":[{"name":"sender","type":"address","indexed":false,"internalType":"address"},{"name":"amount","type":"uint256","indexed":false,"internalType":"uint256"},{"name":"balance","type":"uint256","indexed":false,"internalType":"uint256"}],"anonymous":false},{"type":"error","name":"ERC20InsufficientAllowance","inputs":[{"name":"spender","type":"address","internalType":"address"},{"name":"allowance","type":"uint256","internalType":"uint256"},{"name":"needed","type":"uint256","internalType":"uint256"}]},{"type":"error","name":"ERC20InsufficientBalance","inputs":[{"name":"sender","type":"address","internalType":"address"},{"name":"balance","type":"uint256","internalType":"uint256"},{"name":"needed","type":"uint256","internalType":"uint256"}]},{"type":"error","name":"ERC20InvalidApprover","inputs":[{"name":"approver","type":"address","internalType":"address"}]},{"type":"error","name":"ERC20InvalidReceiver","inputs":[{"name":"receiver","type":"address","internalType":"address"}]},{"type":"error","name":"ERC20InvalidSender","inputs":[{"name":"sender","type":"address","internalType":"address"}]},{"type":"error","name":"ERC20InvalidSpender","inputs":[{"name":"spender","type":"address","internalType":"address"}]},{"type":"error","name":"ERC20NotHave","inputs":[{"name":"","type":"address","internalType":"address"}]},{"type":"error","name":"ERC20OnlyOneMint","inputs":[{"name":"","type":"address","internalType":"address"}]},{"type":"error","name":"InvalidInitialization","inputs":[]},{"type":"error","name":"NotInitializing","inputs":[]}],"bytecode":{"object":"0x6080604052348015600f57600080fd5b506016601a565b60ca565b7ff0c57e16840df040f15088dc2f81fe391c3923bec73e23a9662efc9c229c6a00805468010000000000000000900460ff161560695760405163f92ee8a960e01b815260040160405180910390fd5b80546001600160401b039081161460c75780546001600160401b0319166001600160401b0390811782556040519081527fc7f505b2f371ae2175ee4913f4499e1f2633a7b5936321eed1cdaeb6115181d29060200160405180910390a15b50565b611335806100d96000396000f3fe6080604052600436106100fe5760003560e01c806370a08231116100955780639b3f3a4a116100645780639b3f3a4a146102ac578063a035b1fe146102bf578063a9059cbb146102d5578063d3139195146102f5578063dd62ed3e1461031557600080fd5b806370a0823114610229578063774521181461024957806395d89b411461025f57806397293bc31461027457600080fd5b806323b872dd116100d157806323b872dd146101b6578063313ce567146101d6578063517faa81146101f2578063631831fb1461020757600080fd5b806306fdde0314610103578063095ea7b31461012e5780630ed62b021461015e57806318160ddd14610182575b600080fd5b34801561010f57600080fd5b50610118610335565b6040516101259190610e67565b60405180910390f35b34801561013a57600080fd5b5061014e610149366004610e9d565b6103f8565b6040519015158152602001610125565b34801561016a57600080fd5b5061017460015481565b604051908152602001610125565b34801561018e57600080fd5b507f52c63247e1f47db19d5ce0460030c497f067ca4cebf71ba98eeadabe20bace0254610174565b3480156101c257600080fd5b5061014e6101d1366004610ec7565b610412565b3480156101e257600080fd5b5060405160128152602001610125565b3480156101fe57600080fd5b50610174610436565b34801561021357600080fd5b50610227610222366004610f8f565b61044d565b005b34801561023557600080fd5b5061017461024436600461100e565b6105b1565b34801561025557600080fd5b5061017460035481565b34801561026b57600080fd5b506101186105d9565b34801561028057600080fd5b5061029461028f366004611029565b610618565b6040516001600160a01b039091168152602001610125565b6102276102ba36600461100e565b610642565b3480156102cb57600080fd5b5061017460025481565b3480156102e157600080fd5b5061014e6102f0366004610e9d565b610896565b34801561030157600080fd5b50610227610310366004611042565b6108a4565b34801561032157600080fd5b506101746103303660046110ad565b61093b565b7f52c63247e1f47db19d5ce0460030c497f067ca4cebf71ba98eeadabe20bace0380546060916000805160206112e083398151915291610374906110e0565b80601f01602080910402602001604051908101604052809291908181526020018280546103a0906110e0565b80156103ed5780601f106103c2576101008083540402835291602001916103ed565b820191906000526020600020905b8154815290600101906020018083116103d057829003601f168201915b505050505091505090565b600033610406818585610985565b60019150505b92915050565b600033610420858285610992565b61042b8585856109f2565b506001949350505050565b60006002546001546104489190611130565b905090565b7ff0c57e16840df040f15088dc2f81fe391c3923bec73e23a9662efc9c229c6a008054600160401b810460ff16159067ffffffffffffffff166000811580156104935750825b905060008267ffffffffffffffff1660011480156104b05750303b155b9050811580156104be575080155b156104dc5760405163f92ee8a960e01b815260040160405180910390fd5b845467ffffffffffffffff19166001178555831561050657845460ff60401b1916600160401b1785555b6105356040518060400160405280600d81526020016c04661746f6372792d457263323609c1b8152508b610a51565b600188905560038990556002879055600080546001600160a01b0319166001600160a01b03881617905583156105a557845460ff60401b19168555604051600181527fc7f505b2f371ae2175ee4913f4499e1f2633a7b5936321eed1cdaeb6115181d29060200160405180910390a15b50505050505050505050565b6001600160a01b031660009081526000805160206112e0833981519152602052604090205490565b7f52c63247e1f47db19d5ce0460030c497f067ca4cebf71ba98eeadabe20bace0480546060916000805160206112e083398151915291610374906110e0565b6004818154811061062857600080fd5b6000918252602090912001546001600160a01b0316905081565b6000546001600160a01b031633146106925760405162461bcd60e51b815260206004820152600e60248201526d6d696e7420696e206661746f727960901b60448201526064015b60405180910390fd5b6003546001546004546106bb9291906106ac908290611130565b6106b69190611147565b610a63565b6001546004546106cc908290611130565b6106d69190611147565b600354101561070357604051630eda713360e21b81526001600160a01b0382166004820152602401610689565b61070c81610aa9565b15610735576040516369bdeb6560e01b81526001600160a01b0382166004820152602401610689565b600480546001808201835560008390527f8a35acfbc15ff81a39ae7d344fd709f28e8600b4aa8c65c6b64bfe7fe36bd19b90910180546001600160a01b0319166001600160a01b03851617905554905461078f9190611130565b600354036108935760005b60045481101561088f576107da600482815481106107ba576107ba61115a565b6000918252602090912001546001546001600160a01b0390911690610b08565b7f19e85b1f1a213cc8bac8f7813bf914eb703cd8e2a6ff72c32b6dbbe6eba7746a6004828154811061080e5761080e61115a565b9060005260206000200160009054906101000a90046001600160a01b031660015461085f600485815481106108455761084561115a565b6000918252602090912001546001600160a01b03166105b1565b604080516001600160a01b03909416845260208401929092529082015260600160405180910390a160010161079a565b5050565b50565b6000336104068185856109f2565b6108ae8383610896565b506001600160a01b0383163b15610936576040516322a4bb5160e11b81526001600160a01b0384169063454976a2906108f1903390879087908790600401611170565b6020604051808303816000875af1158015610910573d6000803e3d6000fd5b505050506040513d601f19601f8201168201806040525081019061093491906111ad565b505b505050565b6001600160a01b0391821660009081527f52c63247e1f47db19d5ce0460030c497f067ca4cebf71ba98eeadabe20bace016020908152604080832093909416825291909152205490565b6109368383836001610b3e565b600061099e848461093b565b9050600019811461093457818110156109e357604051637dc7a0d960e11b81526001600160a01b03841660048201526024810182905260448101839052606401610689565b61093484848484036000610b3e565b6001600160a01b038316610a1c57604051634b637e8f60e11b815260006004820152602401610689565b6001600160a01b038216610a465760405163ec442f0560e01b815260006004820152602401610689565b610936838383610c26565b610a59610d64565b61088f8282610daf565b604051602481018390526044810182905261088f9060640160408051601f198184030181529190526020810180516001600160e01b031662d81ed360e71b179052610e00565b6000805b600454811015610aff57826001600160a01b031660048281548110610ad457610ad461115a565b6000918252602090912001546001600160a01b031603610af75750600192915050565b600101610aad565b50600092915050565b6001600160a01b038216610b325760405163ec442f0560e01b815260006004820152602401610689565b61088f60008383610c26565b6000805160206112e08339815191526001600160a01b038516610b775760405163e602df0560e01b815260006004820152602401610689565b6001600160a01b038416610ba157604051634a1406b160e11b815260006004820152602401610689565b6001600160a01b03808616600090815260018301602090815260408083209388168352929052208390558115610c1f57836001600160a01b0316856001600160a01b03167f8c5be1e5ebec7d5bd14f71427d1e84f3dd0314c0f7b2291e5b200ac8c7c3b92585604051610c1691815260200190565b60405180910390a35b5050505050565b6000805160206112e08339815191526001600160a01b038416610c625781816002016000828254610c579190611147565b90915550610cd49050565b6001600160a01b03841660009081526020829052604090205482811015610cb55760405163391434e360e21b81526001600160a01b03861660048201526024810182905260448101849052606401610689565b6001600160a01b03851660009081526020839052604090209083900390555b6001600160a01b038316610cf2576002810180548390039055610d11565b6001600160a01b03831660009081526020829052604090208054830190555b826001600160a01b0316846001600160a01b03167fddf252ad1be2c89b69c2b068fc378daa952ba7f163c4a11628f55a4df523b3ef84604051610d5691815260200190565b60405180910390a350505050565b7ff0c57e16840df040f15088dc2f81fe391c3923bec73e23a9662efc9c229c6a0054600160401b900460ff16610dad57604051631afcd79f60e31b815260040160405180910390fd5b565b610db7610d64565b6000805160206112e08339815191527f52c63247e1f47db19d5ce0460030c497f067ca4cebf71ba98eeadabe20bace03610df1848261121f565b5060048101610934838261121f565b80516a636f6e736f6c652e6c6f67602083016000808483855afa5050505050565b6000815180845260005b81811015610e4757602081850181015186830182015201610e2b565b506000602082860101526020601f19601f83011685010191505092915050565b602081526000610e7a6020830184610e21565b9392505050565b80356001600160a01b0381168114610e9857600080fd5b919050565b60008060408385031215610eb057600080fd5b610eb983610e81565b946020939093013593505050565b600080600060608486031215610edc57600080fd5b610ee584610e81565b9250610ef360208501610e81565b9150604084013590509250925092565b634e487b7160e01b600052604160045260246000fd5b600067ffffffffffffffff80841115610f3457610f34610f03565b604051601f8501601f19908116603f01168101908282118183101715610f5c57610f5c610f03565b81604052809350858152868686011115610f7557600080fd5b858560208301376000602087830101525050509392505050565b600080600080600060a08688031215610fa757600080fd5b853567ffffffffffffffff811115610fbe57600080fd5b8601601f81018813610fcf57600080fd5b610fde88823560208401610f19565b95505060208601359350604086013592506060860135915061100260808701610e81565b90509295509295909350565b60006020828403121561102057600080fd5b610e7a82610e81565b60006020828403121561103b57600080fd5b5035919050565b60008060006060848603121561105757600080fd5b61106084610e81565b925060208401359150604084013567ffffffffffffffff81111561108357600080fd5b8401601f8101861361109457600080fd5b6110a386823560208401610f19565b9150509250925092565b600080604083850312156110c057600080fd5b6110c983610e81565b91506110d760208401610e81565b90509250929050565b600181811c908216806110f457607f821691505b60208210810361111457634e487b7160e01b600052602260045260246000fd5b50919050565b634e487b7160e01b600052601160045260246000fd5b808202811582820484141761040c5761040c61111a565b8082018082111561040c5761040c61111a565b634e487b7160e01b600052603260045260246000fd5b6001600160a01b03858116825284166020820152604081018390526080606082018190526000906111a390830184610e21565b9695505050505050565b6000602082840312156111bf57600080fd5b81518015158114610e7a57600080fd5b601f821115610936576000816000526020600020601f850160051c810160208610156111f85750805b601f850160051c820191505b8181101561121757828155600101611204565b505050505050565b815167ffffffffffffffff81111561123957611239610f03565b61124d8161124784546110e0565b846111cf565b602080601f831160018114611282576000841561126a5750858301515b600019600386901b1c1916600185901b178555611217565b600085815260208120601f198616915b828110156112b157888601518255948401946001909101908401611292565b50858210156112cf5787850151600019600388901b60f8161c191681555b5050505050600190811b0190555056fe52c63247e1f47db19d5ce0460030c497f067ca4cebf71ba98eeadabe20bace00a26469706673582212206c6852cd3f307f7e8f8e44d7c149be66cd923249dfd828a36bcd849495ab93fb64736f6c63430008190033","linkReferences":{}},"methodIdentifiers":{"allowance(address,address)":"dd62ed3e","approve(address,uint256)":"095ea7b3","balanceOf(address)":"70a08231","decimals()":"313ce567","initialize(string,uint256,uint256,uint256,address)":"631831fb","maxTotalSupply_()":"77452118","mimt(address)":"9b3f3a4a","mintAddress(uint256)":"97293bc3","name()":"06fdde03","perMint()":"0ed62b02","price()":"a035b1fe","priceOfOne()":"517faa81","symbol()":"95d89b41","totalSupply()":"18160ddd","transfer(address,uint256)":"a9059cbb","transferFrom(address,address,uint256)":"23b872dd","transferWithCallback(address,uint256,bytes)":"d3139195"},"id":31}