{"abi":[{"type":"function","name":"buyNFT","inputs":[{"name":"contractAddress","type":"address","internalType":"address"},{"name":"tokenId","type":"uint256","internalType":"uint256"},{"name":"payErc20Contract","type":"address","internalType":"address"}],"outputs":[],"stateMutability":"nonpayable"},{"type":"function","name":"list","inputs":[{"name":"contractAddress","type":"address","internalType":"address"},{"name":"tokenId","type":"uint256","internalType":"uint256"},{"name":"listPric","type":"uint256","internalType":"uint256"}],"outputs":[],"stateMutability":"nonpayable"},{"type":"function","name":"listPrice","inputs":[{"name":"contractAddress","type":"address","internalType":"address"},{"name":"tokenId","type":"uint256","internalType":"uint256"}],"outputs":[{"name":"","type":"uint256","internalType":"uint256"}],"stateMutability":"view"},{"type":"function","name":"onERC721Received","inputs":[{"name":"","type":"address","internalType":"address"},{"name":"","type":"address","internalType":"address"},{"name":"","type":"uint256","internalType":"uint256"},{"name":"","type":"bytes","internalType":"bytes"}],"outputs":[{"name":"","type":"bytes4","internalType":"bytes4"}],"stateMutability":"pure"},{"type":"function","name":"ownerOf","inputs":[{"name":"contractAddress","type":"address","internalType":"address"},{"name":"tokenId","type":"uint256","internalType":"uint256"}],"outputs":[{"name":"","type":"address","internalType":"address"}],"stateMutability":"view"},{"type":"function","name":"permitBuy","inputs":[{"name":"nftAddress","type":"address","internalType":"address"},{"name":"tokenId","type":"uint256","internalType":"uint256"},{"name":"erc20Address","type":"address","internalType":"address"},{"name":"owner","type":"address","internalType":"address"},{"name":"spender","type":"address","internalType":"address"},{"name":"_value","type":"uint256","internalType":"uint256"},{"name":"deadline","type":"uint256","internalType":"uint256"},{"name":"sign2","type":"tuple","internalType":"struct NFTMarket.SignModal","components":[{"name":"v","type":"uint8","internalType":"uint8"},{"name":"r","type":"bytes32","internalType":"bytes32"},{"name":"s","type":"bytes32","internalType":"bytes32"}]},{"name":"sign1","type":"tuple","internalType":"struct NFTMarket.SignModal","components":[{"name":"v","type":"uint8","internalType":"uint8"},{"name":"r","type":"bytes32","internalType":"bytes32"},{"name":"s","type":"bytes32","internalType":"bytes32"}]}],"outputs":[],"stateMutability":"nonpayable"},{"type":"function","name":"permitList","inputs":[{"name":"contractAddress","type":"address","internalType":"address"},{"name":"price","type":"uint256","internalType":"uint256"},{"name":"tokenId","type":"uint256","internalType":"uint256"},{"name":"deadline","type":"uint256","internalType":"uint256"},{"name":"v","type":"uint8","internalType":"uint8"},{"name":"r","type":"bytes32","internalType":"bytes32"},{"name":"s","type":"bytes32","internalType":"bytes32"}],"outputs":[],"stateMutability":"nonpayable"},{"type":"function","name":"tokensReceive","inputs":[{"name":"_from","type":"address","internalType":"address"},{"name":"_to","type":"address","internalType":"address"},{"name":"_value","type":"uint256","internalType":"uint256"},{"name":"_data","type":"bytes","internalType":"bytes"}],"outputs":[{"name":"","type":"bool","internalType":"bool"}],"stateMutability":"nonpayable"},{"type":"event","name":"buyOrder","inputs":[{"name":"from","type":"address","indexed":true,"internalType":"address"},{"name":"contractAddress","type":"address","indexed":true,"internalType":"address"},{"name":"tokenId","type":"uint256","indexed":true,"internalType":"uint256"},{"name":"listPrice","type":"uint256","indexed":false,"internalType":"uint256"}],"anonymous":false},{"type":"event","name":"listOrder","inputs":[{"name":"from","type":"address","indexed":true,"internalType":"address"},{"name":"contractAddress","type":"address","indexed":true,"internalType":"address"},{"name":"tokenId","type":"uint256","indexed":true,"internalType":"uint256"},{"name":"listPrice","type":"uint256","indexed":false,"internalType":"uint256"}],"anonymous":false}],"bytecode":{"object":"0x60a08060405234603f577f49ecf333e5b8c95c40fdafc95c1ad136e8914a8fb55e9dc8bb01eaa83a2df9ad608052610f3990816100458239608051815050f35b600080fdfe6080604052600436101561001257600080fd5b6000803560e01c8063150b7a02146109f15780631f29d2dc146109ab578063454976a2146107a15780636607abf6146102035780638b199bc7146101bc578063c9961e7a146100d3578063dda342bb146100a95763ffe50b891461007557600080fd5b346100a65760603660031901126100a6576100a3610091610a15565b610099610a2b565b9060243590610c70565b80f35b80fd5b50346100a65760603660031901126100a6576100a36100c6610a15565b6044359060243590610b8a565b50346100a65760e03660031901126100a6576100ed610a15565b6044359060843560ff811681036101b757600180546001600160a01b0384166001600160a01b03198216811790925585929190831617803b156101a85760405163d505accf60e01b815233600482015230602482015260448101869052606480359082015260ff92909216608483015260a480359083015260c48035908301528290829060e490829084905af180156101ac57610194575b50506100a39160243591610b8a565b61019d90610a41565b6101a8578238610185565b8280fd5b6040513d84823e3d90fd5b600080fd5b50346100a65760403660031901126100a6576020906001906040906001600160a01b036101e7610a15565b1681526002845281812060243582528452200154604051908152f35b50346100a6576101a03660031901126100a65761021e610a15565b90610227610a2b565b6064356001600160a01b038116900361079d576084356001600160a01b038116900361079d5760603660e319011261079d5760405161026581610a6b565b60e43560ff811681036107995781526101043560208201526101243560408201526060366101431901126101a85760405161029f81610a6b565b610144359060ff8216820361076e578181526101643560208201526040610184359101526b2130b9b29b9918aa37b5b2b760a11b60206040516102e181610a87565b600c81520152603160f81b60206040516102fa81610a87565b600181520152604051907f8b73c3c69bb8fe3d512ecc4cf759cc79239f7b179b0ffacaa9a75d522b39400f60208301527f6ccfce68ff28ed05677cd3d5c1eeb6ef6bfce748e4a76371c5699b141b993cac60408301527fc89efdaa54c0f20c7adf612882df0950f5a951637e0307cdcb4c672f298b8bc660608301524660808301523060a083015260a082528160c081011067ffffffffffffffff60c0840111176107855760c082016040819052600180546001600160a01b0319166001600160a01b038916908117909155638da5cb5b60e01b82526020919060049082905afa91821561077a578592610734575b50604051907f6e71edae12b1b97f4d1f60370fef10105fa2faae0126114a169c64845d6126c9602083015260018060a01b0383166040830152336060830152602435608083015260243560a083015260c43560c083015260c082528160e081011067ffffffffffffffff60e0840111176106d75760e0820160408190528251602080850191909120633644e51560e01b8352916004816001600160a01b038c165afa9283156107295787936106eb575b506040519261190160f01b6020850152602284015260428301526042825281608081011067ffffffffffffffff6080840111176106d7576080808360ff89948360209701604052825187840120848401521660a08201526101643560c08201526101843560e08201528380520160015afa156105ea5783516001600160a01b0390811691168103610692571561064d5760c4354210156105f95780516020820151604090920151916001600160a01b0384169160ff16823b156105f55760405163d505accf60e01b8152606480356001600160a01b03908116600484015260848035909116602484015260a48035604485015260c480359385019390935260ff9490941690830152918101929092528101929092528390829081838160e4810103925af180156105ea576105d7575b506100a3919260243590610c70565b916105e46100a393610a41565b916105c8565b6040513d85823e3d90fd5b8580fd5b60405162461bcd60e51b815260206004820152602660248201527f4d7946756e6374696f6e3a207369676e6564207472616e73616374696f6e20656044820152651e1c1a5c995960d21b6064820152608490fd5b60405162461bcd60e51b815260206004820152601860248201527f45434453413a20696e76616c6964207369676e617475726500000000000000006044820152606490fd5b60405162461bcd60e51b815260206004820152601d60248201527f4d7946756e6374696f6e3a20696e76616c6964207369676e61747572650000006044820152606490fd5b634e487b7160e01b86526041600452602486fd5b9092506020813d602011610721575b8161070a60209360e08401610aa3565b8101031261071d5760e001519138610499565b8680fd5b3d91506106fa565b6040513d89823e3d90fd5b9091506020813d602011610772575b8161075360209360c08401610aa3565b8101031261076e5760c06107679101610b5e565b90386103e9565b8480fd5b3d9150610743565b6040513d87823e3d90fd5b634e487b7160e01b85526041600452602485fd5b8380fd5b5080fd5b50346100a6576107b036610ac5565b928394929451946040856020978101031261079957604051946040860186811067ffffffffffffffff8211176106d75760405260406107f0888301610b5e565b808852910151878701818152916001600160a01b0391908216151590816109a1575b501561096857808751168251908752600289526040872090875288528460016040882001540361092c57908161086b949392885116825190885260028a5260408820908852895280604088205416975116905191610d97565b156108f857336bffffffffffffffffffffffff60a01b8354161782556040519263a9059cbb60e01b845260048401526024830152828260448184335af19081156108ec57506108bf575b5060405160018152f35b6108de90823d84116108e5575b6108d68183610aa3565b810190610b72565b50386108b5565b503d6108cc565b604051903d90823e3d90fd5b60405162461bcd60e51b815260048101859052600c60248201526b1d185b9cd9995c8819985a5b60a21b6044820152606490fd5b60405162461bcd60e51b81526004810189905260146024820152734e6f20657175616c73206c69737420707269636560601b6044820152606490fd5b60405162461bcd60e51b81526004810189905260116024820152706461746120656e747279206572726f727360781b6044820152606490fd5b9050151538610812565b50346100a65760403660031901126100a65760209060406109ca610a15565b6001600160a01b039081168352600284528183206024358452845291205460405191168152f35b50346100a657610a0036610ac5565b505050506020604051630a85bd0160e11b8152f35b600435906001600160a01b03821682036101b757565b604435906001600160a01b03821682036101b757565b67ffffffffffffffff8111610a5557604052565b634e487b7160e01b600052604160045260246000fd5b6060810190811067ffffffffffffffff821117610a5557604052565b6040810190811067ffffffffffffffff821117610a5557604052565b90601f8019910116810190811067ffffffffffffffff821117610a5557604052565b9060806003198301126101b7576001600160a01b039160043583811681036101b7579260243590811681036101b757916044359167ffffffffffffffff6064358181116101b757826023820112156101b7578060040135918211610a555760405192610b3b601f8401601f191660200185610aa3565b828452602483830101116101b75781600092602460209301838601378301015290565b51906001600160a01b03821682036101b757565b908160209103126101b7575180151581036101b75790565b600180546001600160a01b03929092166001600160a01b03199283168117909155919290600090833b1561079d5760408051632142170760e11b8152336004820152306024820152604481018790529092908181606481838a5af18015610c66579260019285928795610c57575b509087825260026020528282208983526020528282209033908254161790558681526002602052818120888252602052200155519081527f9403cc472149b57dc853960dcefe862ece534877fe046522f9b075e046c6923660203392a4565b610c6090610a41565b38610bf8565b84513d84823e3d90fd5b6001600160a01b0381811660008181526002602090815260408083208784528252808320600181015484546001600160a01b031916998716998a178555905482516323b872dd60e01b8152336004820152961660248701526044860181905296979396959194909391929185908290606490829086905af1918215610d8c5791610d6f575b5015610d355790610d2b7fcd8a64c4d006e94cc9ec7c0907e485b0ee6b17e0bff0f7a75b6840b73111a964939287339130610d97565b50519283523392a4565b815162461bcd60e51b8152600481018490526013602482015272135bdb995e48151c985b9cd9995c8819985a5b606a1b6044820152606490fd5b610d869150843d86116108e5576108d68183610aa3565b38610cf5565b8451903d90823e3d90fd5b929160009260018060a01b0380931680855260209160028352604094858720858852845280868820541615610ecc5782875260028452858720858852845280868820541690821614610e92576bffffffffffffffffffffffff60a01b9682886001541617600155823b1561071d578551632142170760e11b81526001600160a01b0391821660048201529116602482015260448101849052858160648183865af18015610e8857610e76575b50849581600196526002835284872084885283528487209081541690558552600281528285209185525282200155600190565b94610e82600196610a41565b94610e43565b85513d88823e3d90fd5b845162461bcd60e51b8152600481018490526013602482015272313abcb2b91034b9903737ba1039b2b63632b960691b6044820152606490fd5b855162461bcd60e51b815260048101859052601060248201526f1d5cd95c881a5cc81b9bdd081b1a5cdd60821b6044820152606490fdfea2646970667358221220ce4dd0c7101781b1b914e876deba9e5cddc303f90d08033ff5e3294fded1c6b164736f6c63430008190033","linkReferences":{}},"methodIdentifiers":{"buyNFT(address,uint256,address)":"ffe50b89","list(address,uint256,uint256)":"dda342bb","listPrice(address,uint256)":"8b199bc7","onERC721Received(address,address,uint256,bytes)":"150b7a02","ownerOf(address,uint256)":"1f29d2dc","permitBuy(address,uint256,address,address,address,uint256,uint256,(uint8,bytes32,bytes32),(uint8,bytes32,bytes32))":"6607abf6","permitList(address,uint256,uint256,uint256,uint8,bytes32,bytes32)":"c9961e7a","tokensReceive(address,address,uint256,bytes)":"454976a2"},"id":49}