{"abi":[{"type":"function","name":"buyNFT","inputs":[{"name":"contractAddress","type":"address","internalType":"address"},{"name":"tokenId","type":"uint256","internalType":"uint256"},{"name":"payErc20Contract","type":"address","internalType":"address"}],"outputs":[],"stateMutability":"nonpayable"},{"type":"function","name":"list","inputs":[{"name":"contractAddress","type":"address","internalType":"address"},{"name":"tokenId","type":"uint256","internalType":"uint256"},{"name":"listPric","type":"uint256","internalType":"uint256"}],"outputs":[],"stateMutability":"nonpayable"},{"type":"function","name":"listPrice","inputs":[{"name":"contractAddress","type":"address","internalType":"address"},{"name":"tokenId","type":"uint256","internalType":"uint256"}],"outputs":[{"name":"","type":"uint256","internalType":"uint256"}],"stateMutability":"view"},{"type":"function","name":"onERC721Received","inputs":[{"name":"","type":"address","internalType":"address"},{"name":"","type":"address","internalType":"address"},{"name":"","type":"uint256","internalType":"uint256"},{"name":"","type":"bytes","internalType":"bytes"}],"outputs":[{"name":"","type":"bytes4","internalType":"bytes4"}],"stateMutability":"pure"},{"type":"function","name":"ownerOf","inputs":[{"name":"contractAddress","type":"address","internalType":"address"},{"name":"tokenId","type":"uint256","internalType":"uint256"}],"outputs":[{"name":"","type":"address","internalType":"address"}],"stateMutability":"view"},{"type":"function","name":"permitBuy","inputs":[{"name":"contractAddress","type":"address","internalType":"address"},{"name":"tokenId","type":"uint256","internalType":"uint256"},{"name":"deadline","type":"uint256","internalType":"uint256"},{"name":"v","type":"uint8","internalType":"uint8"},{"name":"r","type":"bytes32","internalType":"bytes32"},{"name":"s","type":"bytes32","internalType":"bytes32"}],"outputs":[],"stateMutability":"nonpayable"},{"type":"function","name":"tokensReceive","inputs":[{"name":"_from","type":"address","internalType":"address"},{"name":"_to","type":"address","internalType":"address"},{"name":"_value","type":"uint256","internalType":"uint256"},{"name":"_data","type":"bytes","internalType":"bytes"}],"outputs":[{"name":"","type":"bool","internalType":"bool"}],"stateMutability":"nonpayable"},{"type":"event","name":"buyOrder","inputs":[{"name":"from","type":"address","indexed":true,"internalType":"address"},{"name":"contractAddress","type":"address","indexed":true,"internalType":"address"},{"name":"tokenId","type":"uint256","indexed":true,"internalType":"uint256"},{"name":"listPrice","type":"uint256","indexed":false,"internalType":"uint256"}],"anonymous":false},{"type":"event","name":"listOrder","inputs":[{"name":"from","type":"address","indexed":true,"internalType":"address"},{"name":"contractAddress","type":"address","indexed":true,"internalType":"address"},{"name":"tokenId","type":"uint256","indexed":true,"internalType":"uint256"},{"name":"listPrice","type":"uint256","indexed":false,"internalType":"uint256"}],"anonymous":false}],"bytecode":{"object":"0x60a06040527f49ecf333e5b8c95c40fdafc95c1ad136e8914a8fb55e9dc8bb01eaa83a2df9ad608052348015603357600080fd5b50608051610e3c61004c60003960005050610e3c6000f3fe608060405234801561001057600080fd5b506004361061007d5760003560e01c80637bd2fc7d1161005b5780637bd2fc7d1461010c5780638b199bc714610121578063dda342bb14610142578063ffe50b891461015557600080fd5b8063150b7a02146100825780631f29d2dc146100be578063454976a2146100e9575b600080fd5b6100a0610090366004610b9f565b630a85bd0160e11b949350505050565b6040516001600160e01b031990911681526020015b60405180910390f35b6100d16100cc366004610c63565b610168565b6040516001600160a01b0390911681526020016100b5565b6100fc6100f7366004610b9f565b610190565b60405190151581526020016100b5565b61011f61011a366004610c8f565b61035d565b005b61013461012f366004610c63565b610373565b6040519081526020016100b5565b61011f610150366004610cf1565b61039e565b61011f610163366004610d26565b61048e565b6001600160a01b03918216600090815260026020908152604080832093835292905220541690565b600080828060200190518101906101a79190610d68565b80519091506001600160a01b0316158015906101c7575060008160200151115b61020c5760405162461bcd60e51b81526020600482015260116024820152706461746120656e747279206572726f727360781b60448201526064015b60405180910390fd5b8361021f82600001518360200151610373565b146102635760405162461bcd60e51b81526020600482015260146024820152734e6f20657175616c73206c69737420707269636560601b6044820152606401610203565b600061027782600001518360200151610168565b9050600061028f87846000015185602001518b6105e6565b9050806102cd5760405162461bcd60e51b815260206004820152600c60248201526b1d185b9cd9995c8819985a5b60a21b6044820152606401610203565b600080546001600160a01b0319163390811790915560405163a9059cbb60e01b81526001600160a01b03841660048201526024810188905263a9059cbb906044016020604051808303816000875af115801561032d573d6000803e3d6000fd5b505050506040513d601f19601f820116820180604052508101906103519190610dc0565b50979650505050505050565b61036b86868686868661075f565b505050505050565b6001600160a01b03919091166000908152600260209081526040808320938352929052206001015490565b600180546001600160a01b0319166001600160a01b038516908117909155604051632142170760e11b8152336004820152306024820152604481018490526342842e0e90606401600060405180830381600087803b1580156103ff57600080fd5b505af1158015610413573d6000803e3d6000fd5b505050506001600160a01b038316600081815260026020908152604080832086845282529182902080546001600160a01b03191633908117825560019091018590559151848152859392917f9403cc472149b57dc853960dcefe862ece534877fe046522f9b075e046c69236910160405180910390a4505050565b600061049a8484610373565b600080546001600160a01b0319166001600160a01b0385811691821783558781168352600260209081526040808520898652909152928390205492516323b872dd60e01b815233600482015292166024830152604482018390529192506323b872dd906064016020604051808303816000875af115801561051f573d6000803e3d6000fd5b505050506040513d601f19601f820116820180604052508101906105439190610dc0565b6105855760405162461bcd60e51b8152602060048201526013602482015272135bdb995e48151c985b9cd9995c8819985a5b606a1b6044820152606401610203565b610591308585336105e6565b5082846001600160a01b0316336001600160a01b03167fcd8a64c4d006e94cc9ec7c0907e485b0ee6b17e0bff0f7a75b6840b73111a964846040516105d891815260200190565b60405180910390a450505050565b6000806105f38585610168565b6001600160a01b03160361063c5760405162461bcd60e51b815260206004820152601060248201526f1d5cd95c881a5cc81b9bdd081b1a5cdd60821b6044820152606401610203565b816001600160a01b03166106508585610168565b6001600160a01b03160361069c5760405162461bcd60e51b8152602060048201526013602482015272313abcb2b91034b9903737ba1039b2b63632b960691b6044820152606401610203565b600180546001600160a01b0319166001600160a01b03868116918217909255604051632142170760e11b81528783166004820152918416602483015260448201859052906342842e0e90606401600060405180830381600087803b15801561070357600080fd5b505af1158015610717573d6000803e3d6000fd5b505050506001600160a01b0393909316600090815260026020908152604080832094835293905291822080546001600160a01b03191681556001908101929092555092915050565b604080518082018252600c81526b2130b9b29b9918aa37b5b2b760a11b6020918201528151808301835260018152603160f81b9082015281517f8b73c3c69bb8fe3d512ecc4cf759cc79239f7b179b0ffacaa9a75d522b39400f918101919091527f6ccfce68ff28ed05677cd3d5c1eeb6ef6bfce748e4a76371c5699b141b993cac918101919091527fc89efdaa54c0f20c7adf612882df0950f5a951637e0307cdcb4c672f298b8bc660608201524660808201523060a082015260009060c00160408051808303601f190181528282528051602091820120600180546001600160a01b0319166001600160a01b038d16908117909155638da5cb5b60e01b85529251909450600093638da5cb5b9260048083019391928290030181865afa15801561088f573d6000803e3d6000fd5b505050506040513d601f19601f820116820180604052508101906108b39190610de9565b604080517f6e71edae12b1b97f4d1f60370fef10105fa2faae0126114a169c64845d6126c96020808301919091526001600160a01b03841682840152336060830152608082018b905260a082018b905260c08083018b90528351808403909101815260e08301909352825192019190912061190160f01b610100830152610102820185905261012282018190529192506000906101420160408051601f198184030181528282528051602091820120600080855291840180845281905260ff8b169284019290925260608301899052608083018890529092509060019060a0016020604051602081039080840390855afa1580156109b5573d6000803e3d6000fd5b505050602060405103519050836001600160a01b0316816001600160a01b031614610a225760405162461bcd60e51b815260206004820152601d60248201527f4d7946756e6374696f6e3a20696e76616c6964207369676e61747572650000006044820152606401610203565b6001600160a01b038116610a785760405162461bcd60e51b815260206004820152601860248201527f45434453413a20696e76616c6964207369676e617475726500000000000000006044820152606401610203565b884210610ad65760405162461bcd60e51b815260206004820152602660248201527f4d7946756e6374696f6e3a207369676e6564207472616e73616374696f6e20656044820152651e1c1a5c995960d21b6064820152608401610203565b6001546040516335313c2160e11b81523360048201526001600160a01b0390911690636a62784290602401600060405180830381600087803b158015610b1b57600080fd5b505af1158015610b2f573d6000803e3d6000fd5b505050505050505050505050505050565b6001600160a01b0381168114610b5557600080fd5b50565b634e487b7160e01b600052604160045260246000fd5b604051601f8201601f1916810167ffffffffffffffff81118282101715610b9757610b97610b58565b604052919050565b60008060008060808587031215610bb557600080fd5b8435610bc081610b40565b9350602085810135610bd181610b40565b935060408601359250606086013567ffffffffffffffff80821115610bf557600080fd5b818801915088601f830112610c0957600080fd5b813581811115610c1b57610c1b610b58565b610c2d601f8201601f19168501610b6e565b91508082528984828501011115610c4357600080fd5b808484018584013760008482840101525080935050505092959194509250565b60008060408385031215610c7657600080fd5b8235610c8181610b40565b946020939093013593505050565b60008060008060008060c08789031215610ca857600080fd5b8635610cb381610b40565b95506020870135945060408701359350606087013560ff81168114610cd757600080fd5b9598949750929560808101359460a0909101359350915050565b600080600060608486031215610d0657600080fd5b8335610d1181610b40565b95602085013595506040909401359392505050565b600080600060608486031215610d3b57600080fd5b8335610d4681610b40565b9250602084013591506040840135610d5d81610b40565b809150509250925092565b600060408284031215610d7a57600080fd5b6040516040810181811067ffffffffffffffff82111715610d9d57610d9d610b58565b6040528251610dab81610b40565b81526020928301519281019290925250919050565b600060208284031215610dd257600080fd5b81518015158114610de257600080fd5b9392505050565b600060208284031215610dfb57600080fd5b8151610de281610b4056fea264697066735822122047d414afa58db10bc0ef19515a384051fbe2a7d64d707db0931183b69175bdd064736f6c63430008190033","linkReferences":{}},"methodIdentifiers":{"buyNFT(address,uint256,address)":"ffe50b89","list(address,uint256,uint256)":"dda342bb","listPrice(address,uint256)":"8b199bc7","onERC721Received(address,address,uint256,bytes)":"150b7a02","ownerOf(address,uint256)":"1f29d2dc","permitBuy(address,uint256,uint256,uint8,bytes32,bytes32)":"7bd2fc7d","tokensReceive(address,address,uint256,bytes)":"454976a2"},"id":49}