{"abi":[{"type":"constructor","inputs":[],"stateMutability":"nonpayable"},{"type":"function","name":"_DOMAIN_SEPARATOR","inputs":[],"outputs":[{"name":"","type":"bytes32","internalType":"bytes32"}],"stateMutability":"view"},{"type":"function","name":"_permitVaild","inputs":[{"name":"owner","type":"address","internalType":"address"},{"name":"spender","type":"address","internalType":"address"},{"name":"value","type":"uint256","internalType":"uint256"},{"name":"deadline","type":"uint256","internalType":"uint256"},{"name":"v","type":"uint8","internalType":"uint8"},{"name":"r","type":"bytes32","internalType":"bytes32"},{"name":"s","type":"bytes32","internalType":"bytes32"}],"outputs":[],"stateMutability":"nonpayable"},{"type":"function","name":"buyNFT","inputs":[{"name":"contractAddress","type":"address","internalType":"address"},{"name":"tokenId","type":"uint256","internalType":"uint256"},{"name":"payErc20Contract","type":"address","internalType":"address"}],"outputs":[],"stateMutability":"nonpayable"},{"type":"function","name":"eip712Domain","inputs":[],"outputs":[{"name":"fields","type":"bytes1","internalType":"bytes1"},{"name":"name","type":"string","internalType":"string"},{"name":"version","type":"string","internalType":"string"},{"name":"chainId","type":"uint256","internalType":"uint256"},{"name":"verifyingContract","type":"address","internalType":"address"},{"name":"salt","type":"bytes32","internalType":"bytes32"},{"name":"extensions","type":"uint256[]","internalType":"uint256[]"}],"stateMutability":"view"},{"type":"function","name":"list","inputs":[{"name":"contractAddress","type":"address","internalType":"address"},{"name":"tokenId","type":"uint256","internalType":"uint256"},{"name":"listPric","type":"uint256","internalType":"uint256"}],"outputs":[],"stateMutability":"nonpayable"},{"type":"function","name":"listPrice","inputs":[{"name":"contractAddress","type":"address","internalType":"address"},{"name":"tokenId","type":"uint256","internalType":"uint256"}],"outputs":[{"name":"","type":"uint256","internalType":"uint256"}],"stateMutability":"view"},{"type":"function","name":"onERC721Received","inputs":[{"name":"","type":"address","internalType":"address"},{"name":"","type":"address","internalType":"address"},{"name":"","type":"uint256","internalType":"uint256"},{"name":"","type":"bytes","internalType":"bytes"}],"outputs":[{"name":"","type":"bytes4","internalType":"bytes4"}],"stateMutability":"pure"},{"type":"function","name":"ownerOf","inputs":[{"name":"contractAddress","type":"address","internalType":"address"},{"name":"tokenId","type":"uint256","internalType":"uint256"}],"outputs":[{"name":"","type":"address","internalType":"address"}],"stateMutability":"view"},{"type":"function","name":"permitBuy","inputs":[{"name":"nftAddress","type":"address","internalType":"address"},{"name":"tokenId","type":"uint256","internalType":"uint256"},{"name":"erc20Address","type":"address","internalType":"address"},{"name":"owner","type":"address","internalType":"address"},{"name":"spender","type":"address","internalType":"address"},{"name":"_value","type":"uint256","internalType":"uint256"},{"name":"deadline","type":"uint256","internalType":"uint256"},{"name":"sign2","type":"tuple","internalType":"struct NFTMarket.SignModal","components":[{"name":"v","type":"uint8","internalType":"uint8"},{"name":"r","type":"bytes32","internalType":"bytes32"},{"name":"s","type":"bytes32","internalType":"bytes32"}]},{"name":"sign1","type":"tuple","internalType":"struct NFTMarket.SignModal","components":[{"name":"v","type":"uint8","internalType":"uint8"},{"name":"r","type":"bytes32","internalType":"bytes32"},{"name":"s","type":"bytes32","internalType":"bytes32"}]}],"outputs":[],"stateMutability":"nonpayable"},{"type":"function","name":"permitList","inputs":[{"name":"owner","type":"address","internalType":"address"},{"name":"contractAddress","type":"address","internalType":"address"},{"name":"price","type":"uint256","internalType":"uint256"},{"name":"tokenId","type":"uint256","internalType":"uint256"},{"name":"deadline","type":"uint256","internalType":"uint256"},{"name":"v","type":"uint8","internalType":"uint8"},{"name":"r","type":"bytes32","internalType":"bytes32"},{"name":"s","type":"bytes32","internalType":"bytes32"}],"outputs":[],"stateMutability":"nonpayable"},{"type":"function","name":"tokensReceive","inputs":[{"name":"_from","type":"address","internalType":"address"},{"name":"_to","type":"address","internalType":"address"},{"name":"_value","type":"uint256","internalType":"uint256"},{"name":"_data","type":"bytes","internalType":"bytes"}],"outputs":[{"name":"","type":"bool","internalType":"bool"}],"stateMutability":"nonpayable"},{"type":"event","name":"EIP712DomainChanged","inputs":[],"anonymous":false},{"type":"event","name":"buyOrder","inputs":[{"name":"from","type":"address","indexed":true,"internalType":"address"},{"name":"contractAddress","type":"address","indexed":true,"internalType":"address"},{"name":"tokenId","type":"uint256","indexed":true,"internalType":"uint256"},{"name":"listPrice","type":"uint256","indexed":false,"internalType":"uint256"}],"anonymous":false},{"type":"event","name":"listOrder","inputs":[{"name":"from","type":"address","indexed":true,"internalType":"address"},{"name":"contractAddress","type":"address","indexed":true,"internalType":"address"},{"name":"tokenId","type":"uint256","indexed":true,"internalType":"uint256"},{"name":"listPrice","type":"uint256","indexed":false,"internalType":"uint256"}],"anonymous":false},{"type":"error","name":"ECDSAInvalidSignature","inputs":[]},{"type":"error","name":"ECDSAInvalidSignatureLength","inputs":[{"name":"length","type":"uint256","internalType":"uint256"}]},{"type":"error","name":"ECDSAInvalidSignatureS","inputs":[{"name":"s","type":"bytes32","internalType":"bytes32"}]},{"type":"error","name":"ExpiredSignature","inputs":[{"name":"deadline","type":"uint256","internalType":"uint256"}]},{"type":"error","name":"InvalidShortString","inputs":[]},{"type":"error","name":"InvalidSigner","inputs":[{"name":"signer","type":"address","internalType":"address"},{"name":"owner","type":"address","internalType":"address"}]},{"type":"error","name":"StringTooLong","inputs":[{"name":"str","type":"string","internalType":"string"}]}],"bytecode":{"object":"0x61018080604052346101725761001481610177565b6009815260208101906813919513585c9ad95d60ba1b82526040519161003983610177565b6001835260208301603160f81b815261005183610192565b9161012092835261006185610351565b93610140948552519020938460e05251902091610100938385524660a0526040519360208501917f8b73c3c69bb8fe3d512ecc4cf759cc79239f7b179b0ffacaa9a75d522b39400f8352604086015260608501524660808501523060a085015260a0845260c084019380851060018060401b0386111761015c57846040525190206080523060c052610160917f6e71edae12b1b97f4d1f60370fef10105fa2faae0126114a169c64845d6126c9835261150494856104ec8639608051856110c1015260a0518561118d015260c0518561108b015260e0518561111001525184611136015251836102370152518261026101525181610c3b0152f35b634e487b7160e01b600052604160045260246000fd5b600080fd5b604081019081106001600160401b0382111761015c57604052565b8051602091908281101561022c575090601f8251116101cd57808251920151908083106101be57501790565b82600019910360031b1b161790565b90604051809263305a27a960e01b82528060048301528251908160248401526000935b828510610213575050604492506000838284010152601f80199101168101030190fd5b84810182015186860160440152938101938593506101f0565b6001600160401b03811161015c576000928354926001938481811c91168015610347575b8382101461033357601f8111610300575b5081601f841160011461029d57509282939183928694610292575b50501b916000199060031b1c191617905560ff90565b01519250388061027c565b919083601f1981168780528488209488905b888383106102e657505050106102cd575b505050811b01905560ff90565b015160001960f88460031b161c191690553880806102c0565b8587015188559096019594850194879350908101906102af565b85805284601f848820920160051c820191601f860160051c015b828110610328575050610261565b87815501859061031a565b634e487b7160e01b86526022600452602486fd5b90607f1690610250565b8051602090818110156103da5750601f82511161037b57808251920151908083106101be57501790565b90604051809263305a27a960e01b82528060048301528251908160248401526000935b8285106103c1575050604492506000838284010152601f80199101168101030190fd5b848101820151868601604401529381019385935061039e565b9192916001600160401b03811161015c5760019182548381811c911680156104e1575b828210146104cb57601f8111610495575b5080601f831160011461044b575081929394600092610440575b5050600019600383901b1c191690821b17905560ff90565b015190503880610428565b90601f198316958460005282600020926000905b88821061047e57505083859697106102cd57505050811b01905560ff90565b80878596829496860151815501950193019061045f565b8360005283601f83600020920160051c820191601f850160051c015b8281106104bf57505061040e565b600081550184906104b1565b634e487b7160e01b600052602260045260246000fd5b90607f16906103fd56fe6080604052600436101561001257600080fd5b6000803560e01c8063150b7a0214610a205780631f29d2dc146109da578063454976a2146107bf5780636607abf61461034457806384b0196e146102215780638b199bc7146101da578063c6f49de114610191578063dc0c81b51461016e578063dda342bb14610144578063e4ea66ba146100ca5763ffe50b891461009657600080fd5b346100c75760603660031901126100c7576100c46100b2610a44565b6100ba610a5a565b9060243590610def565b80f35b80fd5b50346100c7576101003660031901126100c7576100e5610a44565b6100ed610a70565b60643560a4359260ff8416840361013f57600380546001600160a01b0319166001600160a01b0385161790556100c4936101369160e4359160c435916084359086903090610c15565b60443591610d05565b600080fd5b50346100c75760603660031901126100c7576100c4610161610a44565b6044359060243590610d05565b50346100c757806003193601126100c7576020610189611088565b604051908152f35b50346100c75760e03660031901126100c7576101ab610a44565b6101b3610a70565b6084359160ff8316830361013f576100c49260c4359260a435926064359160443591610c15565b50346100c75760403660031901126100c7576020906001906040906001600160a01b03610205610a44565b1681526004845281812060243582528452200154604051908152f35b50346100c757806003193601126100c75761025b7f00000000000000000000000000000000000000000000000000000000000000006111b3565b906102857f00000000000000000000000000000000000000000000000000000000000000006112db565b9060405190602090602083019383851067ffffffffffffffff86111761032e5792849260206102e488966102d698604052858552604051988998600f60f81b8a5260e0858b015260e08a0190610ba9565b9088820360408a0152610ba9565b924660608801523060808801528460a088015286840360c088015251928381520193925b82811061031757505050500390f35b835185528695509381019392810192600101610308565b634e487b7160e01b600052604160045260246000fd5b50346100c7576101a03660031901126100c75761035f610a44565b90610368610a5a565b6064356001600160a01b03811681036107bb576084356001600160a01b03811681036107b75760603660e31901126107b757604051916103a783610a9a565b60e43560ff8116810361079c5783526101043560208401526101243560408401526060366101431901126107b3576040516103e181610a9a565b60ff6101443516610144350361079c576101443581526101643560208201526040610184359101526004602060018060a01b038816806001600160601b0360a01b600354161760035560405192838092638da5cb5b60e01b82525afa9081156107a857869161076a575b5060405160208101907f6e71edae12b1b97f4d1f60370fef10105fa2faae0126114a169c64845d6126c9825260018060a01b0383166040820152336060820152602435608082015260243560a082015260c43560c082015260c081526104b081610ad2565b51902060405163dc0c81b560e01b815290602082600481305afa91821561075f57889261072b575b506040519161190160f01b6020840152602283015260428201526042815280608081011067ffffffffffffffff60808301111761071757608081810160408190528251602080850191909120825260ff610144351660a08501526101643560c08501526101843560e09094019390935288805288919060015afa1561070c5785516001600160a01b03908116911681036106c757156106825760c43542101561062e5760ff835116926040602082015191015160018060a01b03861691823b1561062a5760e492889594928692604051988997889663d505accf60e01b885260018060a01b0316600488015260018060a01b0316602487015260a435604487015260c4356064870152608486015260a485015260c48401525af1801561061f5761060c575b506100c4919260243590610def565b916106196100c493610a86565b916105fd565b6040513d85823e3d90fd5b8780fd5b60405162461bcd60e51b815260206004820152602660248201527f4d7946756e6374696f6e3a207369676e6564207472616e73616374696f6e20656044820152651e1c1a5c995960d21b6064820152608490fd5b60405162461bcd60e51b815260206004820152601860248201527f45434453413a20696e76616c6964207369676e617475726500000000000000006044820152606490fd5b60405162461bcd60e51b815260206004820152601d60248201527f4d7946756e6374696f6e3a20696e76616c6964207369676e61747572650000006044820152606490fd5b6040513d87823e3d90fd5b634e487b7160e01b87526041600452602487fd5b9091506020813d602011610757575b8161074760209383610aee565b8101031261062a575190386104d8565b3d915061073a565b6040513d8a823e3d90fd5b90506020813d6020116107a0575b8161078560209383610aee565b8101031261079c5761079690610be9565b3861044b565b8580fd5b3d9150610778565b6040513d88823e3d90fd5b8480fd5b8380fd5b8280fd5b50346100c7576107ce36610b10565b92839492945194604085602097810103126107b757604051946040860186811067ffffffffffffffff8211176109c657604052604061080e888301610be9565b808852910151878701818152916001600160a01b0391908216151590816109bc575b5015610983578087511682519087526004895260408720908752885284600160408820015403610947579081610889949392885116825190885260048a5260408820908852895280604088205416975116905191610f1c565b1561091357336001600160601b0360a01b60025416176002556040519263a9059cbb60e01b845260048401526024830152828260448184335af190811561090757506108da575b5060405160018152f35b6108f990823d8411610900575b6108f18183610aee565b810190610bfd565b50386108d0565b503d6108e7565b604051903d90823e3d90fd5b60405162461bcd60e51b815260048101859052600c60248201526b1d185b9cd9995c8819985a5b60a21b6044820152606490fd5b60405162461bcd60e51b81526004810189905260146024820152734e6f20657175616c73206c69737420707269636560601b6044820152606490fd5b60405162461bcd60e51b81526004810189905260116024820152706461746120656e747279206572726f727360781b6044820152606490fd5b9050151538610830565b634e487b7160e01b86526041600452602486fd5b50346100c75760403660031901126100c75760209060406109f9610a44565b6001600160a01b039081168352600484528183206024358452845291205460405191168152f35b50346100c757610a2f36610b10565b505050506020604051630a85bd0160e11b8152f35b600435906001600160a01b038216820361013f57565b604435906001600160a01b038216820361013f57565b602435906001600160a01b038216820361013f57565b67ffffffffffffffff811161032e57604052565b6060810190811067ffffffffffffffff82111761032e57604052565b6040810190811067ffffffffffffffff82111761032e57604052565b60e0810190811067ffffffffffffffff82111761032e57604052565b90601f8019910116810190811067ffffffffffffffff82111761032e57604052565b90608060031983011261013f576001600160a01b0391600435838116810361013f5792602435908116810361013f57916044359167ffffffffffffffff60643581811161013f578260238201121561013f57806004013591821161032e5760405192610b86601f8401601f191660200185610aee565b8284526024838301011161013f5781600092602460209301838601378301015290565b919082519283825260005b848110610bd5575050826000602080949584010152601f8019910116010190565b602081830181015184830182015201610bb4565b51906001600160a01b038216820361013f57565b9081602091031261013f5751801515810361013f5790565b94929593919095804211610ced57916042610cb99492610cc296946040519060208201927f0000000000000000000000000000000000000000000000000000000000000000845260018060a01b0380809c169c8d604086015216606084015280608084015260a083015260c082015260c08152610c9181610ad2565b519020610c9c611088565b906040519161190160f01b835260028301526022820152206113b4565b90929192611449565b1690808203610ccf575050565b6044925060405191637ba5ffb560e01b835260048301526024820152fd5b60249060405190632f4aa44f60e21b82526004820152fd5b600380546001600160a01b03929092166001600160a01b03199283168117909155919290600090833b15610deb5760408051632142170760e11b8152336004820152306024820152604481018790529092908181606481838a5af18015610de1579260019285928795610dd2575b509087825260046020528282208983526020528282209033908254161790558681526004602052818120888252602052200155519081527f9403cc472149b57dc853960dcefe862ece534877fe046522f9b075e046c6923660203392a4565b610ddb90610a86565b38610d73565b84513d84823e3d90fd5b5080fd5b6001600160a01b03818116600081815260046020818152604080842088855282528084206001810154600280546001600160a01b0319169b89169b8c179055905482516323b872dd60e01b815233958101959095529096166024840152604483018690529697939694959094939092919085908290606490829086905af1918215610f115791610ef4575b5015610eba5790610eb07fcd8a64c4d006e94cc9ec7c0907e485b0ee6b17e0bff0f7a75b6840b73111a964939287339130610f1c565b50519283523392a4565b815162461bcd60e51b8152600481018490526013602482015272135bdb995e48151c985b9cd9995c8819985a5b606a1b6044820152606490fd5b610f0b9150843d8611610900576108f18183610aee565b38610e7a565b8451903d90823e3d90fd5b929160009260018060a01b0380931680855260049060209282845260409586882086895285528087892054161561105257828852838552868820868952855280878920541690821614611019576001600160601b0360a01b9782896003541617600355823b1561062a578651632142170760e11b81526001600160a01b0391821685820190815291909216602082015260408101869052879082908190606001038183865af1801561100f57610ffd575b50859681600197528284528588208589528452858820908154169055865281528285209185525282200155600190565b95611009600197610a86565b95610fcd565b86513d89823e3d90fd5b855162461bcd60e51b81528084018590526013602482015272313abcb2b91034b9903737ba1039b2b63632b960691b6044820152606490fd5b865162461bcd60e51b8152808501869052601060248201526f1d5cd95c881a5cc81b9bdd081b1a5cdd60821b6044820152606490fd5b307f00000000000000000000000000000000000000000000000000000000000000006001600160a01b0316148061118a575b156110e3577f000000000000000000000000000000000000000000000000000000000000000090565b60405160208101907f8b73c3c69bb8fe3d512ecc4cf759cc79239f7b179b0ffacaa9a75d522b39400f82527f000000000000000000000000000000000000000000000000000000000000000060408201527f000000000000000000000000000000000000000000000000000000000000000060608201524660808201523060a082015260a0815260c0810181811067ffffffffffffffff82111761032e5760405251902090565b507f000000000000000000000000000000000000000000000000000000000000000046146110ba565b60ff81146111f15760ff811690601f82116111df57604051916111d583610ab6565b8252602082015290565b604051632cd44ac360e21b8152600490fd5b50604051600080549060018260011c90600184169384156112d1575b60209485841081146112bd578387528694939291811561129d5750600114611241575b505061123e92500382610aee565b90565b60008080527f290decd9548b62a8d60345a988386fc84ba6bc95484008f6362f93160ef3e56395935091905b81831061128557505061123e93508201013880611230565b8554878401850152948501948694509183019161126d565b91505061123e94925060ff191682840152151560051b8201013880611230565b634e487b7160e01b85526022600452602485fd5b91607f169161120d565b60ff81146112fd5760ff811690601f82116111df57604051916111d583610ab6565b506040516000600190600154918260011c90600184169384156113aa575b60209485841081146112bd578387528694939291811561129d575060011461134b57505061123e92500382610aee565b9093915060016000527fb10e2d527612073b26eecdfd717e6a320cf44b4afac2b0732d9fcbe2b7fa0cf6936000915b81831061139257505061123e93508201013880611230565b8554878401850152948501948694509183019161137a565b91607f169161131b565b9291907f7fffffffffffffffffffffffffffffff5d576e7357a4501ddfe92f46681b20a0831161143d579161140a9160209360405195869094939260ff6060936080840197845216602083015260408201520152565b826000938492838052039060015afa156109075780516001600160a01b0381161561143457918190565b50809160019190565b50600093600393509050565b60048110156114b8578061145b575050565b600181036114755760405163f645eedf60e01b8152600490fd5b600281036114965760405163fce698f760e01b815260048101839052602490fd5b6003146114a05750565b602490604051906335e2f38360e21b82526004820152fd5b634e487b7160e01b600052602160045260246000fdfea264697066735822122020b9603300c5c04d3c4c207f844764812215b03f9d95d5cbee21bc05f92acdc664736f6c63430008190033","linkReferences":{}},"methodIdentifiers":{"_DOMAIN_SEPARATOR()":"dc0c81b5","_permitVaild(address,address,uint256,uint256,uint8,bytes32,bytes32)":"c6f49de1","buyNFT(address,uint256,address)":"ffe50b89","eip712Domain()":"84b0196e","list(address,uint256,uint256)":"dda342bb","listPrice(address,uint256)":"8b199bc7","onERC721Received(address,address,uint256,bytes)":"150b7a02","ownerOf(address,uint256)":"1f29d2dc","permitBuy(address,uint256,address,address,address,uint256,uint256,(uint8,bytes32,bytes32),(uint8,bytes32,bytes32))":"6607abf6","permitList(address,address,uint256,uint256,uint256,uint8,bytes32,bytes32)":"e4ea66ba","tokensReceive(address,address,uint256,bytes)":"454976a2"},"id":49}