{"abi":[{"type":"constructor","inputs":[],"stateMutability":"nonpayable"},{"type":"function","name":"_DOMAIN_SEPARATOR","inputs":[],"outputs":[{"name":"","type":"bytes32","internalType":"bytes32"}],"stateMutability":"view"},{"type":"function","name":"_permitVaild","inputs":[{"name":"owner","type":"address","internalType":"address"},{"name":"spender","type":"address","internalType":"address"},{"name":"value","type":"uint256","internalType":"uint256"},{"name":"deadline","type":"uint256","internalType":"uint256"},{"name":"v","type":"uint8","internalType":"uint8"},{"name":"r","type":"bytes32","internalType":"bytes32"},{"name":"s","type":"bytes32","internalType":"bytes32"}],"outputs":[],"stateMutability":"nonpayable"},{"type":"function","name":"buyNFT","inputs":[{"name":"contractAddress","type":"address","internalType":"address"},{"name":"tokenId","type":"uint256","internalType":"uint256"},{"name":"payErc20Contract","type":"address","internalType":"address"}],"outputs":[],"stateMutability":"nonpayable"},{"type":"function","name":"eip712Domain","inputs":[],"outputs":[{"name":"fields","type":"bytes1","internalType":"bytes1"},{"name":"name","type":"string","internalType":"string"},{"name":"version","type":"string","internalType":"string"},{"name":"chainId","type":"uint256","internalType":"uint256"},{"name":"verifyingContract","type":"address","internalType":"address"},{"name":"salt","type":"bytes32","internalType":"bytes32"},{"name":"extensions","type":"uint256[]","internalType":"uint256[]"}],"stateMutability":"view"},{"type":"function","name":"initializers","inputs":[],"outputs":[],"stateMutability":"nonpayable"},{"type":"function","name":"list","inputs":[{"name":"contractAddress","type":"address","internalType":"address"},{"name":"tokenId","type":"uint256","internalType":"uint256"},{"name":"listPric","type":"uint256","internalType":"uint256"}],"outputs":[],"stateMutability":"nonpayable"},{"type":"function","name":"listPrice","inputs":[{"name":"contractAddress","type":"address","internalType":"address"},{"name":"tokenId","type":"uint256","internalType":"uint256"}],"outputs":[{"name":"","type":"uint256","internalType":"uint256"}],"stateMutability":"view"},{"type":"function","name":"onERC721Received","inputs":[{"name":"","type":"address","internalType":"address"},{"name":"","type":"address","internalType":"address"},{"name":"","type":"uint256","internalType":"uint256"},{"name":"","type":"bytes","internalType":"bytes"}],"outputs":[{"name":"","type":"bytes4","internalType":"bytes4"}],"stateMutability":"pure"},{"type":"function","name":"ownerOf","inputs":[{"name":"contractAddress","type":"address","internalType":"address"},{"name":"tokenId","type":"uint256","internalType":"uint256"}],"outputs":[{"name":"","type":"address","internalType":"address"}],"stateMutability":"view"},{"type":"function","name":"permitBuy","inputs":[{"name":"nftAddress","type":"address","internalType":"address"},{"name":"tokenId","type":"uint256","internalType":"uint256"},{"name":"erc20Address","type":"address","internalType":"address"},{"name":"owner","type":"address","internalType":"address"},{"name":"spender","type":"address","internalType":"address"},{"name":"_value","type":"uint256","internalType":"uint256"},{"name":"deadline","type":"uint256","internalType":"uint256"},{"name":"sign2","type":"tuple","internalType":"struct NFTMarketV2.SignModal","components":[{"name":"v","type":"uint8","internalType":"uint8"},{"name":"r","type":"bytes32","internalType":"bytes32"},{"name":"s","type":"bytes32","internalType":"bytes32"}]},{"name":"sign1","type":"tuple","internalType":"struct NFTMarketV2.SignModal","components":[{"name":"v","type":"uint8","internalType":"uint8"},{"name":"r","type":"bytes32","internalType":"bytes32"},{"name":"s","type":"bytes32","internalType":"bytes32"}]}],"outputs":[],"stateMutability":"nonpayable"},{"type":"function","name":"permitList","inputs":[{"name":"owner","type":"address","internalType":"address"},{"name":"spender","type":"address","internalType":"address"},{"name":"contractAddress","type":"address","internalType":"address"},{"name":"price","type":"uint256","internalType":"uint256"},{"name":"tokenId","type":"uint256","internalType":"uint256"},{"name":"deadline","type":"uint256","internalType":"uint256"},{"name":"v","type":"uint8","internalType":"uint8"},{"name":"r","type":"bytes32","internalType":"bytes32"},{"name":"s","type":"bytes32","internalType":"bytes32"}],"outputs":[],"stateMutability":"nonpayable"},{"type":"function","name":"tokensReceive","inputs":[{"name":"_from","type":"address","internalType":"address"},{"name":"_to","type":"address","internalType":"address"},{"name":"_value","type":"uint256","internalType":"uint256"},{"name":"_data","type":"bytes","internalType":"bytes"}],"outputs":[{"name":"","type":"bool","internalType":"bool"}],"stateMutability":"nonpayable"},{"type":"event","name":"EIP712DomainChanged","inputs":[],"anonymous":false},{"type":"event","name":"Initialized","inputs":[{"name":"version","type":"uint64","indexed":false,"internalType":"uint64"}],"anonymous":false},{"type":"event","name":"buyOrder","inputs":[{"name":"from","type":"address","indexed":true,"internalType":"address"},{"name":"contractAddress","type":"address","indexed":true,"internalType":"address"},{"name":"tokenId","type":"uint256","indexed":true,"internalType":"uint256"},{"name":"listPrice","type":"uint256","indexed":false,"internalType":"uint256"}],"anonymous":false},{"type":"event","name":"listOrder","inputs":[{"name":"from","type":"address","indexed":true,"internalType":"address"},{"name":"contractAddress","type":"address","indexed":true,"internalType":"address"},{"name":"tokenId","type":"uint256","indexed":true,"internalType":"uint256"},{"name":"listPrice","type":"uint256","indexed":false,"internalType":"uint256"}],"anonymous":false},{"type":"error","name":"ECDSAInvalidSignature","inputs":[]},{"type":"error","name":"ECDSAInvalidSignatureLength","inputs":[{"name":"length","type":"uint256","internalType":"uint256"}]},{"type":"error","name":"ECDSAInvalidSignatureS","inputs":[{"name":"s","type":"bytes32","internalType":"bytes32"}]},{"type":"error","name":"ExpiredSignature","inputs":[{"name":"deadline","type":"uint256","internalType":"uint256"}]},{"type":"error","name":"InvalidInitialization","inputs":[]},{"type":"error","name":"InvalidSigner","inputs":[{"name":"signer","type":"address","internalType":"address"},{"name":"owner","type":"address","internalType":"address"}]},{"type":"error","name":"NotInitializing","inputs":[]}],"bytecode":{"object":"0x60c06040527f6e71edae12b1b97f4d1f60370fef10105fa2faae0126114a169c64845d6126c96080527fe420f026153853d0737df86054afb9514b1f4af525c7f03d7fed562fc26289f860a05234801561005857600080fd5b50610061610066565b610118565b7ff0c57e16840df040f15088dc2f81fe391c3923bec73e23a9662efc9c229c6a00805468010000000000000000900460ff16156100b65760405163f92ee8a960e01b815260040160405180910390fd5b80546001600160401b03908116146101155780546001600160401b0319166001600160401b0390811782556040519081527fc7f505b2f371ae2175ee4913f4499e1f2633a7b5936321eed1cdaeb6115181d29060200160405180910390a15b50565b60805160a051611d466101446000396000610d3001526000818161068e015261071e0152611d466000f3fe608060405234801561001057600080fd5b50600436106100b45760003560e01c806384b0196e1161007157806384b0196e146101735780638b199bc71461018e578063c6f49de1146101af578063dc0c81b5146101c2578063dda342bb146101ca578063ffe50b89146101dd57600080fd5b8063150b7a02146100b95780631f29d2dc146100f5578063348542d014610120578063454976a21461012a5780634816581a1461014d5780636607abf614610160575b600080fd5b6100d76100c736600461164d565b630a85bd0160e11b949350505050565b6040516001600160e01b031990911681526020015b60405180910390f35b610108610103366004611711565b6101f0565b6040516001600160a01b0390911681526020016100ec565b610128610218565b005b61013d61013836600461164d565b61036c565b60405190151581526020016100ec565b61012861015b366004611753565b610539565b61012861016e36600461183f565b610555565b61017b61058d565b6040516100ec9796959493929190611922565b6101a161019c366004611711565b610639565b6040519081526020016100ec565b6101286101bd3660046119bb565b610664565b6101a1610847565b6101286101d8366004611a29565b610856565b6101286101eb366004611a5e565b610946565b6001600160a01b03918216600090815260026020908152604080832093835292905220541690565b7ff0c57e16840df040f15088dc2f81fe391c3923bec73e23a9662efc9c229c6a008054600160401b810460ff16159067ffffffffffffffff1660008115801561025e5750825b905060008267ffffffffffffffff16600114801561027b5750303b155b905081158015610289575080155b156102a75760405163f92ee8a960e01b815260040160405180910390fd5b845467ffffffffffffffff1916600117855583156102d157845460ff60401b1916600160401b1785555b6102db606f610a9e565b61031f6040518060400160405280600981526020016813919513585c9ad95d60ba1b815250604051806040016040528060018152602001603160f81b815250610ae6565b831561036557845460ff60401b19168555604051600181527fc7f505b2f371ae2175ee4913f4499e1f2633a7b5936321eed1cdaeb6115181d29060200160405180910390a15b5050505050565b600080828060200190518101906103839190611aa0565b80519091506001600160a01b0316158015906103a3575060008160200151115b6103e85760405162461bcd60e51b81526020600482015260116024820152706461746120656e747279206572726f727360781b60448201526064015b60405180910390fd5b836103fb82600001518360200151610639565b1461043f5760405162461bcd60e51b81526020600482015260146024820152734e6f20657175616c73206c69737420707269636560601b60448201526064016103df565b6000610453826000015183602001516101f0565b9050600061046b87846000015185602001518b610afc565b9050806104a95760405162461bcd60e51b815260206004820152600c60248201526b1d185b9cd9995c8819985a5b60a21b60448201526064016103df565b600080546001600160a01b0319163390811790915560405163a9059cbb60e01b81526001600160a01b03841660048201526024810188905263a9059cbb906044016020604051808303816000875af1158015610509573d6000803e3d6000fd5b505050506040513d601f19601f8201168201806040525081019061052d9190611af8565b50979650505050505050565b61054a898989898989898989610c75565b505050505050505050565b61056f898985846000015185602001518660400151610caa565b61054a8989898989898989600001518a602001518b60400151610faa565b60006060808280808381600080516020611ccc83398151915280549091501580156105ba57506001810154155b6105fe5760405162461bcd60e51b81526020600482015260156024820152741152540dcc4c8e88155b9a5b9a5d1a585b1a5e9959605a1b60448201526064016103df565b61060661103d565b61060e611100565b60408051600080825260208201909252600f60f81b9c939b5091995046985030975095509350915050565b6001600160a01b03919091166000908152600260209081526040808320938352929052206001015490565b8342111561068857604051632f4aa44f60e21b8152600481018590526024016103df565b604080517f00000000000000000000000000000000000000000000000000000000000000006020808301919091526001600160a01b038a811683850152891660608301526080820188905260a0820188905260c08083018890528351808403909101815260e08301808552815191909201206101408301909352602580825261071992611cec90610100013961113f565b6107427f0000000000000000000000000000000000000000000000000000000000000000611182565b6107ac306001600160a01b031663dc0c81b56040518163ffffffff1660e01b8152600401602060405180830381865afa158015610783573d6000803e3d6000fd5b505050506040513d601f19601f820116820180604052508101906107a79190611b21565b611182565b6107b581611182565b6107be886111c7565b6107c7876111c7565b6107d086610a9e565b6107d985610a9e565b60006107e48261120f565b905060006107f482878787611242565b9050896001600160a01b0316816001600160a01b03161461083b57604051637ba5ffb560e01b81526001600160a01b0380831660048301528b1660248201526044016103df565b50505050505050505050565b6000610851611270565b905090565b600180546001600160a01b0319166001600160a01b038516908117909155604051632142170760e11b8152336004820152306024820152604481018490526342842e0e90606401600060405180830381600087803b1580156108b757600080fd5b505af11580156108cb573d6000803e3d6000fd5b505050506001600160a01b038316600081815260026020908152604080832086845282529182902080546001600160a01b03191633908117825560019091018590559151848152859392917f9403cc472149b57dc853960dcefe862ece534877fe046522f9b075e046c69236910160405180910390a4505050565b60006109528484610639565b600080546001600160a01b0319166001600160a01b0385811691821783558781168352600260209081526040808520898652909152928390205492516323b872dd60e01b815233600482015292166024830152604482018390529192506323b872dd906064016020604051808303816000875af11580156109d7573d6000803e3d6000fd5b505050506040513d601f19601f820116820180604052508101906109fb9190611af8565b610a3d5760405162461bcd60e51b8152602060048201526013602482015272135bdb995e48151c985b9cd9995c8819985a5b606a1b60448201526064016103df565b610a4930858533610afc565b5082846001600160a01b0316336001600160a01b03167fcd8a64c4d006e94cc9ec7c0907e485b0ee6b17e0bff0f7a75b6840b73111a96484604051610a9091815260200190565b60405180910390a450505050565b610ae381604051602401610ab491815260200190565b60408051601f198184030181529190526020810180516001600160e01b031663f5b1bba960e01b17905261127a565b50565b610aee61129b565b610af882826112e6565b5050565b600080610b0985856101f0565b6001600160a01b031603610b525760405162461bcd60e51b815260206004820152601060248201526f1d5cd95c881a5cc81b9bdd081b1a5cdd60821b60448201526064016103df565b816001600160a01b0316610b6685856101f0565b6001600160a01b031603610bb25760405162461bcd60e51b8152602060048201526013602482015272313abcb2b91034b9903737ba1039b2b63632b960691b60448201526064016103df565b600180546001600160a01b0319166001600160a01b03868116918217909255604051632142170760e11b81528783166004820152918416602483015260448201859052906342842e0e90606401600060405180830381600087803b158015610c1957600080fd5b505af1158015610c2d573d6000803e3d6000fd5b505050506001600160a01b0393909316600090815260026020908152604080832094835293905291822080546001600160a01b03191681556001908101929092555092915050565b600180546001600160a01b0319166001600160a01b038916179055610c9f89898787878787610664565b61054a878688610856565b600180546001600160a01b0319166001600160a01b03881690811790915560408051638da5cb5b60e01b8152905160009291638da5cb5b9160048083019260209291908290030181865afa158015610d06573d6000803e3d6000fd5b505050506040513d601f19601f82011682018060405250810190610d2a9190611b3a565b604080517f000000000000000000000000000000000000000000000000000000000000000060208201526001600160a01b038316918101919091523360608201526080810188905260a0810187905290915060009060c0016040516020818303038152906040528051906020012090506000306001600160a01b031663dc0c81b56040518163ffffffff1660e01b8152600401602060405180830381865afa158015610dda573d6000803e3d6000fd5b505050506040513d601f19601f82011682018060405250810190610dfe9190611b21565b60405161190160f01b602082015260228101919091526042810183905260620160408051601f198184030181528282528051602091820120600080855291840180845281905260ff8a169284019290925260608301889052608083018790529092509060019060a0016020604051602081039080840390855afa158015610e89573d6000803e3d6000fd5b505050602060405103519050836001600160a01b0316816001600160a01b031614610ef65760405162461bcd60e51b815260206004820152601d60248201527f4d7946756e6374696f6e3a20696e76616c6964207369676e617475726500000060448201526064016103df565b6001600160a01b038116610f4c5760405162461bcd60e51b815260206004820152601860248201527f45434453413a20696e76616c6964207369676e6174757265000000000000000060448201526064016103df565b87421061083b5760405162461bcd60e51b815260206004820152602660248201527f4d7946756e6374696f6e3a207369676e6564207472616e73616374696f6e20656044820152651e1c1a5c995960d21b60648201526084016103df565b60405163d505accf60e01b81526001600160a01b0388811660048301528781166024830152604482018790526064820186905260ff8516608483015260a4820184905260c4820183905289169063d505accf9060e401600060405180830381600087803b15801561101a57600080fd5b505af115801561102e573d6000803e3d6000fd5b5050505061083b8a8a8a610946565b7fa16a46d94261c7517cc8ff89f61c0ce93598e3c849801011dee649a6a557d1028054606091600080516020611ccc8339815191529161107c90611b57565b80601f01602080910402602001604051908101604052809291908181526020018280546110a890611b57565b80156110f55780601f106110ca576101008083540402835291602001916110f5565b820191906000526020600020905b8154815290600101906020018083116110d857829003601f168201915b505050505091505090565b7fa16a46d94261c7517cc8ff89f61c0ce93598e3c849801011dee649a6a557d1038054606091600080516020611ccc8339815191529161107c90611b57565b610ae3816040516024016111539190611b91565b60408051601f198184030181529190526020810180516001600160e01b031663104c13eb60e21b17905261127a565b610ae38160405160240161119891815260200190565b60408051601f198184030181529190526020810180516001600160e01b03166327b7cf8560e01b17905261127a565b6040516001600160a01b0382166024820152610ae39060440160408051601f198184030181529190526020810180516001600160e01b031663161765e160e11b17905261127a565b600061123c61121c611270565b8360405161190160f01b8152600281019290925260228201526042902090565b92915050565b60008060008061125488888888611347565b9250925092506112648282611416565b50909695505050505050565b60006108516114cf565b80516a636f6e736f6c652e6c6f67602083016000808483855afa5050505050565b7ff0c57e16840df040f15088dc2f81fe391c3923bec73e23a9662efc9c229c6a0054600160401b900460ff166112e457604051631afcd79f60e31b815260040160405180910390fd5b565b6112ee61129b565b600080516020611ccc8339815191527fa16a46d94261c7517cc8ff89f61c0ce93598e3c849801011dee649a6a557d1026113288482611bf5565b50600381016113378382611bf5565b5060008082556001909101555050565b600080807f7fffffffffffffffffffffffffffffff5d576e7357a4501ddfe92f46681b20a0841115611382575060009150600390508261140c565b604080516000808252602082018084528a905260ff891692820192909252606081018790526080810186905260019060a0016020604051602081039080840390855afa1580156113d6573d6000803e3d6000fd5b5050604051601f1901519150506001600160a01b0381166114025750600092506001915082905061140c565b9250600091508190505b9450945094915050565b600082600381111561142a5761142a611cb5565b03611433575050565b600182600381111561144757611447611cb5565b036114655760405163f645eedf60e01b815260040160405180910390fd5b600282600381111561147957611479611cb5565b0361149a5760405163fce698f760e01b8152600481018290526024016103df565b60038260038111156114ae576114ae611cb5565b03610af8576040516335e2f38360e21b8152600481018290526024016103df565b60007f8b73c3c69bb8fe3d512ecc4cf759cc79239f7b179b0ffacaa9a75d522b39400f6114fa611543565b6115026115ad565b60408051602081019490945283019190915260608201524660808201523060a082015260c00160405160208183030381529060405280519060200120905090565b6000600080516020611ccc8339815191528161155d61103d565b80519091501561157557805160209091012092915050565b81548015611584579392505050565b7fc5d2460186f7233c927e7db2dcc703c0e500b653ca82273b7bfad8045d85a470935050505090565b6000600080516020611ccc833981519152816115c7611100565b8051909150156115df57805160209091012092915050565b60018201548015611584579392505050565b6001600160a01b0381168114610ae357600080fd5b634e487b7160e01b600052604160045260246000fd5b604051601f8201601f1916810167ffffffffffffffff8111828210171561164557611645611606565b604052919050565b6000806000806080858703121561166357600080fd5b843561166e816115f1565b935060208581013561167f816115f1565b935060408601359250606086013567ffffffffffffffff808211156116a357600080fd5b818801915088601f8301126116b757600080fd5b8135818111156116c9576116c9611606565b6116db601f8201601f1916850161161c565b915080825289848285010111156116f157600080fd5b808484018584013760008482840101525080935050505092959194509250565b6000806040838503121561172457600080fd5b823561172f816115f1565b946020939093013593505050565b803560ff8116811461174e57600080fd5b919050565b60008060008060008060008060006101208a8c03121561177257600080fd5b893561177d816115f1565b985060208a013561178d816115f1565b975060408a013561179d816115f1565b965060608a0135955060808a0135945060a08a013593506117c060c08b0161173d565b925060e08a013591506101008a013590509295985092959850929598565b6000606082840312156117f057600080fd5b6040516060810181811067ffffffffffffffff8211171561181357611813611606565b6040529050806118228361173d565b815260208301356020820152604083013560408201525092915050565b60008060008060008060008060006101a08a8c03121561185e57600080fd5b8935611869816115f1565b985060208a0135975060408a0135611880816115f1565b965060608a0135611890816115f1565b955060808a01356118a0816115f1565b945060a08a0135935060c08a013592506118bd8b60e08c016117de565b91506118cd8b6101408c016117de565b90509295985092959850929598565b6000815180845260005b81811015611902576020818501810151868301820152016118e6565b506000602082860101526020601f19601f83011685010191505092915050565b60ff60f81b881681526000602060e0602084015261194360e084018a6118dc565b8381036040850152611955818a6118dc565b606085018990526001600160a01b038816608086015260a0850187905284810360c08601528551808252602080880193509091019060005b818110156119a95783518352928401929184019160010161198d565b50909c9b505050505050505050505050565b600080600080600080600060e0888a0312156119d657600080fd5b87356119e1816115f1565b965060208801356119f1816115f1565b95506040880135945060608801359350611a0d6080890161173d565b925060a0880135915060c0880135905092959891949750929550565b600080600060608486031215611a3e57600080fd5b8335611a49816115f1565b95602085013595506040909401359392505050565b600080600060608486031215611a7357600080fd5b8335611a7e816115f1565b9250602084013591506040840135611a95816115f1565b809150509250925092565b600060408284031215611ab257600080fd5b6040516040810181811067ffffffffffffffff82111715611ad557611ad5611606565b6040528251611ae3816115f1565b81526020928301519281019290925250919050565b600060208284031215611b0a57600080fd5b81518015158114611b1a57600080fd5b9392505050565b600060208284031215611b3357600080fd5b5051919050565b600060208284031215611b4c57600080fd5b8151611b1a816115f1565b600181811c90821680611b6b57607f821691505b602082108103611b8b57634e487b7160e01b600052602260045260246000fd5b50919050565b602081526000611b1a60208301846118dc565b601f821115611bf0576000816000526020600020601f850160051c81016020861015611bcd5750805b601f850160051c820191505b81811015611bec57828155600101611bd9565b5050505b505050565b815167ffffffffffffffff811115611c0f57611c0f611606565b611c2381611c1d8454611b57565b84611ba4565b602080601f831160018114611c585760008415611c405750858301515b600019600386901b1c1916600185901b178555611bec565b600085815260208120601f198616915b82811015611c8757888601518255948401946001909101908401611c68565b5085821015611ca55787850151600019600388901b60f8161c191681555b5050505050600190811b01905550565b634e487b7160e01b600052602160045260246000fdfea16a46d94261c7517cc8ff89f61c0ce93598e3c849801011dee649a6a557d1003d3d3d3d3d3d3d3d3d3d3d3d3d3d3d4d61726b65743d3d3d3d3d3d3d3d3d3d3d3d3d3d3d3da264697066735822122008e11a619e2c8f62b0ee94facb7b5586a92367988a5a81f10e9bd20d38bd435764736f6c63430008190033","linkReferences":{}},"methodIdentifiers":{"_DOMAIN_SEPARATOR()":"dc0c81b5","_permitVaild(address,address,uint256,uint256,uint8,bytes32,bytes32)":"c6f49de1","buyNFT(address,uint256,address)":"ffe50b89","eip712Domain()":"84b0196e","initializers()":"348542d0","list(address,uint256,uint256)":"dda342bb","listPrice(address,uint256)":"8b199bc7","onERC721Received(address,address,uint256,bytes)":"150b7a02","ownerOf(address,uint256)":"1f29d2dc","permitBuy(address,uint256,address,address,address,uint256,uint256,(uint8,bytes32,bytes32),(uint8,bytes32,bytes32))":"6607abf6","permitList(address,address,address,uint256,uint256,uint256,uint8,bytes32,bytes32)":"4816581a","tokensReceive(address,address,uint256,bytes)":"454976a2"},"storageLayout":{"storage":[{"astId":59104,"contract":"src/NFTMarketV2.sol:NFTMarketV2","label":"tokenContract","offset":0,"slot":"0","type":"t_contract(Base20Token)58484"},{"astId":59107,"contract":"src/NFTMarketV2.sol:NFTMarketV2","label":"NFTContract","offset":0,"slot":"1","type":"t_contract(Base721Token)58544"},{"astId":59151,"contract":"src/NFTMarketV2.sol:NFTMarketV2","label":"marketList","offset":0,"slot":"2","type":"t_mapping(t_address,t_mapping(t_uint256,t_struct(listUser)59120_storage))"}],"types":{"t_address":{"encoding":"inplace","label":"address","numberOfBytes":"20"},"t_contract(Base20Token)58484":{"encoding":"inplace","label":"contract Base20Token","numberOfBytes":"20"},"t_contract(Base721Token)58544":{"encoding":"inplace","label":"contract Base721Token","numberOfBytes":"20"},"t_mapping(t_address,t_mapping(t_uint256,t_struct(listUser)59120_storage))":{"encoding":"mapping","key":"t_address","label":"mapping(address => mapping(uint256 => struct NFTMarketV2.listUser))","numberOfBytes":"32","value":"t_mapping(t_uint256,t_struct(listUser)59120_storage)"},"t_mapping(t_uint256,t_struct(listUser)59120_storage)":{"encoding":"mapping","key":"t_uint256","label":"mapping(uint256 => struct NFTMarketV2.listUser)","numberOfBytes":"32","value":"t_struct(listUser)59120_storage"},"t_struct(listUser)59120_storage":{"encoding":"inplace","label":"struct NFTMarketV2.listUser","numberOfBytes":"64","members":[{"astId":59117,"contract":"src/NFTMarketV2.sol:NFTMarketV2","label":"owner","offset":0,"slot":"0","type":"t_address"},{"astId":59119,"contract":"src/NFTMarketV2.sol:NFTMarketV2","label":"listPrice","offset":0,"slot":"1","type":"t_uint256"}]},"t_uint256":{"encoding":"inplace","label":"uint256","numberOfBytes":"32"}}},"id":71}