{"abi":[{"type":"function","name":"buyNFT","inputs":[{"name":"contractAddress","type":"address","internalType":"address"},{"name":"tokenId","type":"uint256","internalType":"uint256"},{"name":"payErc20Contract","type":"address","internalType":"address"}],"outputs":[],"stateMutability":"nonpayable"},{"type":"function","name":"list","inputs":[{"name":"contractAddress","type":"address","internalType":"address"},{"name":"tokenId","type":"uint256","internalType":"uint256"},{"name":"listPric","type":"uint256","internalType":"uint256"}],"outputs":[],"stateMutability":"nonpayable"},{"type":"function","name":"listPrice","inputs":[{"name":"contractAddress","type":"address","internalType":"address"},{"name":"tokenId","type":"uint256","internalType":"uint256"}],"outputs":[{"name":"","type":"uint256","internalType":"uint256"}],"stateMutability":"view"},{"type":"function","name":"onERC721Received","inputs":[{"name":"","type":"address","internalType":"address"},{"name":"","type":"address","internalType":"address"},{"name":"","type":"uint256","internalType":"uint256"},{"name":"","type":"bytes","internalType":"bytes"}],"outputs":[{"name":"","type":"bytes4","internalType":"bytes4"}],"stateMutability":"pure"},{"type":"function","name":"ownerOf","inputs":[{"name":"contractAddress","type":"address","internalType":"address"},{"name":"tokenId","type":"uint256","internalType":"uint256"}],"outputs":[{"name":"","type":"address","internalType":"address"}],"stateMutability":"view"},{"type":"function","name":"permitBuy","inputs":[{"name":"nftAddress","type":"address","internalType":"address"},{"name":"tokenId","type":"uint256","internalType":"uint256"},{"name":"erc20Address","type":"address","internalType":"address"},{"name":"owner","type":"address","internalType":"address"},{"name":"spender","type":"address","internalType":"address"},{"name":"_value","type":"uint256","internalType":"uint256"},{"name":"deadline","type":"uint256","internalType":"uint256"},{"name":"sign2","type":"tuple","internalType":"struct NFTMarketV2.SignModal","components":[{"name":"v","type":"uint8","internalType":"uint8"},{"name":"r","type":"bytes32","internalType":"bytes32"},{"name":"s","type":"bytes32","internalType":"bytes32"}]},{"name":"sign1","type":"tuple","internalType":"struct NFTMarketV2.SignModal","components":[{"name":"v","type":"uint8","internalType":"uint8"},{"name":"r","type":"bytes32","internalType":"bytes32"},{"name":"s","type":"bytes32","internalType":"bytes32"}]}],"outputs":[],"stateMutability":"nonpayable"},{"type":"function","name":"permitList","inputs":[{"name":"owner","type":"address","internalType":"address"},{"name":"spender","type":"address","internalType":"address"},{"name":"contractAddress","type":"address","internalType":"address"},{"name":"price","type":"uint256","internalType":"uint256"},{"name":"tokenId","type":"uint256","internalType":"uint256"},{"name":"deadline","type":"uint256","internalType":"uint256"},{"name":"v","type":"uint8","internalType":"uint8"},{"name":"r","type":"bytes32","internalType":"bytes32"},{"name":"s","type":"bytes32","internalType":"bytes32"}],"outputs":[],"stateMutability":"nonpayable"},{"type":"function","name":"tokensReceive","inputs":[{"name":"_from","type":"address","internalType":"address"},{"name":"_to","type":"address","internalType":"address"},{"name":"_value","type":"uint256","internalType":"uint256"},{"name":"_data","type":"bytes","internalType":"bytes"}],"outputs":[{"name":"","type":"bool","internalType":"bool"}],"stateMutability":"nonpayable"},{"type":"event","name":"buyOrder","inputs":[{"name":"from","type":"address","indexed":true,"internalType":"address"},{"name":"contractAddress","type":"address","indexed":true,"internalType":"address"},{"name":"tokenId","type":"uint256","indexed":true,"internalType":"uint256"},{"name":"listPrice","type":"uint256","indexed":false,"internalType":"uint256"}],"anonymous":false},{"type":"event","name":"listOrder","inputs":[{"name":"from","type":"address","indexed":true,"internalType":"address"},{"name":"contractAddress","type":"address","indexed":true,"internalType":"address"},{"name":"tokenId","type":"uint256","indexed":true,"internalType":"uint256"},{"name":"listPrice","type":"uint256","indexed":false,"internalType":"uint256"}],"anonymous":false}],"bytecode":{"object":"0x60a06040527f49ecf333e5b8c95c40fdafc95c1ad136e8914a8fb55e9dc8bb01eaa83a2df9ad608052348015603357600080fd5b5060805161114761004c600039600050506111476000f3fe608060405234801561001057600080fd5b50600436106100885760003560e01c80636607abf61161005b5780636607abf61461012c5780638b199bc71461013f578063dda342bb14610160578063ffe50b891461017357600080fd5b8063150b7a021461008d5780631f29d2dc146100c9578063454976a2146100f45780634816581a14610117575b600080fd5b6100ab61009b366004610d13565b630a85bd0160e11b949350505050565b6040516001600160e01b031990911681526020015b60405180910390f35b6100dc6100d7366004610dd7565b610186565b6040516001600160a01b0390911681526020016100c0565b610107610102366004610d13565b6101ae565b60405190151581526020016100c0565b61012a610125366004610e19565b61037b565b005b61012a61013a366004610f05565b610397565b61015261014d366004610dd7565b6103cf565b6040519081526020016100c0565b61012a61016e366004610fa2565b6103fa565b61012a610181366004610fd7565b6104ea565b6001600160a01b03918216600090815260026020908152604080832093835292905220541690565b600080828060200190518101906101c59190611019565b80519091506001600160a01b0316158015906101e5575060008160200151115b61022a5760405162461bcd60e51b81526020600482015260116024820152706461746120656e747279206572726f727360781b60448201526064015b60405180910390fd5b8361023d826000015183602001516103cf565b146102815760405162461bcd60e51b81526020600482015260146024820152734e6f20657175616c73206c69737420707269636560601b6044820152606401610221565b600061029582600001518360200151610186565b905060006102ad87846000015185602001518b610642565b9050806102eb5760405162461bcd60e51b815260206004820152600c60248201526b1d185b9cd9995c8819985a5b60a21b6044820152606401610221565b600080546001600160a01b0319163390811790915560405163a9059cbb60e01b81526001600160a01b03841660048201526024810188905263a9059cbb906044016020604051808303816000875af115801561034b573d6000803e3d6000fd5b505050506040513d601f19601f8201168201806040525081019061036f9190611071565b50979650505050505050565b61038c8989898989898989896107bb565b505050505050505050565b6103b1898985846000015185602001518660400151610843565b61038c8989898989898989600001518a602001518b60400151610c33565b6001600160a01b03919091166000908152600260209081526040808320938352929052206001015490565b600180546001600160a01b0319166001600160a01b038516908117909155604051632142170760e11b8152336004820152306024820152604481018490526342842e0e90606401600060405180830381600087803b15801561045b57600080fd5b505af115801561046f573d6000803e3d6000fd5b505050506001600160a01b038316600081815260026020908152604080832086845282529182902080546001600160a01b03191633908117825560019091018590559151848152859392917f9403cc472149b57dc853960dcefe862ece534877fe046522f9b075e046c69236910160405180910390a4505050565b60006104f684846103cf565b600080546001600160a01b0319166001600160a01b0385811691821783558781168352600260209081526040808520898652909152928390205492516323b872dd60e01b815233600482015292166024830152604482018390529192506323b872dd906064016020604051808303816000875af115801561057b573d6000803e3d6000fd5b505050506040513d601f19601f8201168201806040525081019061059f9190611071565b6105e15760405162461bcd60e51b8152602060048201526013602482015272135bdb995e48151c985b9cd9995c8819985a5b606a1b6044820152606401610221565b6105ed30858533610642565b5082846001600160a01b0316336001600160a01b03167fcd8a64c4d006e94cc9ec7c0907e485b0ee6b17e0bff0f7a75b6840b73111a9648460405161063491815260200190565b60405180910390a450505050565b60008061064f8585610186565b6001600160a01b0316036106985760405162461bcd60e51b815260206004820152601060248201526f1d5cd95c881a5cc81b9bdd081b1a5cdd60821b6044820152606401610221565b816001600160a01b03166106ac8585610186565b6001600160a01b0316036106f85760405162461bcd60e51b8152602060048201526013602482015272313abcb2b91034b9903737ba1039b2b63632b960691b6044820152606401610221565b600180546001600160a01b0319166001600160a01b03868116918217909255604051632142170760e11b81528783166004820152918416602483015260448201859052906342842e0e90606401600060405180830381600087803b15801561075f57600080fd5b505af1158015610773573d6000803e3d6000fd5b505050506001600160a01b0393909316600090815260026020908152604080832094835293905291822080546001600160a01b03191681556001908101929092555092915050565b600180546001600160a01b0319166001600160a01b03891690811790915560405163d505accf60e01b815263d505accf90610806908c908c908a908a908a908a908a9060040161109a565b600060405180830381600087803b15801561082057600080fd5b505af1158015610834573d6000803e3d6000fd5b5050505061038c8786886103fa565b604080518082018252600c81526b2130b9b29b9918aa37b5b2b760a11b6020918201528151808301835260018152603160f81b9082015281517f8b73c3c69bb8fe3d512ecc4cf759cc79239f7b179b0ffacaa9a75d522b39400f918101919091527f6ccfce68ff28ed05677cd3d5c1eeb6ef6bfce748e4a76371c5699b141b993cac918101919091527fc89efdaa54c0f20c7adf612882df0950f5a951637e0307cdcb4c672f298b8bc660608201524660808201523060a082015260009060c00160408051808303601f190181528282528051602091820120600180546001600160a01b0319166001600160a01b038d16908117909155638da5cb5b60e01b85529251909450600093638da5cb5b9260048083019391928290030181865afa158015610973573d6000803e3d6000fd5b505050506040513d601f19601f8201168201806040525081019061099791906110db565b604080517f6e71edae12b1b97f4d1f60370fef10105fa2faae0126114a169c64845d6126c960208201526001600160a01b038316918101919091523360608201526080810189905260a0810189905260c0810188905290915060009060e00160408051601f198184030181528282528051602091820120600154633644e51560e01b855292519094506000936001600160a01b0390931692633644e5159260048083019391928290030181865afa158015610a56573d6000803e3d6000fd5b505050506040513d601f19601f82011682018060405250810190610a7a91906110f8565b60405161190160f01b602082015260228101919091526042810183905260620160408051601f198184030181528282528051602091820120600080855291840180845281905260ff8b169284019290925260608301899052608083018890529092509060019060a0016020604051602081039080840390855afa158015610b05573d6000803e3d6000fd5b505050602060405103519050836001600160a01b0316816001600160a01b031614610b725760405162461bcd60e51b815260206004820152601d60248201527f4d7946756e6374696f6e3a20696e76616c6964207369676e61747572650000006044820152606401610221565b6001600160a01b038116610bc85760405162461bcd60e51b815260206004820152601860248201527f45434453413a20696e76616c6964207369676e617475726500000000000000006044820152606401610221565b884210610c265760405162461bcd60e51b815260206004820152602660248201527f4d7946756e6374696f6e3a207369676e6564207472616e73616374696f6e20656044820152651e1c1a5c995960d21b6064820152608401610221565b5050505050505050505050565b60405163d505accf60e01b81526001600160a01b0389169063d505accf90610c6b908a908a908a908a908a908a908a9060040161109a565b600060405180830381600087803b158015610c8557600080fd5b505af1158015610c99573d6000803e3d6000fd5b50505050610ca88a8a8a6104ea565b50505050505050505050565b6001600160a01b0381168114610cc957600080fd5b50565b634e487b7160e01b600052604160045260246000fd5b604051601f8201601f1916810167ffffffffffffffff81118282101715610d0b57610d0b610ccc565b604052919050565b60008060008060808587031215610d2957600080fd5b8435610d3481610cb4565b9350602085810135610d4581610cb4565b935060408601359250606086013567ffffffffffffffff80821115610d6957600080fd5b818801915088601f830112610d7d57600080fd5b813581811115610d8f57610d8f610ccc565b610da1601f8201601f19168501610ce2565b91508082528984828501011115610db757600080fd5b808484018584013760008482840101525080935050505092959194509250565b60008060408385031215610dea57600080fd5b8235610df581610cb4565b946020939093013593505050565b803560ff81168114610e1457600080fd5b919050565b60008060008060008060008060006101208a8c031215610e3857600080fd5b8935610e4381610cb4565b985060208a0135610e5381610cb4565b975060408a0135610e6381610cb4565b965060608a0135955060808a0135945060a08a01359350610e8660c08b01610e03565b925060e08a013591506101008a013590509295985092959850929598565b600060608284031215610eb657600080fd5b6040516060810181811067ffffffffffffffff82111715610ed957610ed9610ccc565b604052905080610ee883610e03565b815260208301356020820152604083013560408201525092915050565b60008060008060008060008060006101a08a8c031215610f2457600080fd5b8935610f2f81610cb4565b985060208a0135975060408a0135610f4681610cb4565b965060608a0135610f5681610cb4565b955060808a0135610f6681610cb4565b945060a08a0135935060c08a01359250610f838b60e08c01610ea4565b9150610f938b6101408c01610ea4565b90509295985092959850929598565b600080600060608486031215610fb757600080fd5b8335610fc281610cb4565b95602085013595506040909401359392505050565b600080600060608486031215610fec57600080fd5b8335610ff781610cb4565b925060208401359150604084013561100e81610cb4565b809150509250925092565b60006040828403121561102b57600080fd5b6040516040810181811067ffffffffffffffff8211171561104e5761104e610ccc565b604052825161105c81610cb4565b81526020928301519281019290925250919050565b60006020828403121561108357600080fd5b8151801515811461109357600080fd5b9392505050565b6001600160a01b0397881681529590961660208601526040850193909352606084019190915260ff16608083015260a082015260c081019190915260e00190565b6000602082840312156110ed57600080fd5b815161109381610cb4565b60006020828403121561110a57600080fd5b505191905056fea264697066735822122034d9f16c4ddd015bb8e42ec957e20ed3a24eede847e94e179ce6ed6353e58bb764736f6c63430008190033","linkReferences":{}},"methodIdentifiers":{"buyNFT(address,uint256,address)":"ffe50b89","list(address,uint256,uint256)":"dda342bb","listPrice(address,uint256)":"8b199bc7","onERC721Received(address,address,uint256,bytes)":"150b7a02","ownerOf(address,uint256)":"1f29d2dc","permitBuy(address,uint256,address,address,address,uint256,uint256,(uint8,bytes32,bytes32),(uint8,bytes32,bytes32))":"6607abf6","permitList(address,address,address,uint256,uint256,uint256,uint8,bytes32,bytes32)":"4816581a","tokensReceive(address,address,uint256,bytes)":"454976a2"},"storageLayout":{"storage":[{"astId":58633,"contract":"src/NFTMarketV2.sol:NFTMarketV2","label":"tokenContract","offset":0,"slot":"0","type":"t_contract(Base20Token)57886"},{"astId":58636,"contract":"src/NFTMarketV2.sol:NFTMarketV2","label":"NFTContract","offset":0,"slot":"1","type":"t_contract(Base721Token)58089"},{"astId":58653,"contract":"src/NFTMarketV2.sol:NFTMarketV2","label":"marketList","offset":0,"slot":"2","type":"t_mapping(t_address,t_mapping(t_uint256,t_struct(listUser)58646_storage))"}],"types":{"t_address":{"encoding":"inplace","label":"address","numberOfBytes":"20"},"t_contract(Base20Token)57886":{"encoding":"inplace","label":"contract Base20Token","numberOfBytes":"20"},"t_contract(Base721Token)58089":{"encoding":"inplace","label":"contract Base721Token","numberOfBytes":"20"},"t_mapping(t_address,t_mapping(t_uint256,t_struct(listUser)58646_storage))":{"encoding":"mapping","key":"t_address","label":"mapping(address => mapping(uint256 => struct NFTMarketV2.listUser))","numberOfBytes":"32","value":"t_mapping(t_uint256,t_struct(listUser)58646_storage)"},"t_mapping(t_uint256,t_struct(listUser)58646_storage)":{"encoding":"mapping","key":"t_uint256","label":"mapping(uint256 => struct NFTMarketV2.listUser)","numberOfBytes":"32","value":"t_struct(listUser)58646_storage"},"t_struct(listUser)58646_storage":{"encoding":"inplace","label":"struct NFTMarketV2.listUser","numberOfBytes":"64","members":[{"astId":58643,"contract":"src/NFTMarketV2.sol:NFTMarketV2","label":"owner","offset":0,"slot":"0","type":"t_address"},{"astId":58645,"contract":"src/NFTMarketV2.sol:NFTMarketV2","label":"listPrice","offset":0,"slot":"1","type":"t_uint256"}]},"t_uint256":{"encoding":"inplace","label":"uint256","numberOfBytes":"32"}}},"id":69}