{"abi":[{"type":"constructor","inputs":[],"stateMutability":"nonpayable"},{"type":"function","name":"_DOMAIN_SEPARATOR","inputs":[],"outputs":[{"name":"","type":"bytes32","internalType":"bytes32"}],"stateMutability":"view"},{"type":"function","name":"_permitVaild","inputs":[{"name":"owner","type":"address","internalType":"address"},{"name":"spender","type":"address","internalType":"address"},{"name":"value","type":"uint256","internalType":"uint256"},{"name":"deadline","type":"uint256","internalType":"uint256"},{"name":"v","type":"uint8","internalType":"uint8"},{"name":"r","type":"bytes32","internalType":"bytes32"},{"name":"s","type":"bytes32","internalType":"bytes32"}],"outputs":[],"stateMutability":"nonpayable"},{"type":"function","name":"buyNFT","inputs":[{"name":"contractAddress","type":"address","internalType":"address"},{"name":"tokenId","type":"uint256","internalType":"uint256"},{"name":"payErc20Contract","type":"address","internalType":"address"}],"outputs":[],"stateMutability":"nonpayable"},{"type":"function","name":"eip712Domain","inputs":[],"outputs":[{"name":"fields","type":"bytes1","internalType":"bytes1"},{"name":"name","type":"string","internalType":"string"},{"name":"version","type":"string","internalType":"string"},{"name":"chainId","type":"uint256","internalType":"uint256"},{"name":"verifyingContract","type":"address","internalType":"address"},{"name":"salt","type":"bytes32","internalType":"bytes32"},{"name":"extensions","type":"uint256[]","internalType":"uint256[]"}],"stateMutability":"view"},{"type":"function","name":"list","inputs":[{"name":"contractAddress","type":"address","internalType":"address"},{"name":"tokenId","type":"uint256","internalType":"uint256"},{"name":"listPric","type":"uint256","internalType":"uint256"}],"outputs":[],"stateMutability":"nonpayable"},{"type":"function","name":"listPrice","inputs":[{"name":"contractAddress","type":"address","internalType":"address"},{"name":"tokenId","type":"uint256","internalType":"uint256"}],"outputs":[{"name":"","type":"uint256","internalType":"uint256"}],"stateMutability":"view"},{"type":"function","name":"onERC721Received","inputs":[{"name":"","type":"address","internalType":"address"},{"name":"","type":"address","internalType":"address"},{"name":"","type":"uint256","internalType":"uint256"},{"name":"","type":"bytes","internalType":"bytes"}],"outputs":[{"name":"","type":"bytes4","internalType":"bytes4"}],"stateMutability":"pure"},{"type":"function","name":"ownerOf","inputs":[{"name":"contractAddress","type":"address","internalType":"address"},{"name":"tokenId","type":"uint256","internalType":"uint256"}],"outputs":[{"name":"","type":"address","internalType":"address"}],"stateMutability":"view"},{"type":"function","name":"permitBuy","inputs":[{"name":"nftAddress","type":"address","internalType":"address"},{"name":"tokenId","type":"uint256","internalType":"uint256"},{"name":"erc20Address","type":"address","internalType":"address"},{"name":"owner","type":"address","internalType":"address"},{"name":"spender","type":"address","internalType":"address"},{"name":"_value","type":"uint256","internalType":"uint256"},{"name":"deadline","type":"uint256","internalType":"uint256"},{"name":"sign2","type":"tuple","internalType":"struct NFTMarketV2.SignModal","components":[{"name":"v","type":"uint8","internalType":"uint8"},{"name":"r","type":"bytes32","internalType":"bytes32"},{"name":"s","type":"bytes32","internalType":"bytes32"}]},{"name":"sign1","type":"tuple","internalType":"struct NFTMarketV2.SignModal","components":[{"name":"v","type":"uint8","internalType":"uint8"},{"name":"r","type":"bytes32","internalType":"bytes32"},{"name":"s","type":"bytes32","internalType":"bytes32"}]}],"outputs":[],"stateMutability":"nonpayable"},{"type":"function","name":"permitList","inputs":[{"name":"owner","type":"address","internalType":"address"},{"name":"spender","type":"address","internalType":"address"},{"name":"contractAddress","type":"address","internalType":"address"},{"name":"price","type":"uint256","internalType":"uint256"},{"name":"tokenId","type":"uint256","internalType":"uint256"},{"name":"deadline","type":"uint256","internalType":"uint256"},{"name":"v","type":"uint8","internalType":"uint8"},{"name":"r","type":"bytes32","internalType":"bytes32"},{"name":"s","type":"bytes32","internalType":"bytes32"}],"outputs":[],"stateMutability":"nonpayable"},{"type":"function","name":"tokensReceive","inputs":[{"name":"_from","type":"address","internalType":"address"},{"name":"_to","type":"address","internalType":"address"},{"name":"_value","type":"uint256","internalType":"uint256"},{"name":"_data","type":"bytes","internalType":"bytes"}],"outputs":[{"name":"","type":"bool","internalType":"bool"}],"stateMutability":"nonpayable"},{"type":"event","name":"EIP712DomainChanged","inputs":[],"anonymous":false},{"type":"event","name":"buyOrder","inputs":[{"name":"from","type":"address","indexed":true,"internalType":"address"},{"name":"contractAddress","type":"address","indexed":true,"internalType":"address"},{"name":"tokenId","type":"uint256","indexed":true,"internalType":"uint256"},{"name":"listPrice","type":"uint256","indexed":false,"internalType":"uint256"}],"anonymous":false},{"type":"event","name":"listOrder","inputs":[{"name":"from","type":"address","indexed":true,"internalType":"address"},{"name":"contractAddress","type":"address","indexed":true,"internalType":"address"},{"name":"tokenId","type":"uint256","indexed":true,"internalType":"uint256"},{"name":"listPrice","type":"uint256","indexed":false,"internalType":"uint256"}],"anonymous":false},{"type":"error","name":"ECDSAInvalidSignature","inputs":[]},{"type":"error","name":"ECDSAInvalidSignatureLength","inputs":[{"name":"length","type":"uint256","internalType":"uint256"}]},{"type":"error","name":"ECDSAInvalidSignatureS","inputs":[{"name":"s","type":"bytes32","internalType":"bytes32"}]},{"type":"error","name":"ExpiredSignature","inputs":[{"name":"deadline","type":"uint256","internalType":"uint256"}]},{"type":"error","name":"InvalidShortString","inputs":[]},{"type":"error","name":"InvalidSigner","inputs":[{"name":"signer","type":"address","internalType":"address"},{"name":"owner","type":"address","internalType":"address"}]},{"type":"error","name":"StringTooLong","inputs":[{"name":"str","type":"string","internalType":"string"}]}],"bytecode":{"object":"0x6101806040527f6e71edae12b1b97f4d1f60370fef10105fa2faae0126114a169c64845d6126c96101605234801561003657600080fd5b50604080518082018252600981526813919513585c9ad95d60ba1b602080830191909152825180840190935260018352603160f81b908301529061007b826000610125565b6101205261008a816001610125565b61014052815160208084019190912060e052815190820120610100524660a05261011760e05161010051604080517f8b73c3c69bb8fe3d512ecc4cf759cc79239f7b179b0ffacaa9a75d522b39400f60208201529081019290925260608201524660808201523060a082015260009060c00160405160208183030381529060405280519060200120905090565b60805250503060c052610372565b60006020835110156101415761013a83610158565b9050610152565b8161014c8482610240565b5060ff90505b92915050565b600080829050601f8151111561018c578260405163305a27a960e01b815260040161018391906102ff565b60405180910390fd5b80516101978261034e565b179392505050565b634e487b7160e01b600052604160045260246000fd5b600181811c908216806101c957607f821691505b6020821081036101e957634e487b7160e01b600052602260045260246000fd5b50919050565b601f82111561023b576000816000526020600020601f850160051c810160208610156102185750805b601f850160051c820191505b8181101561023757828155600101610224565b5050505b505050565b81516001600160401b038111156102595761025961019f565b61026d8161026784546101b5565b846101ef565b602080601f8311600181146102a2576000841561028a5750858301515b600019600386901b1c1916600185901b178555610237565b600085815260208120601f198616915b828110156102d1578886015182559484019460019091019084016102b2565b50858210156102ef5787850151600019600388901b60f8161c191681555b5050505050600190811b01905550565b60006020808352835180602085015260005b8181101561032d57858101830151858201604001528201610311565b506000604082860101526040601f19601f8301168501019250505092915050565b805160208083015191908110156101e95760001960209190910360031b1b16919050565b60805160a05160c05160e051610100516101205161014051610160516119ff6103de600039600081816104c6015261055601526000610e5801526000610e2b015260006110cb015260006110a301526000610ffe015260006110280152600061105201526119ff6000f3fe608060405234801561001057600080fd5b50600436106100a95760003560e01c806384b0196e1161007157806384b0196e146101605780638b199bc71461017b578063c6f49de11461019c578063dc0c81b5146101af578063dda342bb146101b7578063ffe50b89146101ca57600080fd5b8063150b7a02146100ae5780631f29d2dc146100ea578063454976a2146101155780634816581a146101385780636607abf61461014d575b600080fd5b6100cc6100bc366004611437565b630a85bd0160e11b949350505050565b6040516001600160e01b031990911681526020015b60405180910390f35b6100fd6100f83660046114fb565b6101dd565b6040516001600160a01b0390911681526020016100e1565b610128610123366004611437565b61020a565b60405190151581526020016100e1565b61014b61014636600461153d565b6103d7565b005b61014b61015b366004611629565b6103f3565b61016861042b565b6040516100e1979695949392919061170c565b61018e6101893660046114fb565b610471565b6040519081526020016100e1565b61014b6101aa3660046117a5565b61049c565b61018e61067f565b61014b6101c5366004611813565b61068e565b61014b6101d8366004611848565b61077e565b6001600160a01b038083166000908152600460209081526040808320858452909152902054165b92915050565b60008082806020019051810190610221919061188a565b80519091506001600160a01b031615801590610241575060008160200151115b6102865760405162461bcd60e51b81526020600482015260116024820152706461746120656e747279206572726f727360781b60448201526064015b60405180910390fd5b8361029982600001518360200151610471565b146102dd5760405162461bcd60e51b81526020600482015260146024820152734e6f20657175616c73206c69737420707269636560601b604482015260640161027d565b60006102f1826000015183602001516101dd565b9050600061030987846000015185602001518b6108dc565b9050806103475760405162461bcd60e51b815260206004820152600c60248201526b1d185b9cd9995c8819985a5b60a21b604482015260640161027d565b600280546001600160a01b0319163390811790915560405163a9059cbb60e01b81526001600160a01b03841660048201526024810188905263a9059cbb906044016020604051808303816000875af11580156103a7573d6000803e3d6000fd5b505050506040513d601f19601f820116820180604052508101906103cb91906118e2565b50979650505050505050565b6103e8898989898989898989610a55565b505050505050505050565b61040d898985846000015185602001518660400151610a8a565b6103e88989898989898989600001518a602001518b60400151610d91565b60006060806000806000606061043f610e24565b610447610e51565b60408051600080825260208201909252600f60f81b9b939a50919850469750309650945092509050565b6001600160a01b03919091166000908152600460209081526040808320938352929052206001015490565b834211156104c057604051632f4aa44f60e21b81526004810185905260240161027d565b604080517f00000000000000000000000000000000000000000000000000000000000000006020808301919091526001600160a01b038a811683850152891660608301526080820188905260a0820188905260c08083018890528351808403909101815260e083018085528151919092012061014083019093526025808252610551926119a5906101000139610e7e565b61057a7f0000000000000000000000000000000000000000000000000000000000000000610ec4565b6105e4306001600160a01b031663dc0c81b56040518163ffffffff1660e01b8152600401602060405180830381865afa1580156105bb573d6000803e3d6000fd5b505050506040513d601f19601f820116820180604052508101906105df919061190b565b610ec4565b6105ed81610ec4565b6105f688610f09565b6105ff87610f09565b61060886610f51565b61061185610f51565b600061061c82610f96565b9050600061062c82878787610fc3565b9050896001600160a01b0316816001600160a01b03161461067357604051637ba5ffb560e01b81526001600160a01b0380831660048301528b16602482015260440161027d565b50505050505050505050565b6000610689610ff1565b905090565b600380546001600160a01b0319166001600160a01b038516908117909155604051632142170760e11b8152336004820152306024820152604481018490526342842e0e90606401600060405180830381600087803b1580156106ef57600080fd5b505af1158015610703573d6000803e3d6000fd5b505050506001600160a01b038316600081815260046020908152604080832086845282529182902080546001600160a01b03191633908117825560019091018590559151848152859392917f9403cc472149b57dc853960dcefe862ece534877fe046522f9b075e046c69236910160405180910390a4505050565b600061078a8484610471565b600280546001600160a01b0319166001600160a01b0385811691821790925586821660009081526004602081815260408084208a8552909152918290205491516323b872dd60e01b8152339181019190915292166024830152604482018390529192506323b872dd906064016020604051808303816000875af1158015610815573d6000803e3d6000fd5b505050506040513d601f19601f8201168201806040525081019061083991906118e2565b61087b5760405162461bcd60e51b8152602060048201526013602482015272135bdb995e48151c985b9cd9995c8819985a5b606a1b604482015260640161027d565b610887308585336108dc565b5082846001600160a01b0316336001600160a01b03167fcd8a64c4d006e94cc9ec7c0907e485b0ee6b17e0bff0f7a75b6840b73111a964846040516108ce91815260200190565b60405180910390a450505050565b6000806108e985856101dd565b6001600160a01b0316036109325760405162461bcd60e51b815260206004820152601060248201526f1d5cd95c881a5cc81b9bdd081b1a5cdd60821b604482015260640161027d565b816001600160a01b031661094685856101dd565b6001600160a01b0316036109925760405162461bcd60e51b8152602060048201526013602482015272313abcb2b91034b9903737ba1039b2b63632b960691b604482015260640161027d565b600380546001600160a01b0319166001600160a01b03868116918217909255604051632142170760e11b81528783166004820152918416602483015260448201859052906342842e0e90606401600060405180830381600087803b1580156109f957600080fd5b505af1158015610a0d573d6000803e3d6000fd5b505050506001600160a01b0393909316600090815260046020908152604080832094835293905291822080546001600160a01b03191681556001908101929092555092915050565b600380546001600160a01b0319166001600160a01b038916179055610a7f8989878787878761049c565b6103e887868861068e565b600380546001600160a01b0319166001600160a01b03881690811790915560408051638da5cb5b60e01b8152905160009291638da5cb5b9160048083019260209291908290030181865afa158015610ae6573d6000803e3d6000fd5b505050506040513d601f19601f82011682018060405250810190610b0a9190611924565b604080517f6e71edae12b1b97f4d1f60370fef10105fa2faae0126114a169c64845d6126c960208201526001600160a01b038316918101919091523360608201526080810188905260a0810188905260c0810187905290915060009060e0016040516020818303038152906040528051906020012090506000306001600160a01b031663dc0c81b56040518163ffffffff1660e01b8152600401602060405180830381865afa158015610bc1573d6000803e3d6000fd5b505050506040513d601f19601f82011682018060405250810190610be5919061190b565b60405161190160f01b602082015260228101919091526042810183905260620160408051601f198184030181528282528051602091820120600080855291840180845281905260ff8a169284019290925260608301889052608083018790529092509060019060a0016020604051602081039080840390855afa158015610c70573d6000803e3d6000fd5b505050602060405103519050836001600160a01b0316816001600160a01b031614610cdd5760405162461bcd60e51b815260206004820152601d60248201527f4d7946756e6374696f6e3a20696e76616c6964207369676e6174757265000000604482015260640161027d565b6001600160a01b038116610d335760405162461bcd60e51b815260206004820152601860248201527f45434453413a20696e76616c6964207369676e61747572650000000000000000604482015260640161027d565b8742106106735760405162461bcd60e51b815260206004820152602660248201527f4d7946756e6374696f6e3a207369676e6564207472616e73616374696f6e20656044820152651e1c1a5c995960d21b606482015260840161027d565b60405163d505accf60e01b81526001600160a01b0388811660048301528781166024830152604482018790526064820186905260ff8516608483015260a4820184905260c4820183905289169063d505accf9060e401600060405180830381600087803b158015610e0157600080fd5b505af1158015610e15573d6000803e3d6000fd5b505050506106738a8a8a61077e565b60606106897f0000000000000000000000000000000000000000000000000000000000000000600061111c565b60606106897f0000000000000000000000000000000000000000000000000000000000000000600161111c565b610ec181604051602401610e929190611941565b60408051601f198184030181529190526020810180516001600160e01b031663104c13eb60e21b1790526111c7565b50565b610ec181604051602401610eda91815260200190565b60408051601f198184030181529190526020810180516001600160e01b03166327b7cf8560e01b1790526111c7565b6040516001600160a01b0382166024820152610ec19060440160408051601f198184030181529190526020810180516001600160e01b031663161765e160e11b1790526111c7565b610ec181604051602401610f6791815260200190565b60408051601f198184030181529190526020810180516001600160e01b031663f5b1bba960e01b1790526111c7565b6000610204610fa3610ff1565b8360405161190160f01b8152600281019290925260228201526042902090565b600080600080610fd5888888886111e8565b925092509250610fe582826112b7565b50909695505050505050565b6000306001600160a01b037f00000000000000000000000000000000000000000000000000000000000000001614801561104a57507f000000000000000000000000000000000000000000000000000000000000000046145b1561107457507f000000000000000000000000000000000000000000000000000000000000000090565b610689604080517f8b73c3c69bb8fe3d512ecc4cf759cc79239f7b179b0ffacaa9a75d522b39400f60208201527f0000000000000000000000000000000000000000000000000000000000000000918101919091527f000000000000000000000000000000000000000000000000000000000000000060608201524660808201523060a082015260009060c00160405160208183030381529060405280519060200120905090565b606060ff83146111365761112f83611374565b9050610204565b81805461114290611954565b80601f016020809104026020016040519081016040528092919081815260200182805461116e90611954565b80156111bb5780601f10611190576101008083540402835291602001916111bb565b820191906000526020600020905b81548152906001019060200180831161119e57829003601f168201915b50505050509050610204565b80516a636f6e736f6c652e6c6f67602083016000808483855afa5050505050565b600080807f7fffffffffffffffffffffffffffffff5d576e7357a4501ddfe92f46681b20a084111561122357506000915060039050826112ad565b604080516000808252602082018084528a905260ff891692820192909252606081018790526080810186905260019060a0016020604051602081039080840390855afa158015611277573d6000803e3d6000fd5b5050604051601f1901519150506001600160a01b0381166112a3575060009250600191508290506112ad565b9250600091508190505b9450945094915050565b60008260038111156112cb576112cb61198e565b036112d4575050565b60018260038111156112e8576112e861198e565b036113065760405163f645eedf60e01b815260040160405180910390fd5b600282600381111561131a5761131a61198e565b0361133b5760405163fce698f760e01b81526004810182905260240161027d565b600382600381111561134f5761134f61198e565b03611370576040516335e2f38360e21b81526004810182905260240161027d565b5050565b60606000611381836113b3565b604080516020808252818301909252919250600091906020820181803683375050509182525060208101929092525090565b600060ff8216601f81111561020457604051632cd44ac360e21b815260040160405180910390fd5b6001600160a01b0381168114610ec157600080fd5b634e487b7160e01b600052604160045260246000fd5b604051601f8201601f1916810167ffffffffffffffff8111828210171561142f5761142f6113f0565b604052919050565b6000806000806080858703121561144d57600080fd5b8435611458816113db565b9350602085810135611469816113db565b935060408601359250606086013567ffffffffffffffff8082111561148d57600080fd5b818801915088601f8301126114a157600080fd5b8135818111156114b3576114b36113f0565b6114c5601f8201601f19168501611406565b915080825289848285010111156114db57600080fd5b808484018584013760008482840101525080935050505092959194509250565b6000806040838503121561150e57600080fd5b8235611519816113db565b946020939093013593505050565b803560ff8116811461153857600080fd5b919050565b60008060008060008060008060006101208a8c03121561155c57600080fd5b8935611567816113db565b985060208a0135611577816113db565b975060408a0135611587816113db565b965060608a0135955060808a0135945060a08a013593506115aa60c08b01611527565b925060e08a013591506101008a013590509295985092959850929598565b6000606082840312156115da57600080fd5b6040516060810181811067ffffffffffffffff821117156115fd576115fd6113f0565b60405290508061160c83611527565b815260208301356020820152604083013560408201525092915050565b60008060008060008060008060006101a08a8c03121561164857600080fd5b8935611653816113db565b985060208a0135975060408a013561166a816113db565b965060608a013561167a816113db565b955060808a013561168a816113db565b945060a08a0135935060c08a013592506116a78b60e08c016115c8565b91506116b78b6101408c016115c8565b90509295985092959850929598565b6000815180845260005b818110156116ec576020818501810151868301820152016116d0565b506000602082860101526020601f19601f83011685010191505092915050565b60ff60f81b881681526000602060e0602084015261172d60e084018a6116c6565b838103604085015261173f818a6116c6565b606085018990526001600160a01b038816608086015260a0850187905284810360c08601528551808252602080880193509091019060005b8181101561179357835183529284019291840191600101611777565b50909c9b505050505050505050505050565b600080600080600080600060e0888a0312156117c057600080fd5b87356117cb816113db565b965060208801356117db816113db565b955060408801359450606088013593506117f760808901611527565b925060a0880135915060c0880135905092959891949750929550565b60008060006060848603121561182857600080fd5b8335611833816113db565b95602085013595506040909401359392505050565b60008060006060848603121561185d57600080fd5b8335611868816113db565b925060208401359150604084013561187f816113db565b809150509250925092565b60006040828403121561189c57600080fd5b6040516040810181811067ffffffffffffffff821117156118bf576118bf6113f0565b60405282516118cd816113db565b81526020928301519281019290925250919050565b6000602082840312156118f457600080fd5b8151801515811461190457600080fd5b9392505050565b60006020828403121561191d57600080fd5b5051919050565b60006020828403121561193657600080fd5b8151611904816113db565b60208152600061190460208301846116c6565b600181811c9082168061196857607f821691505b60208210810361198857634e487b7160e01b600052602260045260246000fd5b50919050565b634e487b7160e01b600052602160045260246000fdfe3d3d3d3d3d3d3d3d3d3d3d3d3d3d3d4d61726b65743d3d3d3d3d3d3d3d3d3d3d3d3d3d3d3da26469706673582212205ffc46656c36da41ea6ef40380433b82fb97566965d40b27ea10ee9ffab2461464736f6c63430008190033","linkReferences":{}},"methodIdentifiers":{"_DOMAIN_SEPARATOR()":"dc0c81b5","_permitVaild(address,address,uint256,uint256,uint8,bytes32,bytes32)":"c6f49de1","buyNFT(address,uint256,address)":"ffe50b89","eip712Domain()":"84b0196e","list(address,uint256,uint256)":"dda342bb","listPrice(address,uint256)":"8b199bc7","onERC721Received(address,address,uint256,bytes)":"150b7a02","ownerOf(address,uint256)":"1f29d2dc","permitBuy(address,uint256,address,address,address,uint256,uint256,(uint8,bytes32,bytes32),(uint8,bytes32,bytes32))":"6607abf6","permitList(address,address,address,uint256,uint256,uint256,uint8,bytes32,bytes32)":"4816581a","tokensReceive(address,address,uint256,bytes)":"454976a2"},"storageLayout":{"storage":[{"astId":50936,"contract":"src/NFTMarketV2.sol:NFTMarketV2","label":"_nameFallback","offset":0,"slot":"0","type":"t_string_storage"},{"astId":50938,"contract":"src/NFTMarketV2.sol:NFTMarketV2","label":"_versionFallback","offset":0,"slot":"1","type":"t_string_storage"},{"astId":58517,"contract":"src/NFTMarketV2.sol:NFTMarketV2","label":"tokenContract","offset":0,"slot":"2","type":"t_contract(Base20Token)57886"},{"astId":58520,"contract":"src/NFTMarketV2.sol:NFTMarketV2","label":"NFTContract","offset":0,"slot":"3","type":"t_contract(Base721Token)57946"},{"astId":58540,"contract":"src/NFTMarketV2.sol:NFTMarketV2","label":"marketList","offset":0,"slot":"4","type":"t_mapping(t_address,t_mapping(t_uint256,t_struct(listUser)58533_storage))"}],"types":{"t_address":{"encoding":"inplace","label":"address","numberOfBytes":"20"},"t_contract(Base20Token)57886":{"encoding":"inplace","label":"contract Base20Token","numberOfBytes":"20"},"t_contract(Base721Token)57946":{"encoding":"inplace","label":"contract Base721Token","numberOfBytes":"20"},"t_mapping(t_address,t_mapping(t_uint256,t_struct(listUser)58533_storage))":{"encoding":"mapping","key":"t_address","label":"mapping(address => mapping(uint256 => struct NFTMarketV2.listUser))","numberOfBytes":"32","value":"t_mapping(t_uint256,t_struct(listUser)58533_storage)"},"t_mapping(t_uint256,t_struct(listUser)58533_storage)":{"encoding":"mapping","key":"t_uint256","label":"mapping(uint256 => struct NFTMarketV2.listUser)","numberOfBytes":"32","value":"t_struct(listUser)58533_storage"},"t_string_storage":{"encoding":"bytes","label":"string","numberOfBytes":"32"},"t_struct(listUser)58533_storage":{"encoding":"inplace","label":"struct NFTMarketV2.listUser","numberOfBytes":"64","members":[{"astId":58530,"contract":"src/NFTMarketV2.sol:NFTMarketV2","label":"owner","offset":0,"slot":"0","type":"t_address"},{"astId":58532,"contract":"src/NFTMarketV2.sol:NFTMarketV2","label":"listPrice","offset":0,"slot":"1","type":"t_uint256"}]},"t_uint256":{"encoding":"inplace","label":"uint256","numberOfBytes":"32"}}},"id":69}