{"abi":[{"type":"function","name":"bankBalance","inputs":[{"name":"contractAddress","type":"address","internalType":"address"}],"outputs":[{"name":"","type":"uint256","internalType":"uint256"}],"stateMutability":"view"},{"type":"function","name":"deposit","inputs":[{"name":"contractAddress","type":"address","internalType":"address"},{"name":"_value","type":"uint256","internalType":"uint256"}],"outputs":[{"name":"","type":"bool","internalType":"bool"}],"stateMutability":"nonpayable"},{"type":"function","name":"permitDeposit","inputs":[{"name":"contractAddress","type":"address","internalType":"address"},{"name":"spender","type":"address","internalType":"address"},{"name":"amount","type":"uint256","internalType":"uint256"},{"name":"deadline","type":"uint256","internalType":"uint256"},{"name":"v","type":"uint8","internalType":"uint8"},{"name":"r","type":"bytes32","internalType":"bytes32"},{"name":"s","type":"bytes32","internalType":"bytes32"}],"outputs":[],"stateMutability":"nonpayable"},{"type":"function","name":"tokensReceive","inputs":[{"name":"_from","type":"address","internalType":"address"},{"name":"","type":"address","internalType":"address"},{"name":"_value","type":"uint256","internalType":"uint256"},{"name":"","type":"bytes","internalType":"bytes"}],"outputs":[{"name":"","type":"bool","internalType":"bool"}],"stateMutability":"nonpayable"},{"type":"function","name":"withdraw","inputs":[{"name":"contractAddress","type":"address","internalType":"address"},{"name":"_value","type":"uint256","internalType":"uint256"}],"outputs":[{"name":"","type":"bool","internalType":"bool"}],"stateMutability":"nonpayable"}],"bytecode":{"object":"0x608080604052346015576105aa908161001b8239f35b600080fdfe6040608081526004908136101561001557600080fd5b6000803560e01c8063454976a21461031957806347e7ef24146102e757806379c93970146101f75780639839fa4a146101b25763f3fef3a31461005757600080fd5b346101af57816003193601126101af5761006f6103d3565b92602480359260018060a01b0386168082526020968288528683203360005288528587600020541061016d5786518881019063a9059cbb60e01b82523386820152876044820152604481526080810181811067ffffffffffffffff82111761015957895251849283929083905af16100e561047b565b50156101255781528086528481203360005286528460002092835494850394851161011557505050555160018152f35b634e487b7160e01b825260119052fd5b855162461bcd60e51b8152808501889052600f818501526e1dda5d1a191c985dc819985a5b1959608a1b6044820152606490fd5b86604189634e487b7160e01b600052526000fd5b865162461bcd60e51b8152808601899052601c818601527f496e73756666696369656e74206163636f756e742062616c616e6365000000006044820152606490fd5b80fd5b5090346101f35760203660031901126101f35760209181906001600160a01b036101da6103d3565b1681528084522033600052825280600020549051908152f35b5080fd5b5090346101f35760e03660031901126101f3576102126103d3565b61021a6103ee565b604435926084359160ff83168093036102e3576001600160a01b039284841690813b156102df57888880949360e4938751988996879563d505accf60e01b875233908701521660248501528a60448501526064356064850152608484015260a43560a484015260c43560c48401525af180156102d5576102a4575b846102a085856104ab565b5080f35b67ffffffffffffffff82959395116102c25752919250823880610295565b634e487b7160e01b835260418652602483fd5b81513d87823e3d90fd5b8780fd5b8580fd5b5090346101f357806003193601126101f3576020906103106103076103d3565b602435906104ab565b90519015158152f35b5091346103cf5760803660031901126103cf576103346103d3565b9061033d6103ee565b506064359067ffffffffffffffff82116103cb57366023830112156103cb57810135906103698261043c565b9061037685519283610404565b82825236602484830101116102e3579460208386959383956024849a01848301370101523382528185528282206001600160a01b03909116825284522080546103c29060443590610458565b90555160018152f35b8480fd5b8280fd5b600435906001600160a01b03821682036103e957565b600080fd5b602435906001600160a01b03821682036103e957565b90601f8019910116810190811067ffffffffffffffff82111761042657604052565b634e487b7160e01b600052604160045260246000fd5b67ffffffffffffffff811161042657601f01601f191660200190565b9190820180921161046557565b634e487b7160e01b600052601160045260246000fd5b3d156104a6573d9061048c8261043c565b9161049a6040519384610404565b82523d6000602084013e565b606090565b9060405160208101906323b872dd60e01b82523360248201523060448201528260648201526064815260a0810181811067ffffffffffffffff82111761042657604052600080928192519082875af19261050361047b565b508315610539576001600160a01b031681526020818152604080832033845290915290208054909161053491610458565b905590565b60405162461bcd60e51b8152602060048201526013602482015272151c985b9cd9995c919bdc9b4819985a5b1959606a1b6044820152606490fdfea2646970667358221220ceef835fae611c84b6c31dfcbf8c53ea24dd10abef56045d207a21f20301ffeb64736f6c63430008190033","linkReferences":{}},"methodIdentifiers":{"bankBalance(address)":"9839fa4a","deposit(address,uint256)":"47e7ef24","permitDeposit(address,address,uint256,uint256,uint8,bytes32,bytes32)":"79c93970","tokensReceive(address,address,uint256,bytes)":"454976a2","withdraw(address,uint256)":"f3fef3a3"},"id":50}